{
  "contractName": "Approvable",
  "abi": [
    {
      "inputs": [
        {
          "internalType": "address[]",
          "name": "approvers",
          "type": "address[]"
        },
        {
          "internalType": "uint256",
          "name": "minApprovals",
          "type": "uint256"
        }
      ],
      "name": "initializeApprovable",
      "outputs": [],
      "stateMutability": "nonpayable",
      "type": "function"
    },
    {
      "inputs": [],
      "name": "getApprovers",
      "outputs": [
        {
          "internalType": "address[]",
          "name": "approvers",
          "type": "address[]"
        }
      ],
      "stateMutability": "view",
      "type": "function"
    },
    {
      "inputs": [],
      "name": "getMinApprovals",
      "outputs": [
        {
          "internalType": "uint256",
          "name": "",
          "type": "uint256"
        }
      ],
      "stateMutability": "view",
      "type": "function"
    }
  ],
  "bytecode": "0x608060405234801561001057600080fd5b50610b4f806100206000396000f3fe608060405234801561001057600080fd5b50600436106100415760003560e01c80634d3e2490146100465780634db7ce09146100645780636cb3e8ef14610080575b600080fd5b61004e61009e565b60405161005b9190610846565b60405180910390f35b61007e60048036038101906100799190610630565b6100a8565b005b6100886104e2565b60405161009591906107a4565b60405180910390f35b6000600354905090565b600060019054906101000a900460ff16806100ce575060008054906101000a900460ff16155b61010d576040517f08c379a0000000000000000000000000000000000000000000000000000000008152600401610104906107c6565b60405180910390fd5b60008060019054906101000a900460ff16159050801561015d576001600060016101000a81548160ff02191690831515021790555060016000806101000a81548160ff0219169083151502179055505b82518211156101a1576040517f08c379a0000000000000000000000000000000000000000000000000000000008152600401610198906107e6565b60405180910390fd5b60005b835181101561047857600073ffffffffffffffffffffffffffffffffffffffff168482815181106101fe577f4e487b7100000000000000000000000000000000000000000000000000000000600052603260045260246000fd5b602002602001015173ffffffffffffffffffffffffffffffffffffffff16141561025d576040517f08c379a000000000000000000000000000000000000000000000000000000000815260040161025490610806565b60405180910390fd5b6002600085838151811061029a577f4e487b7100000000000000000000000000000000000000000000000000000000600052603260045260246000fd5b602002602001015173ffffffffffffffffffffffffffffffffffffffff1673ffffffffffffffffffffffffffffffffffffffff16815260200190815260200160002060009054906101000a900460ff161561032a576040517f08c379a000000000000000000000000000000000000000000000000000000000815260040161032190610826565b60405180910390fd5b6001848281518110610365577f4e487b7100000000000000000000000000000000000000000000000000000000600052603260045260246000fd5b60200260200101519080600181540180825580915050600190039060005260206000200160009091909190916101000a81548173ffffffffffffffffffffffffffffffffffffffff021916908373ffffffffffffffffffffffffffffffffffffffff16021790555060016002600086848151811061040c577f4e487b7100000000000000000000000000000000000000000000000000000000600052603260045260246000fd5b602002602001015173ffffffffffffffffffffffffffffffffffffffff1673ffffffffffffffffffffffffffffffffffffffff16815260200190815260200160002060006101000a81548160ff021916908315150217905550808061047090610969565b9150506101a4565b50816003819055508251600180549050146104bc577f4e487b7100000000000000000000000000000000000000000000000000000000600052600160045260246000fd5b80156104dd5760008060016101000a81548160ff0219169083151502179055505b505050565b6060600180548060200260200160405190810160405280929190818152602001828054801561056657602002820191906000526020600020905b8160009054906101000a900473ffffffffffffffffffffffffffffffffffffffff1673ffffffffffffffffffffffffffffffffffffffff168152602001906001019080831161051c575b5050505050905090565b600061058361057e84610886565b610861565b905080838252602082019050828560208602820111156105a257600080fd5b60005b858110156105d257816105b888826105dc565b8452602084019350602083019250506001810190506105a5565b5050509392505050565b6000813590506105eb81610aeb565b92915050565b600082601f83011261060257600080fd5b8135610612848260208601610570565b91505092915050565b60008135905061062a81610b02565b92915050565b6000806040838503121561064357600080fd5b600083013567ffffffffffffffff81111561065d57600080fd5b610669858286016105f1565b925050602061067a8582860161061b565b9150509250929050565b6000610690838361069c565b60208301905092915050565b6106a5816108fc565b82525050565b60006106b6826108c2565b6106c081856108da565b93506106cb836108b2565b8060005b838110156106fc5781516106e38882610684565b97506106ee836108cd565b9250506001810190506106cf565b5085935050505092915050565b6000610716602e836108eb565b915061072182610a21565b604082019050919050565b6000610739601e836108eb565b915061074482610a70565b602082019050919050565b600061075c6017836108eb565b915061076782610a99565b602082019050919050565b600061077f601b836108eb565b915061078a82610ac2565b602082019050919050565b61079e8161092e565b82525050565b600060208201905081810360008301526107be81846106ab565b905092915050565b600060208201905081810360008301526107df81610709565b9050919050565b600060208201905081810360008301526107ff8161072c565b9050919050565b6000602082019050818103600083015261081f8161074f565b9050919050565b6000602082019050818103600083015261083f81610772565b9050919050565b600060208201905061085b6000830184610795565b92915050565b600061086b61087c565b90506108778282610938565b919050565b6000604051905090565b600067ffffffffffffffff8211156108a1576108a06109e1565b5b602082029050602081019050919050565b6000819050602082019050919050565b600081519050919050565b6000602082019050919050565b600082825260208201905092915050565b600082825260208201905092915050565b60006109078261090e565b9050919050565b600073ffffffffffffffffffffffffffffffffffffffff82169050919050565b6000819050919050565b61094182610a10565b810181811067ffffffffffffffff821117156109605761095f6109e1565b5b80604052505050565b60006109748261092e565b91507fffffffffffffffffffffffffffffffffffffffffffffffffffffffffffffffff8214156109a7576109a66109b2565b5b600182019050919050565b7f4e487b7100000000000000000000000000000000000000000000000000000000600052601160045260246000fd5b7f4e487b7100000000000000000000000000000000000000000000000000000000600052604160045260246000fd5b6000601f19601f8301169050919050565b7f496e697469616c697a61626c653a20636f6e747261637420697320616c72656160008201527f647920696e697469616c697a6564000000000000000000000000000000000000602082015250565b7f4d696e696d756d20617070726f76616c73203e20617070726f76657273210000600082015250565b7f417070726f766572206861732030206164647265737321000000000000000000600082015250565b7f4475706c696361746520617070726f7665722061646472657373210000000000600082015250565b610af4816108fc565b8114610aff57600080fd5b50565b610b0b8161092e565b8114610b1657600080fd5b5056fea2646970667358221220cb0cc302bfba189270f22da93c45aa48e41fe99b5728f9a9006df06d89ba8c7e64736f6c63430008040033",
  "immutableReferences": {},
  "source": "// SPDX-License-Identifier: MIT\npragma solidity 0.8.4;\n\nimport \"../node_modules/@openzeppelin/contracts-upgradeable/proxy/utils/Initializable.sol\";\n\ncontract Approvable is Initializable {\n    \n    address[] internal _approvers;\n    mapping (address => bool) internal _approvership;\n    uint internal _minApprovals;\n\n    modifier onlyAnApprover {\n         require(_approvership[msg.sender], \"Not an approver!\");\n         _;\n    }\n    \n    function initializeApprovable(address[] memory approvers, uint minApprovals)\n        public\n        virtual\n        initializer\n    {\n        require(\n            minApprovals <= approvers.length,\n            \"Minimum approvals > approvers!\"\n        );\n        \n        for (uint i=0; i < approvers.length; i++) {\n            require(approvers[i] != address(0), \"Approver has 0 address!\");\n            require(\n                !_approvership[approvers[i]],\n                \"Duplicate approver address!\"\n            );\n            _approvers.push(approvers[i]);\n            _approvership[approvers[i]] = true;\n        }\n        _minApprovals = minApprovals;\n\n        assert(_approvers.length == approvers.length);\n    }\n\n    // Functions for Developer testing \n    function getApprovers() external view returns (address[] memory approvers){\n        return _approvers;\n    }\n    \n    function getMinApprovals() external view returns (uint){\n        return _minApprovals;\n    }\n}",
  "sourcePath": "/Users/Mark/Documents/BlockChain/IvanOnTechAcademy/Bootcamp/Upgradeable MultiSig Wallet/contracts/Approvable.sol",
  "compiler": {
    "name": "solc",
    "version": "0.8.4+commit.c7e474f2.Emscripten.clang"
  },
  "schemaVersion": "3.4.1",
  "updatedAt": "2021-06-15T22:47:38.975Z",
  "devdoc": {
    "kind": "dev",
    "methods": {},
    "version": 1
  },
  "userdoc": {
    "kind": "user",
    "methods": {},
    "version": 1
  }
}