{
  "contractName": "Approvable",
  "abi": [
    {
      "inputs": [
        {
          "internalType": "address[]",
          "name": "approvers",
          "type": "address[]"
        },
        {
          "internalType": "uint256",
          "name": "minApprovals",
          "type": "uint256"
        }
      ],
      "stateMutability": "nonpayable",
      "type": "constructor"
    },
    {
      "inputs": [],
      "name": "getApprovers",
      "outputs": [
        {
          "internalType": "address[]",
          "name": "approvers",
          "type": "address[]"
        }
      ],
      "stateMutability": "view",
      "type": "function"
    },
    {
      "inputs": [],
      "name": "getMinApprovals",
      "outputs": [
        {
          "internalType": "uint256",
          "name": "",
          "type": "uint256"
        }
      ],
      "stateMutability": "view",
      "type": "function"
    }
  ],
  "bytecode": "0x608060405234801561001057600080fd5b50604051610a3e380380610a3e83398181016040528101906100329190610457565b8151811115610076576040517f08c379a000000000000000000000000000000000000000000000000000000000815260040161006d90610514565b60405180910390fd5b60005b825181101561034c57600073ffffffffffffffffffffffffffffffffffffffff168382815181106100d3577f4e487b7100000000000000000000000000000000000000000000000000000000600052603260045260246000fd5b602002602001015173ffffffffffffffffffffffffffffffffffffffff161415610132576040517f08c379a000000000000000000000000000000000000000000000000000000000815260040161012990610534565b60405180910390fd5b6001600084838151811061016f577f4e487b7100000000000000000000000000000000000000000000000000000000600052603260045260246000fd5b602002602001015173ffffffffffffffffffffffffffffffffffffffff1673ffffffffffffffffffffffffffffffffffffffff16815260200190815260200160002060009054906101000a900460ff16156101ff576040517f08c379a00000000000000000000000000000000000000000000000000000000081526004016101f690610554565b60405180910390fd5b600083828151811061023a577f4e487b7100000000000000000000000000000000000000000000000000000000600052603260045260246000fd5b60200260200101519080600181540180825580915050600190039060005260206000200160009091909190916101000a81548173ffffffffffffffffffffffffffffffffffffffff021916908373ffffffffffffffffffffffffffffffffffffffff16021790555060018060008584815181106102e0577f4e487b7100000000000000000000000000000000000000000000000000000000600052603260045260246000fd5b602002602001015173ffffffffffffffffffffffffffffffffffffffff1673ffffffffffffffffffffffffffffffffffffffff16815260200190815260200160002060006101000a81548160ff021916908315150217905550808061034490610643565b915050610079565b5080600281905550815160008054905014610390577f4e487b7100000000000000000000000000000000000000000000000000000000600052600160045260246000fd5b50506107a4565b60006103aa6103a584610599565b610574565b905080838252602082019050828560208602820111156103c957600080fd5b60005b858110156103f957816103df8882610403565b8452602084019350602083019250506001810190506103cc565b5050509392505050565b60008151905061041281610776565b92915050565b600082601f83011261042957600080fd5b8151610439848260208601610397565b91505092915050565b6000815190506104518161078d565b92915050565b6000806040838503121561046a57600080fd5b600083015167ffffffffffffffff81111561048457600080fd5b61049085828601610418565b92505060206104a185828601610442565b9150509250929050565b60006104b8601e836105c5565b91506104c3826106fb565b602082019050919050565b60006104db6017836105c5565b91506104e682610724565b602082019050919050565b60006104fe601b836105c5565b91506105098261074d565b602082019050919050565b6000602082019050818103600083015261052d816104ab565b9050919050565b6000602082019050818103600083015261054d816104ce565b9050919050565b6000602082019050818103600083015261056d816104f1565b9050919050565b600061057e61058f565b905061058a8282610612565b919050565b6000604051905090565b600067ffffffffffffffff8211156105b4576105b36106bb565b5b602082029050602081019050919050565b600082825260208201905092915050565b60006105e1826105e8565b9050919050565b600073ffffffffffffffffffffffffffffffffffffffff82169050919050565b6000819050919050565b61061b826106ea565b810181811067ffffffffffffffff8211171561063a576106396106bb565b5b80604052505050565b600061064e82610608565b91507fffffffffffffffffffffffffffffffffffffffffffffffffffffffffffffffff8214156106815761068061068c565b5b600182019050919050565b7f4e487b7100000000000000000000000000000000000000000000000000000000600052601160045260246000fd5b7f4e487b7100000000000000000000000000000000000000000000000000000000600052604160045260246000fd5b6000601f19601f8301169050919050565b7f4d696e696d756d20617070726f76616c73203e20617070726f76657273210000600082015250565b7f417070726f766572206861732030206164647265737321000000000000000000600082015250565b7f4475706c696361746520617070726f7665722061646472657373210000000000600082015250565b61077f816105d6565b811461078a57600080fd5b50565b61079681610608565b81146107a157600080fd5b50565b61028b806107b36000396000f3fe608060405234801561001057600080fd5b50600436106100365760003560e01c80634d3e24901461003b5780636cb3e8ef14610059575b600080fd5b610043610077565b60405161005091906101c5565b60405180910390f35b610061610081565b60405161006e91906101a3565b60405180910390f35b6000600254905090565b6060600080548060200260200160405190810160405280929190818152602001828054801561010557602002820191906000526020600020905b8160009054906101000a900473ffffffffffffffffffffffffffffffffffffffff1673ffffffffffffffffffffffffffffffffffffffff16815260200190600101908083116100bb575b5050505050905090565b600061011b8383610127565b60208301905092915050565b61013081610219565b82525050565b6000610141826101f0565b61014b8185610208565b9350610156836101e0565b8060005b8381101561018757815161016e888261010f565b9750610179836101fb565b92505060018101905061015a565b5085935050505092915050565b61019d8161024b565b82525050565b600060208201905081810360008301526101bd8184610136565b905092915050565b60006020820190506101da6000830184610194565b92915050565b6000819050602082019050919050565b600081519050919050565b6000602082019050919050565b600082825260208201905092915050565b60006102248261022b565b9050919050565b600073ffffffffffffffffffffffffffffffffffffffff82169050919050565b600081905091905056fea2646970667358221220271280da824ef7a375d336b6b972e2adf8e918ce073bb8159cee74305347323364736f6c63430008040033",
  "immutableReferences": {},
  "source": "// SPDX-License-Identifier: MIT\npragma solidity 0.8.4;\n\ncontract Approvable {\n    \n    address[] internal _approvers;\n    mapping (address => bool) internal _approvership;\n    uint internal _minApprovals;\n\n    modifier onlyAnApprover {\n         require(_approvership[msg.sender], \"Not an approver!\");\n         _;\n    }\n    \n    constructor(address[] memory approvers, uint minApprovals) {\n        require(\n            minApprovals <= approvers.length,\n            \"Minimum approvals > approvers!\"\n        );\n        \n        for (uint i=0; i < approvers.length; i++) {\n            require(approvers[i] != address(0), \"Approver has 0 address!\");\n            require(\n                !_approvership[approvers[i]],\n                \"Duplicate approver address!\"\n            );\n            _approvers.push(approvers[i]);\n            _approvership[approvers[i]] = true;\n        }\n        _minApprovals = minApprovals;\n\n        assert(_approvers.length == approvers.length);\n    }\n\n    // Functions for Developer testing \n    function getApprovers() external view returns (address[] memory approvers){\n        return _approvers;\n    }\n    \n    function getMinApprovals() external view returns (uint){\n        return _minApprovals;\n    }\n}",
  "sourcePath": "/Users/Mark/Documents/BlockChain/IvanOnTechAcademy/Bootcamp/Upgradeable MultiSig Wallet/contracts/Approvable.sol",
  "compiler": {
    "name": "solc",
    "version": "0.8.4+commit.c7e474f2.Emscripten.clang"
  },
  "schemaVersion": "3.4.0",
  "updatedAt": "2021-06-01T15:37:05.283Z",
  "devdoc": {
    "kind": "dev",
    "methods": {},
    "version": 1
  },
  "userdoc": {
    "kind": "user",
    "methods": {},
    "version": 1
  }
}