{
  "contractName": "MultiOwnable",
  "abi": [
    {
      "inputs": [
        {
          "internalType": "address[]",
          "name": "owners",
          "type": "address[]"
        }
      ],
      "name": "initializeMultiOwnable",
      "outputs": [],
      "stateMutability": "nonpayable",
      "type": "function"
    },
    {
      "inputs": [],
      "name": "getOwners",
      "outputs": [
        {
          "internalType": "address[]",
          "name": "owners",
          "type": "address[]"
        }
      ],
      "stateMutability": "view",
      "type": "function"
    }
  ],
  "bytecode": "0x608060405234801561001057600080fd5b506109fb806100206000396000f3fe608060405234801561001057600080fd5b50600436106100365760003560e01c8063a0e67e2b1461003b578063b6af775514610059575b600080fd5b610043610075565b60405161005091906106cb565b60405180910390f35b610073600480360381019061006e919061059c565b610103565b005b606060018054806020026020016040519081016040528092919081815260200182805480156100f957602002820191906000526020600020905b8160009054906101000a900473ffffffffffffffffffffffffffffffffffffffff1673ffffffffffffffffffffffffffffffffffffffff16815260200190600101908083116100af575b5050505050905090565b600060019054906101000a900460ff1680610129575060008054906101000a900460ff16155b610168576040517f08c379a000000000000000000000000000000000000000000000000000000000815260040161015f9061072d565b60405180910390fd5b60008060019054906101000a900460ff1615905080156101b8576001600060016101000a81548160ff02191690831515021790555060016000806101000a81548160ff0219169083151502179055505b60005b825181101561048f57600073ffffffffffffffffffffffffffffffffffffffff16838281518110610215577f4e487b7100000000000000000000000000000000000000000000000000000000600052603260045260246000fd5b602002602001015173ffffffffffffffffffffffffffffffffffffffff161415610274576040517f08c379a000000000000000000000000000000000000000000000000000000000815260040161026b9061070d565b60405180910390fd5b600260008483815181106102b1577f4e487b7100000000000000000000000000000000000000000000000000000000600052603260045260246000fd5b602002602001015173ffffffffffffffffffffffffffffffffffffffff1673ffffffffffffffffffffffffffffffffffffffff16815260200190815260200160002060009054906101000a900460ff1615610341576040517f08c379a0000000000000000000000000000000000000000000000000000000008152600401610338906106ed565b60405180910390fd5b600183828151811061037c577f4e487b7100000000000000000000000000000000000000000000000000000000600052603260045260246000fd5b60200260200101519080600181540180825580915050600190039060005260206000200160009091909190916101000a81548173ffffffffffffffffffffffffffffffffffffffff021916908373ffffffffffffffffffffffffffffffffffffffff160217905550600160026000858481518110610423577f4e487b7100000000000000000000000000000000000000000000000000000000600052603260045260246000fd5b602002602001015173ffffffffffffffffffffffffffffffffffffffff1673ffffffffffffffffffffffffffffffffffffffff16815260200190815260200160002060006101000a81548160ff021916908315150217905550808061048790610855565b9150506101bb565b508151600180549050146104cc577f4e487b7100000000000000000000000000000000000000000000000000000000600052600160045260246000fd5b80156104ed5760008060016101000a81548160ff0219169083151502179055505b5050565b60006105046104ff84610772565b61074d565b9050808382526020820190508285602086028201111561052357600080fd5b60005b858110156105535781610539888261055d565b845260208401935060208301925050600181019050610526565b5050509392505050565b60008135905061056c816109ae565b92915050565b600082601f83011261058357600080fd5b81356105938482602086016104f1565b91505092915050565b6000602082840312156105ae57600080fd5b600082013567ffffffffffffffff8111156105c857600080fd5b6105d484828501610572565b91505092915050565b60006105e983836105f5565b60208301905092915050565b6105fe816107e8565b82525050565b600061060f826107ae565b61061981856107c6565b93506106248361079e565b8060005b8381101561065557815161063c88826105dd565b9750610647836107b9565b925050600181019050610628565b5085935050505092915050565b600061066f6018836107d7565b915061067a8261090d565b602082019050919050565b60006106926015836107d7565b915061069d82610936565b602082019050919050565b60006106b5602e836107d7565b91506106c08261095f565b604082019050919050565b600060208201905081810360008301526106e58184610604565b905092915050565b6000602082019050818103600083015261070681610662565b9050919050565b6000602082019050818103600083015261072681610685565b9050919050565b60006020820190508181036000830152610746816106a8565b9050919050565b6000610757610768565b90506107638282610824565b919050565b6000604051905090565b600067ffffffffffffffff82111561078d5761078c6108cd565b5b602082029050602081019050919050565b6000819050602082019050919050565b600081519050919050565b6000602082019050919050565b600082825260208201905092915050565b600082825260208201905092915050565b60006107f3826107fa565b9050919050565b600073ffffffffffffffffffffffffffffffffffffffff82169050919050565b6000819050919050565b61082d826108fc565b810181811067ffffffffffffffff8211171561084c5761084b6108cd565b5b80604052505050565b60006108608261081a565b91507fffffffffffffffffffffffffffffffffffffffffffffffffffffffffffffffff8214156108935761089261089e565b5b600182019050919050565b7f4e487b7100000000000000000000000000000000000000000000000000000000600052601160045260246000fd5b7f4e487b7100000000000000000000000000000000000000000000000000000000600052604160045260246000fd5b6000601f19601f8301169050919050565b7f4475706c6963617465206f776e65722061646472657373210000000000000000600082015250565b7f4f776e6572207769746820302061646472657373210000000000000000000000600082015250565b7f496e697469616c697a61626c653a20636f6e747261637420697320616c72656160008201527f647920696e697469616c697a6564000000000000000000000000000000000000602082015250565b6109b7816107e8565b81146109c257600080fd5b5056fea2646970667358221220debc37b97f2fde1799964c67c7a265b7d5ced3018bba640274b40efac5e675f264736f6c63430008040033",
  "immutableReferences": {},
  "source": "// SPDX-License-Identifier: MIT\npragma solidity 0.8.4;\n\nimport \"../node_modules/@openzeppelin/contracts/proxy/utils/Initializable.sol\";\n\ncontract MultiOwnable is Initializable {\n    \n    address[] internal _owners;\n    mapping (address => bool) internal _ownership;\n\n    modifier onlyAnOwner {\n        require(_ownership[msg.sender], \"Not an owner!\");\n        _;\n    }\n    \n    function initializeMultiOwnable(address[] memory owners)\n        public\n        virtual\n        initializer\n    {\n        for (uint i=0; i < owners.length; i++) {\n            require(owners[i] != address(0), \"Owner with 0 address!\");\n            require(!_ownership[owners[i]], \"Duplicate owner address!\");\n            _owners.push(owners[i]);\n            _ownership[owners[i]] = true;\n        }\n        assert(_owners.length == owners.length);\n    }\n    \n    // Functions for Developer testing \n    function getOwners() external view returns (address[] memory owners){\n        return _owners;\n    }\n      \n}",
  "sourcePath": "/Users/Mark/Documents/BlockChain/IvanOnTechAcademy/Bootcamp/Upgradeable MultiSig Wallet/contracts/MultiOwnable.sol",
  "compiler": {
    "name": "solc",
    "version": "0.8.4+commit.c7e474f2.Emscripten.clang"
  },
  "schemaVersion": "3.4.1",
  "updatedAt": "2021-06-15T20:30:53.733Z",
  "devdoc": {
    "kind": "dev",
    "methods": {},
    "version": 1
  },
  "userdoc": {
    "kind": "user",
    "methods": {},
    "version": 1
  }
}