{
  "contractName": "MultiSigWalletV2",
  "abi": [
    {
      "anonymous": false,
      "inputs": [
        {
          "indexed": false,
          "internalType": "uint256",
          "name": "amount",
          "type": "uint256"
        }
      ],
      "name": "DepositReceived",
      "type": "event"
    },
    {
      "anonymous": false,
      "inputs": [
        {
          "indexed": false,
          "internalType": "address",
          "name": "account",
          "type": "address"
        }
      ],
      "name": "Paused",
      "type": "event"
    },
    {
      "anonymous": false,
      "inputs": [
        {
          "indexed": false,
          "internalType": "address",
          "name": "to",
          "type": "address"
        },
        {
          "indexed": false,
          "internalType": "uint256",
          "name": "amount",
          "type": "uint256"
        }
      ],
      "name": "TransferSent",
      "type": "event"
    },
    {
      "anonymous": false,
      "inputs": [
        {
          "indexed": false,
          "internalType": "uint256",
          "name": "id",
          "type": "uint256"
        },
        {
          "indexed": false,
          "internalType": "uint256",
          "name": "approvals",
          "type": "uint256"
        },
        {
          "indexed": false,
          "internalType": "address",
          "name": "lastApprover",
          "type": "address"
        }
      ],
      "name": "TxApprovalGiven",
      "type": "event"
    },
    {
      "anonymous": false,
      "inputs": [
        {
          "indexed": false,
          "internalType": "uint256",
          "name": "id",
          "type": "uint256"
        },
        {
          "indexed": false,
          "internalType": "uint256",
          "name": "amount",
          "type": "uint256"
        },
        {
          "indexed": false,
          "internalType": "address",
          "name": "to",
          "type": "address"
        },
        {
          "indexed": false,
          "internalType": "address",
          "name": "requestor",
          "type": "address"
        },
        {
          "indexed": false,
          "internalType": "string",
          "name": "reason",
          "type": "string"
        }
      ],
      "name": "TxRequestCreated",
      "type": "event"
    },
    {
      "anonymous": false,
      "inputs": [
        {
          "indexed": false,
          "internalType": "address",
          "name": "account",
          "type": "address"
        }
      ],
      "name": "Unpaused",
      "type": "event"
    },
    {
      "inputs": [],
      "name": "getApprovers",
      "outputs": [
        {
          "internalType": "address[]",
          "name": "approvers",
          "type": "address[]"
        }
      ],
      "stateMutability": "view",
      "type": "function"
    },
    {
      "inputs": [],
      "name": "getMinApprovals",
      "outputs": [
        {
          "internalType": "uint256",
          "name": "",
          "type": "uint256"
        }
      ],
      "stateMutability": "view",
      "type": "function"
    },
    {
      "inputs": [],
      "name": "getOwners",
      "outputs": [
        {
          "internalType": "address[]",
          "name": "owners",
          "type": "address[]"
        }
      ],
      "stateMutability": "view",
      "type": "function"
    },
    {
      "inputs": [
        {
          "internalType": "address[]",
          "name": "approvers",
          "type": "address[]"
        },
        {
          "internalType": "uint256",
          "name": "minApprovals",
          "type": "uint256"
        }
      ],
      "name": "initializeApprovable",
      "outputs": [],
      "stateMutability": "nonpayable",
      "type": "function"
    },
    {
      "inputs": [
        {
          "internalType": "address[]",
          "name": "owners",
          "type": "address[]"
        }
      ],
      "name": "initializeMultiOwnable",
      "outputs": [],
      "stateMutability": "nonpayable",
      "type": "function"
    },
    {
      "inputs": [],
      "name": "paused",
      "outputs": [
        {
          "internalType": "bool",
          "name": "",
          "type": "bool"
        }
      ],
      "stateMutability": "view",
      "type": "function"
    },
    {
      "inputs": [
        {
          "internalType": "address[]",
          "name": "owners",
          "type": "address[]"
        },
        {
          "internalType": "uint256",
          "name": "minTxApprovals",
          "type": "uint256"
        }
      ],
      "name": "initialize",
      "outputs": [],
      "stateMutability": "nonpayable",
      "type": "function"
    },
    {
      "inputs": [],
      "name": "deposit",
      "outputs": [],
      "stateMutability": "payable",
      "type": "function"
    },
    {
      "inputs": [
        {
          "internalType": "address",
          "name": "toAddress",
          "type": "address"
        },
        {
          "internalType": "string",
          "name": "reason",
          "type": "string"
        },
        {
          "internalType": "uint256",
          "name": "amountWei",
          "type": "uint256"
        }
      ],
      "name": "createTransferRequest",
      "outputs": [
        {
          "internalType": "uint256",
          "name": "txId",
          "type": "uint256"
        }
      ],
      "stateMutability": "nonpayable",
      "type": "function"
    },
    {
      "inputs": [
        {
          "internalType": "uint256",
          "name": "requestId",
          "type": "uint256"
        }
      ],
      "name": "approveTransferRequest",
      "outputs": [],
      "stateMutability": "nonpayable",
      "type": "function"
    },
    {
      "inputs": [
        {
          "internalType": "uint256",
          "name": "requestId",
          "type": "uint256"
        }
      ],
      "name": "cancelTransferRequest",
      "outputs": [],
      "stateMutability": "nonpayable",
      "type": "function"
    },
    {
      "inputs": [
        {
          "internalType": "uint256",
          "name": "id",
          "type": "uint256"
        }
      ],
      "name": "getTransferRequest",
      "outputs": [
        {
          "components": [
            {
              "internalType": "address",
              "name": "requestor",
              "type": "address"
            },
            {
              "internalType": "address",
              "name": "recipient",
              "type": "address"
            },
            {
              "internalType": "string",
              "name": "reason",
              "type": "string"
            },
            {
              "internalType": "uint256",
              "name": "amount",
              "type": "uint256"
            },
            {
              "internalType": "uint256",
              "name": "approvals",
              "type": "uint256"
            },
            {
              "internalType": "uint256",
              "name": "id",
              "type": "uint256"
            }
          ],
          "internalType": "struct MultiSigWalletV2.TxRequest",
          "name": "transferRequest",
          "type": "tuple"
        }
      ],
      "stateMutability": "view",
      "type": "function"
    },
    {
      "inputs": [],
      "name": "getWalletBalance",
      "outputs": [
        {
          "internalType": "uint256",
          "name": "balance",
          "type": "uint256"
        }
      ],
      "stateMutability": "view",
      "type": "function"
    },
    {
      "inputs": [],
      "name": "getWalletCreator",
      "outputs": [
        {
          "internalType": "address",
          "name": "",
          "type": "address"
        }
      ],
      "stateMutability": "view",
      "type": "function"
    },
    {
      "inputs": [],
      "name": "totalTransferRequests",
      "outputs": [
        {
          "internalType": "uint256",
          "name": "",
          "type": "uint256"
        }
      ],
      "stateMutability": "view",
      "type": "function"
    },
    {
      "inputs": [
        {
          "internalType": "uint256",
          "name": "number",
          "type": "uint256"
        }
      ],
      "name": "setWalletVersion",
      "outputs": [],
      "stateMutability": "nonpayable",
      "type": "function"
    },
    {
      "inputs": [],
      "name": "getWalletVersion",
      "outputs": [
        {
          "internalType": "uint256",
          "name": "",
          "type": "uint256"
        }
      ],
      "stateMutability": "view",
      "type": "function"
    },
    {
      "inputs": [],
      "name": "pause",
      "outputs": [],
      "stateMutability": "nonpayable",
      "type": "function"
    },
    {
      "inputs": [],
      "name": "unpause",
      "outputs": [],
      "stateMutability": "nonpayable",
      "type": "function"
    }
  ],
  "bytecode": "0x608060405234801561001057600080fd5b50613598806100206000396000f3fe6080604052600436106101145760003560e01c80636cb3e8ef116100a0578063a0e67e2b11610064578063a0e67e2b14610355578063b6af775514610380578063c8ce6f3a146103a9578063d0e30db0146103e6578063dec3eea5146103f057610114565b80636cb3e8ef146102825780637f257075146102ad57806382c96dcd146102d65780638456cb591461030157806399807e4c1461031857610114565b80634db7ce09116100e75780634db7ce09146101b15780635c975abb146101da5780635f89aacb1461020557806360b5bb3f1461022e57806365386f291461025757610114565b8063192e6de514610119578063329a27e7146101445780633f4ba83a1461016f5780634d3e249014610186575b600080fd5b34801561012557600080fd5b5061012e610419565b60405161013b9190612e9b565b60405180910390f35b34801561015057600080fd5b50610159610423565b6040516101669190612e9b565b60405180910390f35b34801561017b57600080fd5b50610184610473565b005b34801561019257600080fd5b5061019b610550565b6040516101a89190612e9b565b60405180910390f35b3480156101bd57600080fd5b506101d860048036038101906101d391906126c6565b61055a565b005b3480156101e657600080fd5b506101ef610994565b6040516101fc9190612bfe565b60405180910390f35b34801561021157600080fd5b5061022c6004803603810190610227919061271a565b6109ab565b005b34801561023a57600080fd5b50610255600480360381019061025091906126c6565b610b2b565b005b34801561026357600080fd5b5061026c610c62565b6040516102799190612e9b565b60405180910390f35b34801561028e57600080fd5b50610297610c6f565b6040516102a49190612bdc565b60405180910390f35b3480156102b957600080fd5b506102d460048036038101906102cf919061271a565b610cfd565b005b3480156102e257600080fd5b506102eb610d93565b6040516102f89190612b98565b60405180910390f35b34801561030d57600080fd5b50610316610dbd565b005b34801561032457600080fd5b5061033f600480360381019061033a919061271a565b610e9b565b60405161034c9190612e79565b60405180910390f35b34801561036157600080fd5b5061036a611059565b6040516103779190612bdc565b60405180910390f35b34801561038c57600080fd5b506103a760048036038101906103a29190612685565b6110e7565b005b3480156103b557600080fd5b506103d060048036038101906103cb919061261e565b6114d5565b6040516103dd9190612e9b565b60405180910390f35b6103ee611897565b005b3480156103fc57600080fd5b506104176004803603810190610412919061271a565b611913565b005b6000606e54905090565b600061042d610994565b1561046d576040517f08c379a000000000000000000000000000000000000000000000000000000000815260040161046490612cb9565b60405180910390fd5b47905090565b600260003373ffffffffffffffffffffffffffffffffffffffff1673ffffffffffffffffffffffffffffffffffffffff16815260200190815260200160002060009054906101000a900460ff166104ff576040517f08c379a00000000000000000000000000000000000000000000000000000000081526004016104f690612d99565b60405180910390fd5b610507610994565b610546576040517f08c379a000000000000000000000000000000000000000000000000000000000815260040161053d90612c19565b60405180910390fd5b61054e611d58565b565b6000600554905090565b600060019054906101000a900460ff1680610580575060008054906101000a900460ff16155b6105bf576040517f08c379a00000000000000000000000000000000000000000000000000000000081526004016105b690612cf9565b60405180910390fd5b60008060019054906101000a900460ff16159050801561060f576001600060016101000a81548160ff02191690831515021790555060016000806101000a81548160ff0219169083151502179055505b8251821115610653576040517f08c379a000000000000000000000000000000000000000000000000000000000815260040161064a90612d39565b60405180910390fd5b60005b835181101561092a57600073ffffffffffffffffffffffffffffffffffffffff168482815181106106b0577f4e487b7100000000000000000000000000000000000000000000000000000000600052603260045260246000fd5b602002602001015173ffffffffffffffffffffffffffffffffffffffff16141561070f576040517f08c379a000000000000000000000000000000000000000000000000000000000815260040161070690612d59565b60405180910390fd5b6004600085838151811061074c577f4e487b7100000000000000000000000000000000000000000000000000000000600052603260045260246000fd5b602002602001015173ffffffffffffffffffffffffffffffffffffffff1673ffffffffffffffffffffffffffffffffffffffff16815260200190815260200160002060009054906101000a900460ff16156107dc576040517f08c379a00000000000000000000000000000000000000000000000000000000081526004016107d390612dd9565b60405180910390fd5b6003848281518110610817577f4e487b7100000000000000000000000000000000000000000000000000000000600052603260045260246000fd5b60200260200101519080600181540180825580915050600190039060005260206000200160009091909190916101000a81548173ffffffffffffffffffffffffffffffffffffffff021916908373ffffffffffffffffffffffffffffffffffffffff1602179055506001600460008684815181106108be577f4e487b7100000000000000000000000000000000000000000000000000000000600052603260045260246000fd5b602002602001015173ffffffffffffffffffffffffffffffffffffffff1673ffffffffffffffffffffffffffffffffffffffff16815260200190815260200160002060006101000a81548160ff02191690831515021790555080806109229061311c565b915050610656565b508160058190555082516003805490501461096e577f4e487b7100000000000000000000000000000000000000000000000000000000600052600160045260246000fd5b801561098f5760008060016101000a81548160ff0219169083151502179055505b505050565b6000603860009054906101000a900460ff16905090565b600260003373ffffffffffffffffffffffffffffffffffffffff1673ffffffffffffffffffffffffffffffffffffffff16815260200190815260200160002060009054906101000a900460ff16610a37576040517f08c379a0000000000000000000000000000000000000000000000000000000008152600401610a2e90612d99565b60405180910390fd5b606b805490508110610a7e576040517f08c379a0000000000000000000000000000000000000000000000000000000008152600401610a7590612db9565b60405180910390fd5b3373ffffffffffffffffffffffffffffffffffffffff16606c600083815260200190815260200160002060009054906101000a900473ffffffffffffffffffffffffffffffffffffffff1673ffffffffffffffffffffffffffffffffffffffff1614610b1f576040517f08c379a0000000000000000000000000000000000000000000000000000000008152600401610b1690612c99565b60405180910390fd5b610b2881611dfa565b50565b600060019054906101000a900460ff1680610b51575060008054906101000a900460ff16155b610b90576040517f08c379a0000000000000000000000000000000000000000000000000000000008152600401610b8790612cf9565b60405180910390fd5b60008060019054906101000a900460ff161590508015610be0576001600060016101000a81548160ff02191690831515021790555060016000806101000a81548160ff0219169083151502179055505b610be9836110e7565b610bf3838361055a565b610bfb611ef4565b33606a60006101000a81548173ffffffffffffffffffffffffffffffffffffffff021916908373ffffffffffffffffffffffffffffffffffffffff1602179055508015610c5d5760008060016101000a81548160ff0219169083151502179055505b505050565b6000606b80549050905090565b60606003805480602002602001604051908101604052809291908181526020018280548015610cf357602002820191906000526020600020905b8160009054906101000a900473ffffffffffffffffffffffffffffffffffffffff1673ffffffffffffffffffffffffffffffffffffffff1681526020019060010190808311610ca9575b5050505050905090565b600260003373ffffffffffffffffffffffffffffffffffffffff1673ffffffffffffffffffffffffffffffffffffffff16815260200190815260200160002060009054906101000a900460ff16610d89576040517f08c379a0000000000000000000000000000000000000000000000000000000008152600401610d8090612d99565b60405180910390fd5b80606e8190555050565b6000606a60009054906101000a900473ffffffffffffffffffffffffffffffffffffffff16905090565b600260003373ffffffffffffffffffffffffffffffffffffffff1673ffffffffffffffffffffffffffffffffffffffff16815260200190815260200160002060009054906101000a900460ff16610e49576040517f08c379a0000000000000000000000000000000000000000000000000000000008152600401610e4090612d99565b60405180910390fd5b610e51610994565b15610e91576040517f08c379a0000000000000000000000000000000000000000000000000000000008152600401610e8890612cb9565b60405180910390fd5b610e99611fdd565b565b610ea36123b1565b606b8281548110610edd577f4e487b7100000000000000000000000000000000000000000000000000000000600052603260045260246000fd5b90600052602060002090600602016040518060c00160405290816000820160009054906101000a900473ffffffffffffffffffffffffffffffffffffffff1673ffffffffffffffffffffffffffffffffffffffff1673ffffffffffffffffffffffffffffffffffffffff1681526020016001820160009054906101000a900473ffffffffffffffffffffffffffffffffffffffff1673ffffffffffffffffffffffffffffffffffffffff1673ffffffffffffffffffffffffffffffffffffffff168152602001600282018054610fb2906130b9565b80601f0160208091040260200160405190810160405280929190818152602001828054610fde906130b9565b801561102b5780601f106110005761010080835404028352916020019161102b565b820191906000526020600020905b81548152906001019060200180831161100e57829003601f168201915b5050505050815260200160038201548152602001600482015481526020016005820154815250509050919050565b606060018054806020026020016040519081016040528092919081815260200182805480156110dd57602002820191906000526020600020905b8160009054906101000a900473ffffffffffffffffffffffffffffffffffffffff1673ffffffffffffffffffffffffffffffffffffffff1681526020019060010190808311611093575b5050505050905090565b600060019054906101000a900460ff168061110d575060008054906101000a900460ff16155b61114c576040517f08c379a000000000000000000000000000000000000000000000000000000000815260040161114390612cf9565b60405180910390fd5b60008060019054906101000a900460ff16159050801561119c576001600060016101000a81548160ff02191690831515021790555060016000806101000a81548160ff0219169083151502179055505b60005b825181101561147357600073ffffffffffffffffffffffffffffffffffffffff168382815181106111f9577f4e487b7100000000000000000000000000000000000000000000000000000000600052603260045260246000fd5b602002602001015173ffffffffffffffffffffffffffffffffffffffff161415611258576040517f08c379a000000000000000000000000000000000000000000000000000000000815260040161124f90612c59565b60405180910390fd5b60026000848381518110611295577f4e487b7100000000000000000000000000000000000000000000000000000000600052603260045260246000fd5b602002602001015173ffffffffffffffffffffffffffffffffffffffff1673ffffffffffffffffffffffffffffffffffffffff16815260200190815260200160002060009054906101000a900460ff1615611325576040517f08c379a000000000000000000000000000000000000000000000000000000000815260040161131c90612c39565b60405180910390fd5b6001838281518110611360577f4e487b7100000000000000000000000000000000000000000000000000000000600052603260045260246000fd5b60200260200101519080600181540180825580915050600190039060005260206000200160009091909190916101000a81548173ffffffffffffffffffffffffffffffffffffffff021916908373ffffffffffffffffffffffffffffffffffffffff160217905550600160026000858481518110611407577f4e487b7100000000000000000000000000000000000000000000000000000000600052603260045260246000fd5b602002602001015173ffffffffffffffffffffffffffffffffffffffff1673ffffffffffffffffffffffffffffffffffffffff16815260200190815260200160002060006101000a81548160ff021916908315150217905550808061146b9061311c565b91505061119f565b508151600180549050146114b0577f4e487b7100000000000000000000000000000000000000000000000000000000600052600160045260246000fd5b80156114d15760008060016101000a81548160ff0219169083151502179055505b5050565b6000600260003373ffffffffffffffffffffffffffffffffffffffff1673ffffffffffffffffffffffffffffffffffffffff16815260200190815260200160002060009054906101000a900460ff16611563576040517f08c379a000000000000000000000000000000000000000000000000000000000815260040161155a90612d99565b60405180910390fd5b600073ffffffffffffffffffffffffffffffffffffffff168473ffffffffffffffffffffffffffffffffffffffff1614156115d3576040517f08c379a00000000000000000000000000000000000000000000000000000000081526004016115ca90612d19565b60405180910390fd5b3073ffffffffffffffffffffffffffffffffffffffff168473ffffffffffffffffffffffffffffffffffffffff161415611642576040517f08c379a000000000000000000000000000000000000000000000000000000000815260040161163990612c79565b60405180910390fd5b60008211611685576040517f08c379a000000000000000000000000000000000000000000000000000000000815260040161167c90612cd9565b60405180910390fd5b60006040518060c001604052803373ffffffffffffffffffffffffffffffffffffffff1681526020018673ffffffffffffffffffffffffffffffffffffffff16815260200185815260200184815260200160008152602001606b805490508152509050606b81908060018154018082558091505060019003906000526020600020906006020160009091909190915060008201518160000160006101000a81548173ffffffffffffffffffffffffffffffffffffffff021916908373ffffffffffffffffffffffffffffffffffffffff16021790555060208201518160010160006101000a81548173ffffffffffffffffffffffffffffffffffffffff021916908373ffffffffffffffffffffffffffffffffffffffff16021790555060408201518160020190805190602001906117be929190612413565b50606082015181600301556080820151816004015560a08201518160050155505033606c60008360a00151815260200190815260200160002060006101000a81548173ffffffffffffffffffffffffffffffffffffffff021916908373ffffffffffffffffffffffffffffffffffffffff1602179055507fd9a745595b77ae886da062b1e73fe73dc45372f44854c688cb90a1d0278dc35a8160a001518260600151836020015184600001518560400151604051611880959493929190612eed565b60405180910390a18060a001519150509392505050565b600034116118da576040517f08c379a00000000000000000000000000000000000000000000000000000000081526004016118d190612e39565b60405180910390fd5b7fa1ab46d0e38f33a7b1f03853088a305927deb55c906370ff5d6d2bc732f15095346040516119099190612e9b565b60405180910390a1565b600460003373ffffffffffffffffffffffffffffffffffffffff1673ffffffffffffffffffffffffffffffffffffffff16815260200190815260200160002060009054906101000a900460ff1661199f576040517f08c379a000000000000000000000000000000000000000000000000000000000815260040161199690612e59565b60405180910390fd5b606b8054905081106119e6576040517f08c379a00000000000000000000000000000000000000000000000000000000081526004016119dd90612db9565b60405180910390fd5b6000606b8281548110611a22577f4e487b7100000000000000000000000000000000000000000000000000000000600052603260045260246000fd5b90600052602060002090600602016003015411611a74576040517f08c379a0000000000000000000000000000000000000000000000000000000008152600401611a6b90612e19565b60405180910390fd5b60011515606d60003373ffffffffffffffffffffffffffffffffffffffff1673ffffffffffffffffffffffffffffffffffffffff168152602001908152602001600020600083815260200190815260200160002060009054906101000a900460ff1615151415611b19576040517f08c379a0000000000000000000000000000000000000000000000000000000008152600401611b1090612df9565b60405180910390fd5b606b8181548110611b53577f4e487b7100000000000000000000000000000000000000000000000000000000600052603260045260246000fd5b906000526020600020906006020160030154471015611ba7576040517f08c379a0000000000000000000000000000000000000000000000000000000008152600401611b9e90612d79565b60405180910390fd5b6001606d60003373ffffffffffffffffffffffffffffffffffffffff1673ffffffffffffffffffffffffffffffffffffffff168152602001908152602001600020600083815260200190815260200160002060006101000a81548160ff021916908315150217905550606b8181548110611c4a577f4e487b7100000000000000000000000000000000000000000000000000000000600052603260045260246000fd5b90600052602060002090600602016004016000815480929190611c6c9061311c565b91905055507f785e7b1da6f3e7ca30112843e74578b1bd80f14fd4de36b7007dcd5a8b48df4c81606b8381548110611ccd577f4e487b7100000000000000000000000000000000000000000000000000000000600052603260045260246000fd5b90600052602060002090600602016004015433604051611cef93929190612eb6565b60405180910390a1600554606b8281548110611d34577f4e487b7100000000000000000000000000000000000000000000000000000000600052603260045260246000fd5b90600052602060002090600602016004015410611d5557611d5481612080565b5b50565b611d60610994565b611d9f576040517f08c379a0000000000000000000000000000000000000000000000000000000008152600401611d9690612c19565b60405180910390fd5b6000603860006101000a81548160ff0219169083151502179055507f5db9ee0a495bf2e6ff9c91a7834c1ba4fdd244a5e8aa4e537bd38aeae4b073aa611de3612191565b604051611df09190612b98565b60405180910390a1565b606b8181548110611e34577f4e487b7100000000000000000000000000000000000000000000000000000000600052603260045260246000fd5b9060005260206000209060060201600080820160006101000a81549073ffffffffffffffffffffffffffffffffffffffff02191690556001820160006101000a81549073ffffffffffffffffffffffffffffffffffffffff0219169055600282016000611ea19190612499565b6003820160009055600482016000905560058201600090555050606c600082815260200190815260200160002060006101000a81549073ffffffffffffffffffffffffffffffffffffffff021916905550565b600060019054906101000a900460ff1680611f1a575060008054906101000a900460ff16155b611f59576040517f08c379a0000000000000000000000000000000000000000000000000000000008152600401611f5090612cf9565b60405180910390fd5b60008060019054906101000a900460ff161590508015611fa9576001600060016101000a81548160ff02191690831515021790555060016000806101000a81548160ff0219169083151502179055505b611fb1612199565b611fb9612272565b8015611fda5760008060016101000a81548160ff0219169083151502179055505b50565b611fe5610994565b15612025576040517f08c379a000000000000000000000000000000000000000000000000000000000815260040161201c90612cb9565b60405180910390fd5b6001603860006101000a81548160ff0219169083151502179055507f62e78cea01bee320cd4e420270b5ea74000d11b0c9f74754ebdbfc544b05a258612069612191565b6040516120769190612b98565b60405180910390a1565b6000606b82815481106120bc577f4e487b7100000000000000000000000000000000000000000000000000000000600052603260045260246000fd5b906000526020600020906006020160010160009054906101000a900473ffffffffffffffffffffffffffffffffffffffff1690506000606b838154811061212c577f4e487b7100000000000000000000000000000000000000000000000000000000600052603260045260246000fd5b906000526020600020906006020160030154905061214983611dfa565b6121538282612366565b7f8aa89c45e00b1dc8befa3736e4d341042a1cd0021a629920526985a6028f75258282604051612184929190612bb3565b60405180910390a1505050565b600033905090565b600060019054906101000a900460ff16806121bf575060008054906101000a900460ff16155b6121fe576040517f08c379a00000000000000000000000000000000000000000000000000000000081526004016121f590612cf9565b60405180910390fd5b60008060019054906101000a900460ff16159050801561224e576001600060016101000a81548160ff02191690831515021790555060016000806101000a81548160ff0219169083151502179055505b801561226f5760008060016101000a81548160ff0219169083151502179055505b50565b600060019054906101000a900460ff1680612298575060008054906101000a900460ff16155b6122d7576040517f08c379a00000000000000000000000000000000000000000000000000000000081526004016122ce90612cf9565b60405180910390fd5b60008060019054906101000a900460ff161590508015612327576001600060016101000a81548160ff02191690831515021790555060016000806101000a81548160ff0219169083151502179055505b6000603860006101000a81548160ff02191690831515021790555080156123635760008060016101000a81548160ff0219169083151502179055505b50565b8173ffffffffffffffffffffffffffffffffffffffff166108fc829081150290604051600060405180830381858888f193505050501580156123ac573d6000803e3d6000fd5b505050565b6040518060c00160405280600073ffffffffffffffffffffffffffffffffffffffff168152602001600073ffffffffffffffffffffffffffffffffffffffff168152602001606081526020016000815260200160008152602001600081525090565b82805461241f906130b9565b90600052602060002090601f0160209004810192826124415760008555612488565b82601f1061245a57805160ff1916838001178555612488565b82800160010185558215612488579182015b8281111561248757825182559160200191906001019061246c565b5b50905061249591906124d9565b5090565b5080546124a5906130b9565b6000825580601f106124b757506124d6565b601f0160209004906000526020600020908101906124d591906124d9565b5b50565b5b808211156124f25760008160009055506001016124da565b5090565b600061250961250484612f6c565b612f47565b9050808382526020820190508285602086028201111561252857600080fd5b60005b85811015612558578161253e88826125a0565b84526020840193506020830192505060018101905061252b565b5050509392505050565b600061257561257084612f98565b612f47565b90508281526020810184848401111561258d57600080fd5b612598848285613077565b509392505050565b6000813590506125af81613534565b92915050565b600082601f8301126125c657600080fd5b81356125d68482602086016124f6565b91505092915050565b600082601f8301126125f057600080fd5b8135612600848260208601612562565b91505092915050565b6000813590506126188161354b565b92915050565b60008060006060848603121561263357600080fd5b6000612641868287016125a0565b935050602084013567ffffffffffffffff81111561265e57600080fd5b61266a868287016125df565b925050604061267b86828701612609565b9150509250925092565b60006020828403121561269757600080fd5b600082013567ffffffffffffffff8111156126b157600080fd5b6126bd848285016125b5565b91505092915050565b600080604083850312156126d957600080fd5b600083013567ffffffffffffffff8111156126f357600080fd5b6126ff858286016125b5565b925050602061271085828601612609565b9150509250929050565b60006020828403121561272c57600080fd5b600061273a84828501612609565b91505092915050565b600061274f838361275b565b60208301905092915050565b6127648161302f565b82525050565b6127738161302f565b82525050565b600061278482612fd9565b61278e8185612ffc565b935061279983612fc9565b8060005b838110156127ca5781516127b18882612743565b97506127bc83612fef565b92505060018101905061279d565b5085935050505092915050565b6127e081613041565b82525050565b60006127f182612fe4565b6127fb818561300d565b935061280b818560208601613086565b612814816131f2565b840191505092915050565b600061282a82612fe4565b612834818561301e565b9350612844818560208601613086565b61284d816131f2565b840191505092915050565b600061286560148361301e565b915061287082613203565b602082019050919050565b600061288860188361301e565b91506128938261322c565b602082019050919050565b60006128ab60158361301e565b91506128b682613255565b602082019050919050565b60006128ce60198361301e565b91506128d98261327e565b602082019050919050565b60006128f160158361301e565b91506128fc826132a7565b602082019050919050565b600061291460108361301e565b915061291f826132d0565b602082019050919050565b600061293760158361301e565b9150612942826132f9565b602082019050919050565b600061295a602e8361301e565b915061296582613322565b604082019050919050565b600061297d60178361301e565b915061298882613371565b602082019050919050565b60006129a0601e8361301e565b91506129ab8261339a565b602082019050919050565b60006129c360178361301e565b91506129ce826133c3565b602082019050919050565b60006129e6601f8361301e565b91506129f1826133ec565b602082019050919050565b6000612a09600d8361301e565b9150612a1482613415565b602082019050919050565b6000612a2c60138361301e565b9150612a378261343e565b602082019050919050565b6000612a4f601b8361301e565b9150612a5a82613467565b602082019050919050565b6000612a7260178361301e565b9150612a7d82613490565b602082019050919050565b6000612a9560178361301e565b9150612aa0826134b9565b602082019050919050565b6000612ab860198361301e565b9150612ac3826134e2565b602082019050919050565b6000612adb60108361301e565b9150612ae68261350b565b602082019050919050565b600060c083016000830151612b09600086018261275b565b506020830151612b1c602086018261275b565b5060408301518482036040860152612b3482826127e6565b9150506060830151612b496060860182612b7a565b506080830151612b5c6080860182612b7a565b5060a0830151612b6f60a0860182612b7a565b508091505092915050565b612b838161306d565b82525050565b612b928161306d565b82525050565b6000602082019050612bad600083018461276a565b92915050565b6000604082019050612bc8600083018561276a565b612bd56020830184612b89565b9392505050565b60006020820190508181036000830152612bf68184612779565b905092915050565b6000602082019050612c1360008301846127d7565b92915050565b60006020820190508181036000830152612c3281612858565b9050919050565b60006020820190508181036000830152612c528161287b565b9050919050565b60006020820190508181036000830152612c728161289e565b9050919050565b60006020820190508181036000830152612c92816128c1565b9050919050565b60006020820190508181036000830152612cb2816128e4565b9050919050565b60006020820190508181036000830152612cd281612907565b9050919050565b60006020820190508181036000830152612cf28161292a565b9050919050565b60006020820190508181036000830152612d128161294d565b9050919050565b60006020820190508181036000830152612d3281612970565b9050919050565b60006020820190508181036000830152612d5281612993565b9050919050565b60006020820190508181036000830152612d72816129b6565b9050919050565b60006020820190508181036000830152612d92816129d9565b9050919050565b60006020820190508181036000830152612db2816129fc565b9050919050565b60006020820190508181036000830152612dd281612a1f565b9050919050565b60006020820190508181036000830152612df281612a42565b9050919050565b60006020820190508181036000830152612e1281612a65565b9050919050565b60006020820190508181036000830152612e3281612a88565b9050919050565b60006020820190508181036000830152612e5281612aab565b9050919050565b60006020820190508181036000830152612e7281612ace565b9050919050565b60006020820190508181036000830152612e938184612af1565b905092915050565b6000602082019050612eb06000830184612b89565b92915050565b6000606082019050612ecb6000830186612b89565b612ed86020830185612b89565b612ee5604083018461276a565b949350505050565b600060a082019050612f026000830188612b89565b612f0f6020830187612b89565b612f1c604083018661276a565b612f29606083018561276a565b8181036080830152612f3b818461281f565b90509695505050505050565b6000612f51612f62565b9050612f5d82826130eb565b919050565b6000604051905090565b600067ffffffffffffffff821115612f8757612f866131c3565b5b602082029050602081019050919050565b600067ffffffffffffffff821115612fb357612fb26131c3565b5b612fbc826131f2565b9050602081019050919050565b6000819050602082019050919050565b600081519050919050565b600081519050919050565b6000602082019050919050565b600082825260208201905092915050565b600082825260208201905092915050565b600082825260208201905092915050565b600061303a8261304d565b9050919050565b60008115159050919050565b600073ffffffffffffffffffffffffffffffffffffffff82169050919050565b6000819050919050565b82818337600083830152505050565b60005b838110156130a4578082015181840152602081019050613089565b838111156130b3576000848401525b50505050565b600060028204905060018216806130d157607f821691505b602082108114156130e5576130e4613194565b5b50919050565b6130f4826131f2565b810181811067ffffffffffffffff82111715613113576131126131c3565b5b80604052505050565b60006131278261306d565b91507fffffffffffffffffffffffffffffffffffffffffffffffffffffffffffffffff82141561315a57613159613165565b5b600182019050919050565b7f4e487b7100000000000000000000000000000000000000000000000000000000600052601160045260246000fd5b7f4e487b7100000000000000000000000000000000000000000000000000000000600052602260045260246000fd5b7f4e487b7100000000000000000000000000000000000000000000000000000000600052604160045260246000fd5b6000601f19601f8301169050919050565b7f5061757361626c653a206e6f7420706175736564000000000000000000000000600082015250565b7f4475706c6963617465206f776e65722061646472657373210000000000000000600082015250565b7f4f776e6572207769746820302061646472657373210000000000000000000000600082015250565b7f526563697065696e7420697320746869732077616c6c65742100000000000000600082015250565b7f4e6f74207472616e736665722063726561746f72210000000000000000000000600082015250565b7f5061757361626c653a2070617573656400000000000000000000000000000000600082015250565b7f5472616e7366657220616d6f756e742069732030210000000000000000000000600082015250565b7f496e697469616c697a61626c653a20636f6e747261637420697320616c72656160008201527f647920696e697469616c697a6564000000000000000000000000000000000000602082015250565b7f526563697069656e742069732061646472657373203021000000000000000000600082015250565b7f4d696e696d756d20617070726f76616c73203e20617070726f76657273210000600082015250565b7f417070726f766572206861732030206164647265737321000000000000000000600082015250565b7f496e73756666696369656e742066756e647320666f72207061796d656e742100600082015250565b7f4e6f7420616e206f776e65722100000000000000000000000000000000000000600082015250565b7f4e6f207375636820726571756573742069642100000000000000000000000000600082015250565b7f4475706c696361746520617070726f7665722061646472657373210000000000600082015250565b7f416c726561647920676976656e20617070726f76616c21000000000000000000600082015250565b7f4e6f207472616e7366657220746f20617070726f766521000000000000000000600082015250565b7f4e6f2066756e64732073656e7420746f206465706f7369742100000000000000600082015250565b7f4e6f7420616e20617070726f7665722100000000000000000000000000000000600082015250565b61353d8161302f565b811461354857600080fd5b50565b6135548161306d565b811461355f57600080fd5b5056fea2646970667358221220500e96352c58cbf98ee0511290cbb32f27bd5bffc4cfe7c3c144da268f3ad39664736f6c63430008040033",
  "immutableReferences": {},
  "source": "// SPDX-License-Identifier: MIT\npragma solidity 0.8.4;\n\nimport \"../node_modules/@openzeppelin/contracts-upgradeable/proxy/utils/Initializable.sol\";\nimport \"../node_modules/@openzeppelin/contracts-upgradeable/security/PausableUpgradeable.sol\";\n\nimport \"./MultiOwnable.sol\";\nimport \"./Approvable.sol\";\n\ncontract MultiSigWalletV2 is MultiOwnable, Approvable, PausableUpgradeable {\n\n    // STATE VARIABLES\n    address internal _walletCreator;\n\n    struct TxRequest {\n        address requestor;\n        address recipient;\n        string reason;\n        uint amount;\n        uint approvals;\n        uint id;    // request id\n    }\n    \n    TxRequest[] internal _txRequests;  // array's index == request id\n    mapping (uint => address) internal _txRequestors;\n    mapping (address => mapping (uint => bool)) internal _txApprovals;\n        // approver => (requestId => approval?)\n    \n    uint _version;    //ADDED new state variable\n\n    event DepositReceived(uint amount); \n    event TxRequestCreated(\n        uint id,\n        uint amount,\n        address to,\n        address requestor,\n        string reason\n    );\n    event TxApprovalGiven(uint id, uint approvals, address lastApprover);\n    event TransferSent(address to, uint amount); \n\n    // FUNCTIONS\n    // Public & External functions\n    \n    function initialize(address[] memory owners, uint minTxApprovals)\n        public\n        virtual\n        // override\n        initializer\n    {\n        // MultiOwnable.initialize(owners);\n        // Approvable.initialize(owners, minTxApprovals);\n        MultiOwnable.initializeMultiOwnable(owners);\n        Approvable.initializeApprovable(owners, minTxApprovals);\n        PausableUpgradeable.__Pausable_init();\n\n        _walletCreator = msg.sender;\n        // _version = 13;  // Not executed as initializer only runs once i.e. upon INITIAL contract deploy\n    }\n    \n\n    function deposit() external payable {\n        require (msg.value > 0, \"No funds sent to deposit!\");\n        emit DepositReceived(msg.value);\n    }\n    \n        \n    function createTransferRequest(\n        address toAddress,\n        string memory reason,\n        uint amountWei\n    )\n        public\n        onlyAnOwner\n        returns (uint txId)\n    {\n        require(toAddress != address(0), \"Recipient is address 0!\");\n        require(toAddress != address(this), \"Recipeint is this wallet!\");\n        require(amountWei > 0, \"Transfer amount is 0!\");\n        \n        TxRequest memory newRequest =\n            TxRequest(\n                msg.sender,\n                toAddress,\n                reason,\n                amountWei,\n                0,\n                _txRequests.length\n            );\n\n        _txRequests.push(newRequest);\n        _txRequestors[newRequest.id] = msg.sender;\n        \n        emit TxRequestCreated(\n            newRequest.id,\n            newRequest.amount,\n            newRequest.recipient,\n            newRequest.requestor,\n            newRequest.reason);\n\n        return newRequest.id;\n    }\n    \n\n    function approveTransferRequest(uint requestId)\n        public\n        onlyAnApprover\n    {\n        require(requestId < _txRequests.length, \"No such request id!\");\n        require(_txRequests[requestId].amount > 0, \"No transfer to approve!\");\n        require(\n            _txApprovals[msg.sender][requestId] != true,\n            \"Already given approval!\"\n        );\n        require(\n            address(this).balance >= _txRequests[requestId].amount,\n            \"Insufficient funds for payment!\"\n        ); // NB.Gas cost not accounted for\n\n        _txApprovals[msg.sender][requestId] = true;\n        _txRequests[requestId].approvals++;\n        \n        emit TxApprovalGiven(requestId, _txRequests[requestId].approvals, msg.sender);\n        \n        if (_txRequests[requestId].approvals >= _minApprovals) {\n            _makeApprovedTransfer(requestId);\n        }\n    }\n    \n    \n    function cancelTransferRequest(uint requestId) public onlyAnOwner {\n        require(requestId < _txRequests.length, \"No such request id!\");\n        require(\n            _txRequestors[requestId] == msg.sender,\n            \"Not transfer creator!\"\n        );\n        _deleteTransferRequest(requestId);\n    }\n    \n\n    // Internal and private functions\n    \n    function _deleteTransferRequest(uint requestId) internal {\n        delete _txRequests[requestId];\n        delete _txRequestors[requestId];\n    }\n    \n    \n    function _makeApprovedTransfer(uint requestId) internal {\n        address sendTo = _txRequests[requestId].recipient;\n        uint amountInWei = _txRequests[requestId].amount;\n        _deleteTransferRequest(requestId);\n\n        _transfer(sendTo, amountInWei);\n            \n        emit TransferSent(sendTo, amountInWei);\n    }\n            \n    \n    function _transfer(address sendTo, uint amountInWei) internal {\n        // address payable to = address(uint160(sendTo));\n        // to.transfer(amountInWei);\n        payable(sendTo).transfer(amountInWei);\n    }\n    \n\n    // Functions for Developer testing \n\n    function getTransferRequest(uint id)\n        public\n        view\n        returns (TxRequest memory transferRequest)\n    {\n        return _txRequests[id];\n    }\n    \n    function getWalletBalance() public view whenNotPaused returns (uint balance) {\n        return address(this).balance;\n    }\n    \n    function getWalletCreator() public view returns (address) {\n        return _walletCreator;\n    }\n    \n    function totalTransferRequests() public view returns (uint) {\n        return _txRequests.length; // Includes cancelled & approved requests\n    }\n\n    function setWalletVersion(uint number) public onlyAnOwner {\n        _version = number;\n    }\n\n    function getWalletVersion() public view returns (uint) {\n        return _version;\n    }\n\n    function pause() public onlyAnOwner whenNotPaused {\n      _pause();\n    }\n\n    function unpause() public onlyAnOwner whenPaused {\n      _unpause();\n    }\n\n}",
  "sourcePath": "/Users/Mark/Documents/BlockChain/IvanOnTechAcademy/Bootcamp/Upgradeable MultiSig Wallet/contracts/MultiSigWalletV2.sol",
  "compiler": {
    "name": "solc",
    "version": "0.8.4+commit.c7e474f2.Emscripten.clang"
  },
  "schemaVersion": "3.4.1",
  "updatedAt": "2021-06-15T22:47:39.117Z",
  "devdoc": {
    "kind": "dev",
    "methods": {
      "paused()": {
        "details": "Returns true if the contract is paused, and false otherwise."
      }
    },
    "version": 1
  },
  "userdoc": {
    "kind": "user",
    "methods": {},
    "version": 1
  }
}