{
  "contractName": "MultiSigWallet",
  "abi": [
    {
      "anonymous": false,
      "inputs": [
        {
          "indexed": false,
          "internalType": "uint256",
          "name": "amount",
          "type": "uint256"
        }
      ],
      "name": "DepositReceived",
      "type": "event"
    },
    {
      "anonymous": false,
      "inputs": [
        {
          "indexed": false,
          "internalType": "address",
          "name": "to",
          "type": "address"
        },
        {
          "indexed": false,
          "internalType": "uint256",
          "name": "amount",
          "type": "uint256"
        }
      ],
      "name": "TransferSent",
      "type": "event"
    },
    {
      "anonymous": false,
      "inputs": [
        {
          "indexed": false,
          "internalType": "uint256",
          "name": "id",
          "type": "uint256"
        },
        {
          "indexed": false,
          "internalType": "uint256",
          "name": "approvals",
          "type": "uint256"
        },
        {
          "indexed": false,
          "internalType": "address",
          "name": "lastApprover",
          "type": "address"
        }
      ],
      "name": "TxApprovalGiven",
      "type": "event"
    },
    {
      "anonymous": false,
      "inputs": [
        {
          "indexed": false,
          "internalType": "uint256",
          "name": "id",
          "type": "uint256"
        },
        {
          "indexed": false,
          "internalType": "uint256",
          "name": "amount",
          "type": "uint256"
        },
        {
          "indexed": false,
          "internalType": "address",
          "name": "to",
          "type": "address"
        },
        {
          "indexed": false,
          "internalType": "address",
          "name": "requestor",
          "type": "address"
        },
        {
          "indexed": false,
          "internalType": "string",
          "name": "reason",
          "type": "string"
        }
      ],
      "name": "TxRequestCreated",
      "type": "event"
    },
    {
      "inputs": [],
      "name": "getApprovers",
      "outputs": [
        {
          "internalType": "address[]",
          "name": "approvers",
          "type": "address[]"
        }
      ],
      "stateMutability": "view",
      "type": "function",
      "constant": true
    },
    {
      "inputs": [],
      "name": "getMinApprovals",
      "outputs": [
        {
          "internalType": "uint256",
          "name": "",
          "type": "uint256"
        }
      ],
      "stateMutability": "view",
      "type": "function",
      "constant": true
    },
    {
      "inputs": [],
      "name": "getOwners",
      "outputs": [
        {
          "internalType": "address[]",
          "name": "owners",
          "type": "address[]"
        }
      ],
      "stateMutability": "view",
      "type": "function",
      "constant": true
    },
    {
      "inputs": [
        {
          "internalType": "address[]",
          "name": "approvers",
          "type": "address[]"
        },
        {
          "internalType": "uint256",
          "name": "minApprovals",
          "type": "uint256"
        }
      ],
      "name": "initializeApprovable",
      "outputs": [],
      "stateMutability": "nonpayable",
      "type": "function"
    },
    {
      "inputs": [
        {
          "internalType": "address[]",
          "name": "owners",
          "type": "address[]"
        }
      ],
      "name": "initializeMultiOwnable",
      "outputs": [],
      "stateMutability": "nonpayable",
      "type": "function"
    },
    {
      "inputs": [
        {
          "internalType": "address[]",
          "name": "owners",
          "type": "address[]"
        },
        {
          "internalType": "uint256",
          "name": "minTxApprovals",
          "type": "uint256"
        }
      ],
      "name": "initialize",
      "outputs": [],
      "stateMutability": "nonpayable",
      "type": "function"
    },
    {
      "inputs": [],
      "name": "deposit",
      "outputs": [],
      "stateMutability": "payable",
      "type": "function",
      "payable": true
    },
    {
      "inputs": [
        {
          "internalType": "address",
          "name": "toAddress",
          "type": "address"
        },
        {
          "internalType": "string",
          "name": "reason",
          "type": "string"
        },
        {
          "internalType": "uint256",
          "name": "amountWei",
          "type": "uint256"
        }
      ],
      "name": "createTransferRequest",
      "outputs": [
        {
          "internalType": "uint256",
          "name": "txId",
          "type": "uint256"
        }
      ],
      "stateMutability": "nonpayable",
      "type": "function"
    },
    {
      "inputs": [
        {
          "internalType": "uint256",
          "name": "requestId",
          "type": "uint256"
        }
      ],
      "name": "approveTransferRequest",
      "outputs": [],
      "stateMutability": "nonpayable",
      "type": "function"
    },
    {
      "inputs": [
        {
          "internalType": "uint256",
          "name": "requestId",
          "type": "uint256"
        }
      ],
      "name": "cancelTransferRequest",
      "outputs": [],
      "stateMutability": "nonpayable",
      "type": "function"
    },
    {
      "inputs": [
        {
          "internalType": "uint256",
          "name": "id",
          "type": "uint256"
        }
      ],
      "name": "getTransferRequest",
      "outputs": [
        {
          "components": [
            {
              "internalType": "address",
              "name": "requestor",
              "type": "address"
            },
            {
              "internalType": "address",
              "name": "recipient",
              "type": "address"
            },
            {
              "internalType": "string",
              "name": "reason",
              "type": "string"
            },
            {
              "internalType": "uint256",
              "name": "amount",
              "type": "uint256"
            },
            {
              "internalType": "uint256",
              "name": "approvals",
              "type": "uint256"
            },
            {
              "internalType": "uint256",
              "name": "id",
              "type": "uint256"
            }
          ],
          "internalType": "struct MultiSigWallet.TxRequest",
          "name": "transferRequest",
          "type": "tuple"
        }
      ],
      "stateMutability": "view",
      "type": "function",
      "constant": true
    },
    {
      "inputs": [],
      "name": "getWalletBalance",
      "outputs": [
        {
          "internalType": "uint256",
          "name": "balance",
          "type": "uint256"
        }
      ],
      "stateMutability": "view",
      "type": "function",
      "constant": true
    },
    {
      "inputs": [],
      "name": "getWalletCreator",
      "outputs": [
        {
          "internalType": "address",
          "name": "",
          "type": "address"
        }
      ],
      "stateMutability": "view",
      "type": "function",
      "constant": true
    },
    {
      "inputs": [],
      "name": "totalTransferRequests",
      "outputs": [
        {
          "internalType": "uint256",
          "name": "",
          "type": "uint256"
        }
      ],
      "stateMutability": "view",
      "type": "function",
      "constant": true
    }
  ],
  "bytecode": "0x608060405234801561001057600080fd5b50612ce1806100206000396000f3fe6080604052600436106100dd5760003560e01c806382c96dcd1161007f578063b6af775511610059578063b6af77551461029c578063c8ce6f3a146102c5578063d0e30db014610302578063dec3eea51461030c576100dd565b806382c96dcd1461020957806399807e4c14610234578063a0e67e2b14610271576100dd565b80635f89aacb116100bb5780635f89aacb1461016157806360b5bb3f1461018a57806365386f29146101b35780636cb3e8ef146101de576100dd565b8063329a27e7146100e25780634d3e24901461010d5780634db7ce0914610138575b600080fd5b3480156100ee57600080fd5b506100f7610335565b6040516101049190612642565b60405180910390f35b34801561011957600080fd5b5061012261033d565b60405161012f9190612642565b60405180910390f35b34801561014457600080fd5b5061015f600480360381019061015a9190611f1d565b610347565b005b34801561016d57600080fd5b5061018860048036038101906101839190611f71565b610781565b005b34801561019657600080fd5b506101b160048036038101906101ac9190611f1d565b610901565b005b3480156101bf57600080fd5b506101c8610a30565b6040516101d59190612642565b60405180910390f35b3480156101ea57600080fd5b506101f3610a3d565b60405161020091906123de565b60405180910390f35b34801561021557600080fd5b5061021e610acb565b60405161022b919061239a565b60405180910390f35b34801561024057600080fd5b5061025b60048036038101906102569190611f71565b610af5565b6040516102689190612620565b60405180910390f35b34801561027d57600080fd5b50610286610cb3565b60405161029391906123de565b60405180910390f35b3480156102a857600080fd5b506102c360048036038101906102be9190611edc565b610d41565b005b3480156102d157600080fd5b506102ec60048036038101906102e79190611e75565b61112f565b6040516102f99190612642565b60405180910390f35b61030a6114f1565b005b34801561031857600080fd5b50610333600480360381019061032e9190611f71565b61156d565b005b600047905090565b6000600554905090565b600060019054906101000a900460ff168061036d575060008054906101000a900460ff16155b6103ac576040517f08c379a00000000000000000000000000000000000000000000000000000000081526004016103a3906124a0565b60405180910390fd5b60008060019054906101000a900460ff1615905080156103fc576001600060016101000a81548160ff02191690831515021790555060016000806101000a81548160ff0219169083151502179055505b8251821115610440576040517f08c379a0000000000000000000000000000000000000000000000000000000008152600401610437906124e0565b60405180910390fd5b60005b835181101561071757600073ffffffffffffffffffffffffffffffffffffffff1684828151811061049d577f4e487b7100000000000000000000000000000000000000000000000000000000600052603260045260246000fd5b602002602001015173ffffffffffffffffffffffffffffffffffffffff1614156104fc576040517f08c379a00000000000000000000000000000000000000000000000000000000081526004016104f390612500565b60405180910390fd5b60046000858381518110610539577f4e487b7100000000000000000000000000000000000000000000000000000000600052603260045260246000fd5b602002602001015173ffffffffffffffffffffffffffffffffffffffff1673ffffffffffffffffffffffffffffffffffffffff16815260200190815260200160002060009054906101000a900460ff16156105c9576040517f08c379a00000000000000000000000000000000000000000000000000000000081526004016105c090612580565b60405180910390fd5b6003848281518110610604577f4e487b7100000000000000000000000000000000000000000000000000000000600052603260045260246000fd5b60200260200101519080600181540180825580915050600190039060005260206000200160009091909190916101000a81548173ffffffffffffffffffffffffffffffffffffffff021916908373ffffffffffffffffffffffffffffffffffffffff1602179055506001600460008684815181106106ab577f4e487b7100000000000000000000000000000000000000000000000000000000600052603260045260246000fd5b602002602001015173ffffffffffffffffffffffffffffffffffffffff1673ffffffffffffffffffffffffffffffffffffffff16815260200190815260200160002060006101000a81548160ff021916908315150217905550808061070f906128b7565b915050610443565b508160058190555082516003805490501461075b577f4e487b7100000000000000000000000000000000000000000000000000000000600052600160045260246000fd5b801561077c5760008060016101000a81548160ff0219169083151502179055505b505050565b600260003373ffffffffffffffffffffffffffffffffffffffff1673ffffffffffffffffffffffffffffffffffffffff16815260200190815260200160002060009054906101000a900460ff1661080d576040517f08c379a000000000000000000000000000000000000000000000000000000000815260040161080490612540565b60405180910390fd5b6007805490508110610854576040517f08c379a000000000000000000000000000000000000000000000000000000000815260040161084b90612560565b60405180910390fd5b3373ffffffffffffffffffffffffffffffffffffffff166008600083815260200190815260200160002060009054906101000a900473ffffffffffffffffffffffffffffffffffffffff1673ffffffffffffffffffffffffffffffffffffffff16146108f5576040517f08c379a00000000000000000000000000000000000000000000000000000000081526004016108ec90612460565b60405180910390fd5b6108fe816119b2565b50565b600060019054906101000a900460ff1680610927575060008054906101000a900460ff16155b610966576040517f08c379a000000000000000000000000000000000000000000000000000000000815260040161095d906124a0565b60405180910390fd5b60008060019054906101000a900460ff1615905080156109b6576001600060016101000a81548160ff02191690831515021790555060016000806101000a81548160ff0219169083151502179055505b6109bf83610d41565b6109c98383610347565b33600660006101000a81548173ffffffffffffffffffffffffffffffffffffffff021916908373ffffffffffffffffffffffffffffffffffffffff1602179055508015610a2b5760008060016101000a81548160ff0219169083151502179055505b505050565b6000600780549050905090565b60606003805480602002602001604051908101604052809291908181526020018280548015610ac157602002820191906000526020600020905b8160009054906101000a900473ffffffffffffffffffffffffffffffffffffffff1673ffffffffffffffffffffffffffffffffffffffff1681526020019060010190808311610a77575b5050505050905090565b6000600660009054906101000a900473ffffffffffffffffffffffffffffffffffffffff16905090565b610afd611c08565b60078281548110610b37577f4e487b7100000000000000000000000000000000000000000000000000000000600052603260045260246000fd5b90600052602060002090600602016040518060c00160405290816000820160009054906101000a900473ffffffffffffffffffffffffffffffffffffffff1673ffffffffffffffffffffffffffffffffffffffff1673ffffffffffffffffffffffffffffffffffffffff1681526020016001820160009054906101000a900473ffffffffffffffffffffffffffffffffffffffff1673ffffffffffffffffffffffffffffffffffffffff1673ffffffffffffffffffffffffffffffffffffffff168152602001600282018054610c0c90612854565b80601f0160208091040260200160405190810160405280929190818152602001828054610c3890612854565b8015610c855780601f10610c5a57610100808354040283529160200191610c85565b820191906000526020600020905b815481529060010190602001808311610c6857829003601f168201915b5050505050815260200160038201548152602001600482015481526020016005820154815250509050919050565b60606001805480602002602001604051908101604052809291908181526020018280548015610d3757602002820191906000526020600020905b8160009054906101000a900473ffffffffffffffffffffffffffffffffffffffff1673ffffffffffffffffffffffffffffffffffffffff1681526020019060010190808311610ced575b5050505050905090565b600060019054906101000a900460ff1680610d67575060008054906101000a900460ff16155b610da6576040517f08c379a0000000000000000000000000000000000000000000000000000000008152600401610d9d906124a0565b60405180910390fd5b60008060019054906101000a900460ff161590508015610df6576001600060016101000a81548160ff02191690831515021790555060016000806101000a81548160ff0219169083151502179055505b60005b82518110156110cd57600073ffffffffffffffffffffffffffffffffffffffff16838281518110610e53577f4e487b7100000000000000000000000000000000000000000000000000000000600052603260045260246000fd5b602002602001015173ffffffffffffffffffffffffffffffffffffffff161415610eb2576040517f08c379a0000000000000000000000000000000000000000000000000000000008152600401610ea990612420565b60405180910390fd5b60026000848381518110610eef577f4e487b7100000000000000000000000000000000000000000000000000000000600052603260045260246000fd5b602002602001015173ffffffffffffffffffffffffffffffffffffffff1673ffffffffffffffffffffffffffffffffffffffff16815260200190815260200160002060009054906101000a900460ff1615610f7f576040517f08c379a0000000000000000000000000000000000000000000000000000000008152600401610f7690612400565b60405180910390fd5b6001838281518110610fba577f4e487b7100000000000000000000000000000000000000000000000000000000600052603260045260246000fd5b60200260200101519080600181540180825580915050600190039060005260206000200160009091909190916101000a81548173ffffffffffffffffffffffffffffffffffffffff021916908373ffffffffffffffffffffffffffffffffffffffff160217905550600160026000858481518110611061577f4e487b7100000000000000000000000000000000000000000000000000000000600052603260045260246000fd5b602002602001015173ffffffffffffffffffffffffffffffffffffffff1673ffffffffffffffffffffffffffffffffffffffff16815260200190815260200160002060006101000a81548160ff02191690831515021790555080806110c5906128b7565b915050610df9565b5081516001805490501461110a577f4e487b7100000000000000000000000000000000000000000000000000000000600052600160045260246000fd5b801561112b5760008060016101000a81548160ff0219169083151502179055505b5050565b6000600260003373ffffffffffffffffffffffffffffffffffffffff1673ffffffffffffffffffffffffffffffffffffffff16815260200190815260200160002060009054906101000a900460ff166111bd576040517f08c379a00000000000000000000000000000000000000000000000000000000081526004016111b490612540565b60405180910390fd5b600073ffffffffffffffffffffffffffffffffffffffff168473ffffffffffffffffffffffffffffffffffffffff16141561122d576040517f08c379a0000000000000000000000000000000000000000000000000000000008152600401611224906124c0565b60405180910390fd5b3073ffffffffffffffffffffffffffffffffffffffff168473ffffffffffffffffffffffffffffffffffffffff16141561129c576040517f08c379a000000000000000000000000000000000000000000000000000000000815260040161129390612440565b60405180910390fd5b600082116112df576040517f08c379a00000000000000000000000000000000000000000000000000000000081526004016112d690612480565b60405180910390fd5b60006040518060c001604052803373ffffffffffffffffffffffffffffffffffffffff1681526020018673ffffffffffffffffffffffffffffffffffffffff168152602001858152602001848152602001600081526020016007805490508152509050600781908060018154018082558091505060019003906000526020600020906006020160009091909190915060008201518160000160006101000a81548173ffffffffffffffffffffffffffffffffffffffff021916908373ffffffffffffffffffffffffffffffffffffffff16021790555060208201518160010160006101000a81548173ffffffffffffffffffffffffffffffffffffffff021916908373ffffffffffffffffffffffffffffffffffffffff1602179055506040820151816002019080519060200190611418929190611c6a565b50606082015181600301556080820151816004015560a08201518160050155505033600860008360a00151815260200190815260200160002060006101000a81548173ffffffffffffffffffffffffffffffffffffffff021916908373ffffffffffffffffffffffffffffffffffffffff1602179055507fd9a745595b77ae886da062b1e73fe73dc45372f44854c688cb90a1d0278dc35a8160a0015182606001518360200151846000015185604001516040516114da959493929190612694565b60405180910390a18060a001519150509392505050565b60003411611534576040517f08c379a000000000000000000000000000000000000000000000000000000000815260040161152b906125e0565b60405180910390fd5b7fa1ab46d0e38f33a7b1f03853088a305927deb55c906370ff5d6d2bc732f15095346040516115639190612642565b60405180910390a1565b600460003373ffffffffffffffffffffffffffffffffffffffff1673ffffffffffffffffffffffffffffffffffffffff16815260200190815260200160002060009054906101000a900460ff166115f9576040517f08c379a00000000000000000000000000000000000000000000000000000000081526004016115f090612600565b60405180910390fd5b6007805490508110611640576040517f08c379a000000000000000000000000000000000000000000000000000000000815260040161163790612560565b60405180910390fd5b60006007828154811061167c577f4e487b7100000000000000000000000000000000000000000000000000000000600052603260045260246000fd5b906000526020600020906006020160030154116116ce576040517f08c379a00000000000000000000000000000000000000000000000000000000081526004016116c5906125c0565b60405180910390fd5b60011515600960003373ffffffffffffffffffffffffffffffffffffffff1673ffffffffffffffffffffffffffffffffffffffff168152602001908152602001600020600083815260200190815260200160002060009054906101000a900460ff1615151415611773576040517f08c379a000000000000000000000000000000000000000000000000000000000815260040161176a906125a0565b60405180910390fd5b600781815481106117ad577f4e487b7100000000000000000000000000000000000000000000000000000000600052603260045260246000fd5b906000526020600020906006020160030154471015611801576040517f08c379a00000000000000000000000000000000000000000000000000000000081526004016117f890612520565b60405180910390fd5b6001600960003373ffffffffffffffffffffffffffffffffffffffff1673ffffffffffffffffffffffffffffffffffffffff168152602001908152602001600020600083815260200190815260200160002060006101000a81548160ff021916908315150217905550600781815481106118a4577f4e487b7100000000000000000000000000000000000000000000000000000000600052603260045260246000fd5b906000526020600020906006020160040160008154809291906118c6906128b7565b91905055507f785e7b1da6f3e7ca30112843e74578b1bd80f14fd4de36b7007dcd5a8b48df4c8160078381548110611927577f4e487b7100000000000000000000000000000000000000000000000000000000600052603260045260246000fd5b906000526020600020906006020160040154336040516119499392919061265d565b60405180910390a16005546007828154811061198e577f4e487b7100000000000000000000000000000000000000000000000000000000600052603260045260246000fd5b906000526020600020906006020160040154106119af576119ae81611aac565b5b50565b600781815481106119ec577f4e487b7100000000000000000000000000000000000000000000000000000000600052603260045260246000fd5b9060005260206000209060060201600080820160006101000a81549073ffffffffffffffffffffffffffffffffffffffff02191690556001820160006101000a81549073ffffffffffffffffffffffffffffffffffffffff0219169055600282016000611a599190611cf0565b60038201600090556004820160009055600582016000905550506008600082815260200190815260200160002060006101000a81549073ffffffffffffffffffffffffffffffffffffffff021916905550565b600060078281548110611ae8577f4e487b7100000000000000000000000000000000000000000000000000000000600052603260045260246000fd5b906000526020600020906006020160010160009054906101000a900473ffffffffffffffffffffffffffffffffffffffff169050600060078381548110611b58577f4e487b7100000000000000000000000000000000000000000000000000000000600052603260045260246000fd5b9060005260206000209060060201600301549050611b75836119b2565b611b7f8282611bbd565b7f8aa89c45e00b1dc8befa3736e4d341042a1cd0021a629920526985a6028f75258282604051611bb09291906123b5565b60405180910390a1505050565b8173ffffffffffffffffffffffffffffffffffffffff166108fc829081150290604051600060405180830381858888f19350505050158015611c03573d6000803e3d6000fd5b505050565b6040518060c00160405280600073ffffffffffffffffffffffffffffffffffffffff168152602001600073ffffffffffffffffffffffffffffffffffffffff168152602001606081526020016000815260200160008152602001600081525090565b828054611c7690612854565b90600052602060002090601f016020900481019282611c985760008555611cdf565b82601f10611cb157805160ff1916838001178555611cdf565b82800160010185558215611cdf579182015b82811115611cde578251825591602001919060010190611cc3565b5b509050611cec9190611d30565b5090565b508054611cfc90612854565b6000825580601f10611d0e5750611d2d565b601f016020900490600052602060002090810190611d2c9190611d30565b5b50565b5b80821115611d49576000816000905550600101611d31565b5090565b6000611d60611d5b84612713565b6126ee565b90508083825260208201905082856020860282011115611d7f57600080fd5b60005b85811015611daf5781611d958882611df7565b845260208401935060208301925050600181019050611d82565b5050509392505050565b6000611dcc611dc78461273f565b6126ee565b905082815260208101848484011115611de457600080fd5b611def848285612812565b509392505050565b600081359050611e0681612c7d565b92915050565b600082601f830112611e1d57600080fd5b8135611e2d848260208601611d4d565b91505092915050565b600082601f830112611e4757600080fd5b8135611e57848260208601611db9565b91505092915050565b600081359050611e6f81612c94565b92915050565b600080600060608486031215611e8a57600080fd5b6000611e9886828701611df7565b935050602084013567ffffffffffffffff811115611eb557600080fd5b611ec186828701611e36565b9250506040611ed286828701611e60565b9150509250925092565b600060208284031215611eee57600080fd5b600082013567ffffffffffffffff811115611f0857600080fd5b611f1484828501611e0c565b91505092915050565b60008060408385031215611f3057600080fd5b600083013567ffffffffffffffff811115611f4a57600080fd5b611f5685828601611e0c565b9250506020611f6785828601611e60565b9150509250929050565b600060208284031215611f8357600080fd5b6000611f9184828501611e60565b91505092915050565b6000611fa68383611fb2565b60208301905092915050565b611fbb816127d6565b82525050565b611fca816127d6565b82525050565b6000611fdb82612780565b611fe581856127a3565b9350611ff083612770565b8060005b838110156120215781516120088882611f9a565b975061201383612796565b925050600181019050611ff4565b5085935050505092915050565b60006120398261278b565b61204381856127b4565b9350612053818560208601612821565b61205c8161298d565b840191505092915050565b60006120728261278b565b61207c81856127c5565b935061208c818560208601612821565b6120958161298d565b840191505092915050565b60006120ad6018836127c5565b91506120b88261299e565b602082019050919050565b60006120d06015836127c5565b91506120db826129c7565b602082019050919050565b60006120f36019836127c5565b91506120fe826129f0565b602082019050919050565b60006121166015836127c5565b915061212182612a19565b602082019050919050565b60006121396015836127c5565b915061214482612a42565b602082019050919050565b600061215c602e836127c5565b915061216782612a6b565b604082019050919050565b600061217f6017836127c5565b915061218a82612aba565b602082019050919050565b60006121a2601e836127c5565b91506121ad82612ae3565b602082019050919050565b60006121c56017836127c5565b91506121d082612b0c565b602082019050919050565b60006121e8601f836127c5565b91506121f382612b35565b602082019050919050565b600061220b600d836127c5565b915061221682612b5e565b602082019050919050565b600061222e6013836127c5565b915061223982612b87565b602082019050919050565b6000612251601b836127c5565b915061225c82612bb0565b602082019050919050565b60006122746017836127c5565b915061227f82612bd9565b602082019050919050565b60006122976017836127c5565b91506122a282612c02565b602082019050919050565b60006122ba6019836127c5565b91506122c582612c2b565b602082019050919050565b60006122dd6010836127c5565b91506122e882612c54565b602082019050919050565b600060c08301600083015161230b6000860182611fb2565b50602083015161231e6020860182611fb2565b5060408301518482036040860152612336828261202e565b915050606083015161234b606086018261237c565b50608083015161235e608086018261237c565b5060a083015161237160a086018261237c565b508091505092915050565b61238581612808565b82525050565b61239481612808565b82525050565b60006020820190506123af6000830184611fc1565b92915050565b60006040820190506123ca6000830185611fc1565b6123d7602083018461238b565b9392505050565b600060208201905081810360008301526123f88184611fd0565b905092915050565b60006020820190508181036000830152612419816120a0565b9050919050565b60006020820190508181036000830152612439816120c3565b9050919050565b60006020820190508181036000830152612459816120e6565b9050919050565b6000602082019050818103600083015261247981612109565b9050919050565b600060208201905081810360008301526124998161212c565b9050919050565b600060208201905081810360008301526124b98161214f565b9050919050565b600060208201905081810360008301526124d981612172565b9050919050565b600060208201905081810360008301526124f981612195565b9050919050565b60006020820190508181036000830152612519816121b8565b9050919050565b60006020820190508181036000830152612539816121db565b9050919050565b60006020820190508181036000830152612559816121fe565b9050919050565b6000602082019050818103600083015261257981612221565b9050919050565b6000602082019050818103600083015261259981612244565b9050919050565b600060208201905081810360008301526125b981612267565b9050919050565b600060208201905081810360008301526125d98161228a565b9050919050565b600060208201905081810360008301526125f9816122ad565b9050919050565b60006020820190508181036000830152612619816122d0565b9050919050565b6000602082019050818103600083015261263a81846122f3565b905092915050565b6000602082019050612657600083018461238b565b92915050565b6000606082019050612672600083018661238b565b61267f602083018561238b565b61268c6040830184611fc1565b949350505050565b600060a0820190506126a9600083018861238b565b6126b6602083018761238b565b6126c36040830186611fc1565b6126d06060830185611fc1565b81810360808301526126e28184612067565b90509695505050505050565b60006126f8612709565b90506127048282612886565b919050565b6000604051905090565b600067ffffffffffffffff82111561272e5761272d61295e565b5b602082029050602081019050919050565b600067ffffffffffffffff82111561275a5761275961295e565b5b6127638261298d565b9050602081019050919050565b6000819050602082019050919050565b600081519050919050565b600081519050919050565b6000602082019050919050565b600082825260208201905092915050565b600082825260208201905092915050565b600082825260208201905092915050565b60006127e1826127e8565b9050919050565b600073ffffffffffffffffffffffffffffffffffffffff82169050919050565b6000819050919050565b82818337600083830152505050565b60005b8381101561283f578082015181840152602081019050612824565b8381111561284e576000848401525b50505050565b6000600282049050600182168061286c57607f821691505b602082108114156128805761287f61292f565b5b50919050565b61288f8261298d565b810181811067ffffffffffffffff821117156128ae576128ad61295e565b5b80604052505050565b60006128c282612808565b91507fffffffffffffffffffffffffffffffffffffffffffffffffffffffffffffffff8214156128f5576128f4612900565b5b600182019050919050565b7f4e487b7100000000000000000000000000000000000000000000000000000000600052601160045260246000fd5b7f4e487b7100000000000000000000000000000000000000000000000000000000600052602260045260246000fd5b7f4e487b7100000000000000000000000000000000000000000000000000000000600052604160045260246000fd5b6000601f19601f8301169050919050565b7f4475706c6963617465206f776e65722061646472657373210000000000000000600082015250565b7f4f776e6572207769746820302061646472657373210000000000000000000000600082015250565b7f526563697065696e7420697320746869732077616c6c65742100000000000000600082015250565b7f4e6f74207472616e736665722063726561746f72210000000000000000000000600082015250565b7f5472616e7366657220616d6f756e742069732030210000000000000000000000600082015250565b7f496e697469616c697a61626c653a20636f6e747261637420697320616c72656160008201527f647920696e697469616c697a6564000000000000000000000000000000000000602082015250565b7f526563697069656e742069732061646472657373203021000000000000000000600082015250565b7f4d696e696d756d20617070726f76616c73203e20617070726f76657273210000600082015250565b7f417070726f766572206861732030206164647265737321000000000000000000600082015250565b7f496e73756666696369656e742066756e647320666f72207061796d656e742100600082015250565b7f4e6f7420616e206f776e65722100000000000000000000000000000000000000600082015250565b7f4e6f207375636820726571756573742069642100000000000000000000000000600082015250565b7f4475706c696361746520617070726f7665722061646472657373210000000000600082015250565b7f416c726561647920676976656e20617070726f76616c21000000000000000000600082015250565b7f4e6f207472616e7366657220746f20617070726f766521000000000000000000600082015250565b7f4e6f2066756e64732073656e7420746f206465706f7369742100000000000000600082015250565b7f4e6f7420616e20617070726f7665722100000000000000000000000000000000600082015250565b612c86816127d6565b8114612c9157600080fd5b50565b612c9d81612808565b8114612ca857600080fd5b5056fea2646970667358221220821b7f741408e0577a195b8a2355c95291beee740da00ba1148e6d27874f032e64736f6c63430008040033",
  "immutableReferences": {},
  "source": "// SPDX-License-Identifier: MIT\npragma solidity 0.8.4;\n\nimport \"../node_modules/@openzeppelin/contracts/proxy/utils/Initializable.sol\";\n\nimport \"./MultiOwnable.sol\";\nimport \"./Approvable.sol\";\n\ncontract MultiSigWallet is MultiOwnable, Approvable {\n\n    // STATE VARIABLES\n    address internal _walletCreator;\n\n    struct TxRequest {\n        address requestor;\n        address recipient;\n        string reason;\n        uint amount;\n        uint approvals;\n        uint id;    // request id\n    }\n    \n    TxRequest[] internal _txRequests;  // array's index == request id\n    mapping (uint => address) internal _txRequestors;\n    mapping (address => mapping (uint => bool)) internal _txApprovals;\n        // approver => (requestId => approval?)\n    \n    event DepositReceived(uint amount); \n    event TxRequestCreated(\n        uint id,\n        uint amount,\n        address to,\n        address requestor,\n        string reason\n    );\n    event TxApprovalGiven(uint id, uint approvals, address lastApprover);\n    event TransferSent(address to, uint amount); \n\n    // FUNCTIONS\n    // Public & External functions\n    \n    function initialize(address[] memory owners, uint minTxApprovals)\n        public\n        virtual\n        // override\n        initializer\n    {\n        // MultiOwnable.initialize(owners);\n        // Approvable.initialize(owners, minTxApprovals);\n        MultiOwnable.initializeMultiOwnable(owners);\n        Approvable.initializeApprovable(owners, minTxApprovals);\n\n        _walletCreator = msg.sender;\n    }\n    \n    \n    function deposit() external payable {\n        require (msg.value > 0, \"No funds sent to deposit!\");\n        emit DepositReceived(msg.value);\n    }\n    \n        \n    function createTransferRequest(\n        address toAddress,\n        string memory reason,\n        uint amountWei\n    )\n        public\n        onlyAnOwner\n        returns (uint txId)\n    {\n        require(toAddress != address(0), \"Recipient is address 0!\");\n        require(toAddress != address(this), \"Recipeint is this wallet!\");\n        require(amountWei > 0, \"Transfer amount is 0!\");\n        \n        TxRequest memory newRequest =\n            TxRequest(\n                msg.sender,\n                toAddress,\n                reason,\n                amountWei,\n                0,\n                _txRequests.length\n            );\n\n        _txRequests.push(newRequest);\n        _txRequestors[newRequest.id] = msg.sender;\n        \n        emit TxRequestCreated(\n            newRequest.id,\n            newRequest.amount,\n            newRequest.recipient,\n            newRequest.requestor,\n            newRequest.reason);\n\n        return newRequest.id;\n    }\n    \n\n    function approveTransferRequest(uint requestId)\n        public\n        onlyAnApprover\n    {\n        require(requestId < _txRequests.length, \"No such request id!\");\n        require(_txRequests[requestId].amount > 0, \"No transfer to approve!\");\n        require(\n            _txApprovals[msg.sender][requestId] != true,\n            \"Already given approval!\"\n        );\n        require(\n            address(this).balance >= _txRequests[requestId].amount,\n            \"Insufficient funds for payment!\"\n        ); // NB.Gas cost not accounted for\n\n        _txApprovals[msg.sender][requestId] = true;\n        _txRequests[requestId].approvals++;\n        \n        emit TxApprovalGiven(requestId, _txRequests[requestId].approvals, msg.sender);\n        \n        if (_txRequests[requestId].approvals >= _minApprovals) {\n            _makeApprovedTransfer(requestId);\n        }\n    }\n    \n    \n    function cancelTransferRequest(uint requestId) public onlyAnOwner {\n        require(requestId < _txRequests.length, \"No such request id!\");\n        require(\n            _txRequestors[requestId] == msg.sender,\n            \"Not transfer creator!\"\n        );\n        _deleteTransferRequest(requestId);\n    }\n    \n\n    // Internal and private functions\n    \n    function _deleteTransferRequest(uint requestId) internal {\n        delete _txRequests[requestId];\n        delete _txRequestors[requestId];\n    }\n    \n    \n    function _makeApprovedTransfer(uint requestId) internal {\n        address sendTo = _txRequests[requestId].recipient;\n        uint amountInWei = _txRequests[requestId].amount;\n        _deleteTransferRequest(requestId);\n\n        _transfer(sendTo, amountInWei);\n            \n        emit TransferSent(sendTo, amountInWei);\n    }\n            \n    \n    function _transfer(address sendTo, uint amountInWei) internal {\n        // address payable to = address(uint160(sendTo));\n        // to.transfer(amountInWei);\n        payable(sendTo).transfer(amountInWei);\n    }\n    \n\n    // Functions for Developer testing \n\n    function getTransferRequest(uint id)\n        public\n        view\n        returns (TxRequest memory transferRequest)\n    {\n        return _txRequests[id];\n    }\n    \n    function getWalletBalance() public view returns (uint balance) {\n        return address(this).balance;\n    }\n    \n    function getWalletCreator() public view returns (address) {\n        return _walletCreator;\n    }\n    \n    function totalTransferRequests() public view returns (uint) {\n        return _txRequests.length; // Includes cancelled & approved requests\n    }\n}",
  "sourcePath": "/Users/Mark/Documents/BlockChain/IvanOnTechAcademy/Bootcamp/Upgradeable MultiSig Wallet/contracts/MultiSigWallet.sol",
  "compiler": {
    "name": "solc",
    "version": "0.8.4+commit.c7e474f2.Emscripten.clang"
  },
  "schemaVersion": "3.4.1",
  "updatedAt": "2021-06-15T20:31:19.241Z",
  "networkType": "ethereum",
  "devdoc": {
    "kind": "dev",
    "methods": {},
    "version": 1
  },
  "userdoc": {
    "kind": "user",
    "methods": {},
    "version": 1
  }
}