{
  "contractName": "MultiSigWallet",
  "abi": [
    {
      "anonymous": false,
      "inputs": [
        {
          "indexed": false,
          "internalType": "uint256",
          "name": "amount",
          "type": "uint256"
        }
      ],
      "name": "DepositReceived",
      "type": "event"
    },
    {
      "anonymous": false,
      "inputs": [
        {
          "indexed": false,
          "internalType": "address",
          "name": "account",
          "type": "address"
        }
      ],
      "name": "Paused",
      "type": "event"
    },
    {
      "anonymous": false,
      "inputs": [
        {
          "indexed": false,
          "internalType": "address",
          "name": "to",
          "type": "address"
        },
        {
          "indexed": false,
          "internalType": "uint256",
          "name": "amount",
          "type": "uint256"
        }
      ],
      "name": "TransferSent",
      "type": "event"
    },
    {
      "anonymous": false,
      "inputs": [
        {
          "indexed": false,
          "internalType": "uint256",
          "name": "id",
          "type": "uint256"
        },
        {
          "indexed": false,
          "internalType": "uint256",
          "name": "approvals",
          "type": "uint256"
        },
        {
          "indexed": false,
          "internalType": "address",
          "name": "lastApprover",
          "type": "address"
        }
      ],
      "name": "TxApprovalGiven",
      "type": "event"
    },
    {
      "anonymous": false,
      "inputs": [
        {
          "indexed": false,
          "internalType": "uint256",
          "name": "id",
          "type": "uint256"
        },
        {
          "indexed": false,
          "internalType": "uint256",
          "name": "amount",
          "type": "uint256"
        },
        {
          "indexed": false,
          "internalType": "address",
          "name": "to",
          "type": "address"
        },
        {
          "indexed": false,
          "internalType": "address",
          "name": "requestor",
          "type": "address"
        },
        {
          "indexed": false,
          "internalType": "string",
          "name": "reason",
          "type": "string"
        }
      ],
      "name": "TxRequestCreated",
      "type": "event"
    },
    {
      "anonymous": false,
      "inputs": [
        {
          "indexed": false,
          "internalType": "address",
          "name": "account",
          "type": "address"
        }
      ],
      "name": "Unpaused",
      "type": "event"
    },
    {
      "inputs": [],
      "name": "getApprovers",
      "outputs": [
        {
          "internalType": "address[]",
          "name": "approvers",
          "type": "address[]"
        }
      ],
      "stateMutability": "view",
      "type": "function",
      "constant": true
    },
    {
      "inputs": [],
      "name": "getMinApprovals",
      "outputs": [
        {
          "internalType": "uint256",
          "name": "",
          "type": "uint256"
        }
      ],
      "stateMutability": "view",
      "type": "function",
      "constant": true
    },
    {
      "inputs": [],
      "name": "getOwners",
      "outputs": [
        {
          "internalType": "address[]",
          "name": "owners",
          "type": "address[]"
        }
      ],
      "stateMutability": "view",
      "type": "function",
      "constant": true
    },
    {
      "inputs": [
        {
          "internalType": "address[]",
          "name": "approvers",
          "type": "address[]"
        },
        {
          "internalType": "uint256",
          "name": "minApprovals",
          "type": "uint256"
        }
      ],
      "name": "initializeApprovable",
      "outputs": [],
      "stateMutability": "nonpayable",
      "type": "function"
    },
    {
      "inputs": [
        {
          "internalType": "address[]",
          "name": "owners",
          "type": "address[]"
        }
      ],
      "name": "initializeMultiOwnable",
      "outputs": [],
      "stateMutability": "nonpayable",
      "type": "function"
    },
    {
      "inputs": [],
      "name": "paused",
      "outputs": [
        {
          "internalType": "bool",
          "name": "",
          "type": "bool"
        }
      ],
      "stateMutability": "view",
      "type": "function",
      "constant": true
    },
    {
      "inputs": [
        {
          "internalType": "address[]",
          "name": "owners",
          "type": "address[]"
        },
        {
          "internalType": "uint256",
          "name": "minTxApprovals",
          "type": "uint256"
        }
      ],
      "name": "initialize",
      "outputs": [],
      "stateMutability": "nonpayable",
      "type": "function"
    },
    {
      "inputs": [],
      "name": "deposit",
      "outputs": [],
      "stateMutability": "payable",
      "type": "function",
      "payable": true
    },
    {
      "inputs": [
        {
          "internalType": "address",
          "name": "toAddress",
          "type": "address"
        },
        {
          "internalType": "string",
          "name": "reason",
          "type": "string"
        },
        {
          "internalType": "uint256",
          "name": "amountWei",
          "type": "uint256"
        }
      ],
      "name": "createTransferRequest",
      "outputs": [
        {
          "internalType": "uint256",
          "name": "txId",
          "type": "uint256"
        }
      ],
      "stateMutability": "nonpayable",
      "type": "function"
    },
    {
      "inputs": [
        {
          "internalType": "uint256",
          "name": "requestId",
          "type": "uint256"
        }
      ],
      "name": "approveTransferRequest",
      "outputs": [],
      "stateMutability": "nonpayable",
      "type": "function"
    },
    {
      "inputs": [
        {
          "internalType": "uint256",
          "name": "requestId",
          "type": "uint256"
        }
      ],
      "name": "cancelTransferRequest",
      "outputs": [],
      "stateMutability": "nonpayable",
      "type": "function"
    },
    {
      "inputs": [
        {
          "internalType": "uint256",
          "name": "id",
          "type": "uint256"
        }
      ],
      "name": "getTransferRequest",
      "outputs": [
        {
          "components": [
            {
              "internalType": "address",
              "name": "requestor",
              "type": "address"
            },
            {
              "internalType": "address",
              "name": "recipient",
              "type": "address"
            },
            {
              "internalType": "string",
              "name": "reason",
              "type": "string"
            },
            {
              "internalType": "uint256",
              "name": "amount",
              "type": "uint256"
            },
            {
              "internalType": "uint256",
              "name": "approvals",
              "type": "uint256"
            },
            {
              "internalType": "uint256",
              "name": "id",
              "type": "uint256"
            }
          ],
          "internalType": "struct MultiSigWallet.TxRequest",
          "name": "transferRequest",
          "type": "tuple"
        }
      ],
      "stateMutability": "view",
      "type": "function",
      "constant": true
    },
    {
      "inputs": [],
      "name": "getWalletBalance",
      "outputs": [
        {
          "internalType": "uint256",
          "name": "balance",
          "type": "uint256"
        }
      ],
      "stateMutability": "view",
      "type": "function",
      "constant": true
    },
    {
      "inputs": [],
      "name": "getWalletCreator",
      "outputs": [
        {
          "internalType": "address",
          "name": "",
          "type": "address"
        }
      ],
      "stateMutability": "view",
      "type": "function",
      "constant": true
    },
    {
      "inputs": [],
      "name": "totalTransferRequests",
      "outputs": [
        {
          "internalType": "uint256",
          "name": "",
          "type": "uint256"
        }
      ],
      "stateMutability": "view",
      "type": "function",
      "constant": true
    }
  ],
  "bytecode": "0x608060405234801561001057600080fd5b50613022806100206000396000f3fe6080604052600436106100e85760003560e01c80636cb3e8ef1161008a578063b6af775511610059578063b6af7755146102d2578063c8ce6f3a146102fb578063d0e30db014610338578063dec3eea514610342576100e8565b80636cb3e8ef1461021457806382c96dcd1461023f57806399807e4c1461026a578063a0e67e2b146102a7576100e8565b80635c975abb116100c65780635c975abb1461016c5780635f89aacb1461019757806360b5bb3f146101c057806365386f29146101e9576100e8565b8063329a27e7146100ed5780634d3e2490146101185780634db7ce0914610143575b600080fd5b3480156100f957600080fd5b5061010261036b565b60405161010f9190612977565b60405180910390f35b34801561012457600080fd5b5061012d610373565b60405161013a9190612977565b60405180910390f35b34801561014f57600080fd5b5061016a60048036038101906101659190612228565b61037d565b005b34801561017857600080fd5b506101816107b7565b60405161018e919061271a565b60405180910390f35b3480156101a357600080fd5b506101be60048036038101906101b9919061227c565b6107ce565b005b3480156101cc57600080fd5b506101e760048036038101906101e29190612228565b61094e565b005b3480156101f557600080fd5b506101fe610a85565b60405161020b9190612977565b60405180910390f35b34801561022057600080fd5b50610229610a92565b60405161023691906126f8565b60405180910390f35b34801561024b57600080fd5b50610254610b20565b60405161026191906126b4565b60405180910390f35b34801561027657600080fd5b50610291600480360381019061028c919061227c565b610b4a565b60405161029e9190612955565b60405180910390f35b3480156102b357600080fd5b506102bc610d08565b6040516102c991906126f8565b60405180910390f35b3480156102de57600080fd5b506102f960048036038101906102f491906121e7565b610d96565b005b34801561030757600080fd5b50610322600480360381019061031d9190612180565b611184565b60405161032f9190612977565b60405180910390f35b610340611546565b005b34801561034e57600080fd5b506103696004803603810190610364919061227c565b6115c2565b005b600047905090565b6000600554905090565b600060019054906101000a900460ff16806103a3575060008054906101000a900460ff16155b6103e2576040517f08c379a00000000000000000000000000000000000000000000000000000000081526004016103d9906127d5565b60405180910390fd5b60008060019054906101000a900460ff161590508015610432576001600060016101000a81548160ff02191690831515021790555060016000806101000a81548160ff0219169083151502179055505b8251821115610476576040517f08c379a000000000000000000000000000000000000000000000000000000000815260040161046d90612815565b60405180910390fd5b60005b835181101561074d57600073ffffffffffffffffffffffffffffffffffffffff168482815181106104d3577f4e487b7100000000000000000000000000000000000000000000000000000000600052603260045260246000fd5b602002602001015173ffffffffffffffffffffffffffffffffffffffff161415610532576040517f08c379a000000000000000000000000000000000000000000000000000000000815260040161052990612835565b60405180910390fd5b6004600085838151811061056f577f4e487b7100000000000000000000000000000000000000000000000000000000600052603260045260246000fd5b602002602001015173ffffffffffffffffffffffffffffffffffffffff1673ffffffffffffffffffffffffffffffffffffffff16815260200190815260200160002060009054906101000a900460ff16156105ff576040517f08c379a00000000000000000000000000000000000000000000000000000000081526004016105f6906128b5565b60405180910390fd5b600384828151811061063a577f4e487b7100000000000000000000000000000000000000000000000000000000600052603260045260246000fd5b60200260200101519080600181540180825580915050600190039060005260206000200160009091909190916101000a81548173ffffffffffffffffffffffffffffffffffffffff021916908373ffffffffffffffffffffffffffffffffffffffff1602179055506001600460008684815181106106e1577f4e487b7100000000000000000000000000000000000000000000000000000000600052603260045260246000fd5b602002602001015173ffffffffffffffffffffffffffffffffffffffff1673ffffffffffffffffffffffffffffffffffffffff16815260200190815260200160002060006101000a81548160ff021916908315150217905550808061074590612bf8565b915050610479565b5081600581905550825160038054905014610791577f4e487b7100000000000000000000000000000000000000000000000000000000600052600160045260246000fd5b80156107b25760008060016101000a81548160ff0219169083151502179055505b505050565b6000603860009054906101000a900460ff16905090565b600260003373ffffffffffffffffffffffffffffffffffffffff1673ffffffffffffffffffffffffffffffffffffffff16815260200190815260200160002060009054906101000a900460ff1661085a576040517f08c379a000000000000000000000000000000000000000000000000000000000815260040161085190612875565b60405180910390fd5b606b8054905081106108a1576040517f08c379a000000000000000000000000000000000000000000000000000000000815260040161089890612895565b60405180910390fd5b3373ffffffffffffffffffffffffffffffffffffffff16606c600083815260200190815260200160002060009054906101000a900473ffffffffffffffffffffffffffffffffffffffff1673ffffffffffffffffffffffffffffffffffffffff1614610942576040517f08c379a000000000000000000000000000000000000000000000000000000000815260040161093990612795565b60405180910390fd5b61094b81611a07565b50565b600060019054906101000a900460ff1680610974575060008054906101000a900460ff16155b6109b3576040517f08c379a00000000000000000000000000000000000000000000000000000000081526004016109aa906127d5565b60405180910390fd5b60008060019054906101000a900460ff161590508015610a03576001600060016101000a81548160ff02191690831515021790555060016000806101000a81548160ff0219169083151502179055505b610a0c83610d96565b610a16838361037d565b610a1e611b01565b33606a60006101000a81548173ffffffffffffffffffffffffffffffffffffffff021916908373ffffffffffffffffffffffffffffffffffffffff1602179055508015610a805760008060016101000a81548160ff0219169083151502179055505b505050565b6000606b80549050905090565b60606003805480602002602001604051908101604052809291908181526020018280548015610b1657602002820191906000526020600020905b8160009054906101000a900473ffffffffffffffffffffffffffffffffffffffff1673ffffffffffffffffffffffffffffffffffffffff1681526020019060010190808311610acc575b5050505050905090565b6000606a60009054906101000a900473ffffffffffffffffffffffffffffffffffffffff16905090565b610b52611f13565b606b8281548110610b8c577f4e487b7100000000000000000000000000000000000000000000000000000000600052603260045260246000fd5b90600052602060002090600602016040518060c00160405290816000820160009054906101000a900473ffffffffffffffffffffffffffffffffffffffff1673ffffffffffffffffffffffffffffffffffffffff1673ffffffffffffffffffffffffffffffffffffffff1681526020016001820160009054906101000a900473ffffffffffffffffffffffffffffffffffffffff1673ffffffffffffffffffffffffffffffffffffffff1673ffffffffffffffffffffffffffffffffffffffff168152602001600282018054610c6190612b95565b80601f0160208091040260200160405190810160405280929190818152602001828054610c8d90612b95565b8015610cda5780601f10610caf57610100808354040283529160200191610cda565b820191906000526020600020905b815481529060010190602001808311610cbd57829003601f168201915b5050505050815260200160038201548152602001600482015481526020016005820154815250509050919050565b60606001805480602002602001604051908101604052809291908181526020018280548015610d8c57602002820191906000526020600020905b8160009054906101000a900473ffffffffffffffffffffffffffffffffffffffff1673ffffffffffffffffffffffffffffffffffffffff1681526020019060010190808311610d42575b5050505050905090565b600060019054906101000a900460ff1680610dbc575060008054906101000a900460ff16155b610dfb576040517f08c379a0000000000000000000000000000000000000000000000000000000008152600401610df2906127d5565b60405180910390fd5b60008060019054906101000a900460ff161590508015610e4b576001600060016101000a81548160ff02191690831515021790555060016000806101000a81548160ff0219169083151502179055505b60005b825181101561112257600073ffffffffffffffffffffffffffffffffffffffff16838281518110610ea8577f4e487b7100000000000000000000000000000000000000000000000000000000600052603260045260246000fd5b602002602001015173ffffffffffffffffffffffffffffffffffffffff161415610f07576040517f08c379a0000000000000000000000000000000000000000000000000000000008152600401610efe90612755565b60405180910390fd5b60026000848381518110610f44577f4e487b7100000000000000000000000000000000000000000000000000000000600052603260045260246000fd5b602002602001015173ffffffffffffffffffffffffffffffffffffffff1673ffffffffffffffffffffffffffffffffffffffff16815260200190815260200160002060009054906101000a900460ff1615610fd4576040517f08c379a0000000000000000000000000000000000000000000000000000000008152600401610fcb90612735565b60405180910390fd5b600183828151811061100f577f4e487b7100000000000000000000000000000000000000000000000000000000600052603260045260246000fd5b60200260200101519080600181540180825580915050600190039060005260206000200160009091909190916101000a81548173ffffffffffffffffffffffffffffffffffffffff021916908373ffffffffffffffffffffffffffffffffffffffff1602179055506001600260008584815181106110b6577f4e487b7100000000000000000000000000000000000000000000000000000000600052603260045260246000fd5b602002602001015173ffffffffffffffffffffffffffffffffffffffff1673ffffffffffffffffffffffffffffffffffffffff16815260200190815260200160002060006101000a81548160ff021916908315150217905550808061111a90612bf8565b915050610e4e565b5081516001805490501461115f577f4e487b7100000000000000000000000000000000000000000000000000000000600052600160045260246000fd5b80156111805760008060016101000a81548160ff0219169083151502179055505b5050565b6000600260003373ffffffffffffffffffffffffffffffffffffffff1673ffffffffffffffffffffffffffffffffffffffff16815260200190815260200160002060009054906101000a900460ff16611212576040517f08c379a000000000000000000000000000000000000000000000000000000000815260040161120990612875565b60405180910390fd5b600073ffffffffffffffffffffffffffffffffffffffff168473ffffffffffffffffffffffffffffffffffffffff161415611282576040517f08c379a0000000000000000000000000000000000000000000000000000000008152600401611279906127f5565b60405180910390fd5b3073ffffffffffffffffffffffffffffffffffffffff168473ffffffffffffffffffffffffffffffffffffffff1614156112f1576040517f08c379a00000000000000000000000000000000000000000000000000000000081526004016112e890612775565b60405180910390fd5b60008211611334576040517f08c379a000000000000000000000000000000000000000000000000000000000815260040161132b906127b5565b60405180910390fd5b60006040518060c001604052803373ffffffffffffffffffffffffffffffffffffffff1681526020018673ffffffffffffffffffffffffffffffffffffffff16815260200185815260200184815260200160008152602001606b805490508152509050606b81908060018154018082558091505060019003906000526020600020906006020160009091909190915060008201518160000160006101000a81548173ffffffffffffffffffffffffffffffffffffffff021916908373ffffffffffffffffffffffffffffffffffffffff16021790555060208201518160010160006101000a81548173ffffffffffffffffffffffffffffffffffffffff021916908373ffffffffffffffffffffffffffffffffffffffff160217905550604082015181600201908051906020019061146d929190611f75565b50606082015181600301556080820151816004015560a08201518160050155505033606c60008360a00151815260200190815260200160002060006101000a81548173ffffffffffffffffffffffffffffffffffffffff021916908373ffffffffffffffffffffffffffffffffffffffff1602179055507fd9a745595b77ae886da062b1e73fe73dc45372f44854c688cb90a1d0278dc35a8160a00151826060015183602001518460000151856040015160405161152f9594939291906129c9565b60405180910390a18060a001519150509392505050565b60003411611589576040517f08c379a000000000000000000000000000000000000000000000000000000000815260040161158090612915565b60405180910390fd5b7fa1ab46d0e38f33a7b1f03853088a305927deb55c906370ff5d6d2bc732f15095346040516115b89190612977565b60405180910390a1565b600460003373ffffffffffffffffffffffffffffffffffffffff1673ffffffffffffffffffffffffffffffffffffffff16815260200190815260200160002060009054906101000a900460ff1661164e576040517f08c379a000000000000000000000000000000000000000000000000000000000815260040161164590612935565b60405180910390fd5b606b805490508110611695576040517f08c379a000000000000000000000000000000000000000000000000000000000815260040161168c90612895565b60405180910390fd5b6000606b82815481106116d1577f4e487b7100000000000000000000000000000000000000000000000000000000600052603260045260246000fd5b90600052602060002090600602016003015411611723576040517f08c379a000000000000000000000000000000000000000000000000000000000815260040161171a906128f5565b60405180910390fd5b60011515606d60003373ffffffffffffffffffffffffffffffffffffffff1673ffffffffffffffffffffffffffffffffffffffff168152602001908152602001600020600083815260200190815260200160002060009054906101000a900460ff16151514156117c8576040517f08c379a00000000000000000000000000000000000000000000000000000000081526004016117bf906128d5565b60405180910390fd5b606b8181548110611802577f4e487b7100000000000000000000000000000000000000000000000000000000600052603260045260246000fd5b906000526020600020906006020160030154471015611856576040517f08c379a000000000000000000000000000000000000000000000000000000000815260040161184d90612855565b60405180910390fd5b6001606d60003373ffffffffffffffffffffffffffffffffffffffff1673ffffffffffffffffffffffffffffffffffffffff168152602001908152602001600020600083815260200190815260200160002060006101000a81548160ff021916908315150217905550606b81815481106118f9577f4e487b7100000000000000000000000000000000000000000000000000000000600052603260045260246000fd5b9060005260206000209060060201600401600081548092919061191b90612bf8565b91905055507f785e7b1da6f3e7ca30112843e74578b1bd80f14fd4de36b7007dcd5a8b48df4c81606b838154811061197c577f4e487b7100000000000000000000000000000000000000000000000000000000600052603260045260246000fd5b9060005260206000209060060201600401543360405161199e93929190612992565b60405180910390a1600554606b82815481106119e3577f4e487b7100000000000000000000000000000000000000000000000000000000600052603260045260246000fd5b90600052602060002090600602016004015410611a0457611a0381611bea565b5b50565b606b8181548110611a41577f4e487b7100000000000000000000000000000000000000000000000000000000600052603260045260246000fd5b9060005260206000209060060201600080820160006101000a81549073ffffffffffffffffffffffffffffffffffffffff02191690556001820160006101000a81549073ffffffffffffffffffffffffffffffffffffffff0219169055600282016000611aae9190611ffb565b6003820160009055600482016000905560058201600090555050606c600082815260200190815260200160002060006101000a81549073ffffffffffffffffffffffffffffffffffffffff021916905550565b600060019054906101000a900460ff1680611b27575060008054906101000a900460ff16155b611b66576040517f08c379a0000000000000000000000000000000000000000000000000000000008152600401611b5d906127d5565b60405180910390fd5b60008060019054906101000a900460ff161590508015611bb6576001600060016101000a81548160ff02191690831515021790555060016000806101000a81548160ff0219169083151502179055505b611bbe611cfb565b611bc6611dd4565b8015611be75760008060016101000a81548160ff0219169083151502179055505b50565b6000606b8281548110611c26577f4e487b7100000000000000000000000000000000000000000000000000000000600052603260045260246000fd5b906000526020600020906006020160010160009054906101000a900473ffffffffffffffffffffffffffffffffffffffff1690506000606b8381548110611c96577f4e487b7100000000000000000000000000000000000000000000000000000000600052603260045260246000fd5b9060005260206000209060060201600301549050611cb383611a07565b611cbd8282611ec8565b7f8aa89c45e00b1dc8befa3736e4d341042a1cd0021a629920526985a6028f75258282604051611cee9291906126cf565b60405180910390a1505050565b600060019054906101000a900460ff1680611d21575060008054906101000a900460ff16155b611d60576040517f08c379a0000000000000000000000000000000000000000000000000000000008152600401611d57906127d5565b60405180910390fd5b60008060019054906101000a900460ff161590508015611db0576001600060016101000a81548160ff02191690831515021790555060016000806101000a81548160ff0219169083151502179055505b8015611dd15760008060016101000a81548160ff0219169083151502179055505b50565b600060019054906101000a900460ff1680611dfa575060008054906101000a900460ff16155b611e39576040517f08c379a0000000000000000000000000000000000000000000000000000000008152600401611e30906127d5565b60405180910390fd5b60008060019054906101000a900460ff161590508015611e89576001600060016101000a81548160ff02191690831515021790555060016000806101000a81548160ff0219169083151502179055505b6000603860006101000a81548160ff0219169083151502179055508015611ec55760008060016101000a81548160ff0219169083151502179055505b50565b8173ffffffffffffffffffffffffffffffffffffffff166108fc829081150290604051600060405180830381858888f19350505050158015611f0e573d6000803e3d6000fd5b505050565b6040518060c00160405280600073ffffffffffffffffffffffffffffffffffffffff168152602001600073ffffffffffffffffffffffffffffffffffffffff168152602001606081526020016000815260200160008152602001600081525090565b828054611f8190612b95565b90600052602060002090601f016020900481019282611fa35760008555611fea565b82601f10611fbc57805160ff1916838001178555611fea565b82800160010185558215611fea579182015b82811115611fe9578251825591602001919060010190611fce565b5b509050611ff7919061203b565b5090565b50805461200790612b95565b6000825580601f106120195750612038565b601f016020900490600052602060002090810190612037919061203b565b5b50565b5b8082111561205457600081600090555060010161203c565b5090565b600061206b61206684612a48565b612a23565b9050808382526020820190508285602086028201111561208a57600080fd5b60005b858110156120ba57816120a08882612102565b84526020840193506020830192505060018101905061208d565b5050509392505050565b60006120d76120d284612a74565b612a23565b9050828152602081018484840111156120ef57600080fd5b6120fa848285612b53565b509392505050565b60008135905061211181612fbe565b92915050565b600082601f83011261212857600080fd5b8135612138848260208601612058565b91505092915050565b600082601f83011261215257600080fd5b81356121628482602086016120c4565b91505092915050565b60008135905061217a81612fd5565b92915050565b60008060006060848603121561219557600080fd5b60006121a386828701612102565b935050602084013567ffffffffffffffff8111156121c057600080fd5b6121cc86828701612141565b92505060406121dd8682870161216b565b9150509250925092565b6000602082840312156121f957600080fd5b600082013567ffffffffffffffff81111561221357600080fd5b61221f84828501612117565b91505092915050565b6000806040838503121561223b57600080fd5b600083013567ffffffffffffffff81111561225557600080fd5b61226185828601612117565b92505060206122728582860161216b565b9150509250929050565b60006020828403121561228e57600080fd5b600061229c8482850161216b565b91505092915050565b60006122b183836122bd565b60208301905092915050565b6122c681612b0b565b82525050565b6122d581612b0b565b82525050565b60006122e682612ab5565b6122f08185612ad8565b93506122fb83612aa5565b8060005b8381101561232c57815161231388826122a5565b975061231e83612acb565b9250506001810190506122ff565b5085935050505092915050565b61234281612b1d565b82525050565b600061235382612ac0565b61235d8185612ae9565b935061236d818560208601612b62565b61237681612cce565b840191505092915050565b600061238c82612ac0565b6123968185612afa565b93506123a6818560208601612b62565b6123af81612cce565b840191505092915050565b60006123c7601883612afa565b91506123d282612cdf565b602082019050919050565b60006123ea601583612afa565b91506123f582612d08565b602082019050919050565b600061240d601983612afa565b915061241882612d31565b602082019050919050565b6000612430601583612afa565b915061243b82612d5a565b602082019050919050565b6000612453601583612afa565b915061245e82612d83565b602082019050919050565b6000612476602e83612afa565b915061248182612dac565b604082019050919050565b6000612499601783612afa565b91506124a482612dfb565b602082019050919050565b60006124bc601e83612afa565b91506124c782612e24565b602082019050919050565b60006124df601783612afa565b91506124ea82612e4d565b602082019050919050565b6000612502601f83612afa565b915061250d82612e76565b602082019050919050565b6000612525600d83612afa565b915061253082612e9f565b602082019050919050565b6000612548601383612afa565b915061255382612ec8565b602082019050919050565b600061256b601b83612afa565b915061257682612ef1565b602082019050919050565b600061258e601783612afa565b915061259982612f1a565b602082019050919050565b60006125b1601783612afa565b91506125bc82612f43565b602082019050919050565b60006125d4601983612afa565b91506125df82612f6c565b602082019050919050565b60006125f7601083612afa565b915061260282612f95565b602082019050919050565b600060c08301600083015161262560008601826122bd565b50602083015161263860208601826122bd565b50604083015184820360408601526126508282612348565b91505060608301516126656060860182612696565b5060808301516126786080860182612696565b5060a083015161268b60a0860182612696565b508091505092915050565b61269f81612b49565b82525050565b6126ae81612b49565b82525050565b60006020820190506126c960008301846122cc565b92915050565b60006040820190506126e460008301856122cc565b6126f160208301846126a5565b9392505050565b6000602082019050818103600083015261271281846122db565b905092915050565b600060208201905061272f6000830184612339565b92915050565b6000602082019050818103600083015261274e816123ba565b9050919050565b6000602082019050818103600083015261276e816123dd565b9050919050565b6000602082019050818103600083015261278e81612400565b9050919050565b600060208201905081810360008301526127ae81612423565b9050919050565b600060208201905081810360008301526127ce81612446565b9050919050565b600060208201905081810360008301526127ee81612469565b9050919050565b6000602082019050818103600083015261280e8161248c565b9050919050565b6000602082019050818103600083015261282e816124af565b9050919050565b6000602082019050818103600083015261284e816124d2565b9050919050565b6000602082019050818103600083015261286e816124f5565b9050919050565b6000602082019050818103600083015261288e81612518565b9050919050565b600060208201905081810360008301526128ae8161253b565b9050919050565b600060208201905081810360008301526128ce8161255e565b9050919050565b600060208201905081810360008301526128ee81612581565b9050919050565b6000602082019050818103600083015261290e816125a4565b9050919050565b6000602082019050818103600083015261292e816125c7565b9050919050565b6000602082019050818103600083015261294e816125ea565b9050919050565b6000602082019050818103600083015261296f818461260d565b905092915050565b600060208201905061298c60008301846126a5565b92915050565b60006060820190506129a760008301866126a5565b6129b460208301856126a5565b6129c160408301846122cc565b949350505050565b600060a0820190506129de60008301886126a5565b6129eb60208301876126a5565b6129f860408301866122cc565b612a0560608301856122cc565b8181036080830152612a178184612381565b90509695505050505050565b6000612a2d612a3e565b9050612a398282612bc7565b919050565b6000604051905090565b600067ffffffffffffffff821115612a6357612a62612c9f565b5b602082029050602081019050919050565b600067ffffffffffffffff821115612a8f57612a8e612c9f565b5b612a9882612cce565b9050602081019050919050565b6000819050602082019050919050565b600081519050919050565b600081519050919050565b6000602082019050919050565b600082825260208201905092915050565b600082825260208201905092915050565b600082825260208201905092915050565b6000612b1682612b29565b9050919050565b60008115159050919050565b600073ffffffffffffffffffffffffffffffffffffffff82169050919050565b6000819050919050565b82818337600083830152505050565b60005b83811015612b80578082015181840152602081019050612b65565b83811115612b8f576000848401525b50505050565b60006002820490506001821680612bad57607f821691505b60208210811415612bc157612bc0612c70565b5b50919050565b612bd082612cce565b810181811067ffffffffffffffff82111715612bef57612bee612c9f565b5b80604052505050565b6000612c0382612b49565b91507fffffffffffffffffffffffffffffffffffffffffffffffffffffffffffffffff821415612c3657612c35612c41565b5b600182019050919050565b7f4e487b7100000000000000000000000000000000000000000000000000000000600052601160045260246000fd5b7f4e487b7100000000000000000000000000000000000000000000000000000000600052602260045260246000fd5b7f4e487b7100000000000000000000000000000000000000000000000000000000600052604160045260246000fd5b6000601f19601f8301169050919050565b7f4475706c6963617465206f776e65722061646472657373210000000000000000600082015250565b7f4f776e6572207769746820302061646472657373210000000000000000000000600082015250565b7f526563697065696e7420697320746869732077616c6c65742100000000000000600082015250565b7f4e6f74207472616e736665722063726561746f72210000000000000000000000600082015250565b7f5472616e7366657220616d6f756e742069732030210000000000000000000000600082015250565b7f496e697469616c697a61626c653a20636f6e747261637420697320616c72656160008201527f647920696e697469616c697a6564000000000000000000000000000000000000602082015250565b7f526563697069656e742069732061646472657373203021000000000000000000600082015250565b7f4d696e696d756d20617070726f76616c73203e20617070726f76657273210000600082015250565b7f417070726f766572206861732030206164647265737321000000000000000000600082015250565b7f496e73756666696369656e742066756e647320666f72207061796d656e742100600082015250565b7f4e6f7420616e206f776e65722100000000000000000000000000000000000000600082015250565b7f4e6f207375636820726571756573742069642100000000000000000000000000600082015250565b7f4475706c696361746520617070726f7665722061646472657373210000000000600082015250565b7f416c726561647920676976656e20617070726f76616c21000000000000000000600082015250565b7f4e6f207472616e7366657220746f20617070726f766521000000000000000000600082015250565b7f4e6f2066756e64732073656e7420746f206465706f7369742100000000000000600082015250565b7f4e6f7420616e20617070726f7665722100000000000000000000000000000000600082015250565b612fc781612b0b565b8114612fd257600080fd5b50565b612fde81612b49565b8114612fe957600080fd5b5056fea264697066735822122067e54ecc67d25ee3abd171322b657aaac843363a5183285a68b207c183e323a264736f6c63430008040033",
  "immutableReferences": {},
  "source": "// SPDX-License-Identifier: MIT\npragma solidity 0.8.4;\n\nimport \"../node_modules/@openzeppelin/contracts-upgradeable/security/PausableUpgradeable.sol\";\n//import \"../node_modules/@openzeppelin/contracts-upgradeable/proxy/utils/Initializable.sol\";\n\nimport \"./MultiOwnable.sol\";\nimport \"./Approvable.sol\";\n\ncontract MultiSigWallet is MultiOwnable, Approvable, PausableUpgradeable {\n\n    // STATE VARIABLES\n    address internal _walletCreator;\n\n    struct TxRequest {\n        address requestor;\n        address recipient;\n        string reason;\n        uint amount;\n        uint approvals;\n        uint id;    // request id\n    }\n    \n    TxRequest[] internal _txRequests;  // array's index == request id\n    mapping (uint => address) internal _txRequestors;\n    mapping (address => mapping (uint => bool)) internal _txApprovals;\n        // approver => (requestId => approval?)\n    \n    event DepositReceived(uint amount); \n    event TxRequestCreated(\n        uint id,\n        uint amount,\n        address to,\n        address requestor,\n        string reason\n    );\n    event TxApprovalGiven(uint id, uint approvals, address lastApprover);\n    event TransferSent(address to, uint amount); \n\n    // FUNCTIONS\n    // Public & External functions\n    \n    function initialize(address[] memory owners, uint minTxApprovals)\n        public\n        virtual\n        // override\n        initializer\n    {\n        // MultiOwnable.initialize(owners);\n        // Approvable.initialize(owners, minTxApprovals);\n        MultiOwnable.initializeMultiOwnable(owners);\n        Approvable.initializeApprovable(owners, minTxApprovals);\n        PausableUpgradeable.__Pausable_init();\n\n        _walletCreator = msg.sender;\n    }\n    \n    \n    function deposit() external payable {\n        require (msg.value > 0, \"No funds sent to deposit!\");\n        emit DepositReceived(msg.value);\n    }\n    \n        \n    function createTransferRequest(\n        address toAddress,\n        string memory reason,\n        uint amountWei\n    )\n        public\n        onlyAnOwner\n        returns (uint txId)\n    {\n        require(toAddress != address(0), \"Recipient is address 0!\");\n        require(toAddress != address(this), \"Recipeint is this wallet!\");\n        require(amountWei > 0, \"Transfer amount is 0!\");\n        \n        TxRequest memory newRequest =\n            TxRequest(\n                msg.sender,\n                toAddress,\n                reason,\n                amountWei,\n                0,\n                _txRequests.length\n            );\n\n        _txRequests.push(newRequest);\n        _txRequestors[newRequest.id] = msg.sender;\n        \n        emit TxRequestCreated(\n            newRequest.id,\n            newRequest.amount,\n            newRequest.recipient,\n            newRequest.requestor,\n            newRequest.reason);\n\n        return newRequest.id;\n    }\n    \n\n    function approveTransferRequest(uint requestId)\n        public\n        onlyAnApprover\n    {\n        require(requestId < _txRequests.length, \"No such request id!\");\n        require(_txRequests[requestId].amount > 0, \"No transfer to approve!\");\n        require(\n            _txApprovals[msg.sender][requestId] != true,\n            \"Already given approval!\"\n        );\n        require(\n            address(this).balance >= _txRequests[requestId].amount,\n            \"Insufficient funds for payment!\"\n        ); // NB.Gas cost not accounted for\n\n        _txApprovals[msg.sender][requestId] = true;\n        _txRequests[requestId].approvals++;\n        \n        emit TxApprovalGiven(requestId, _txRequests[requestId].approvals, msg.sender);\n        \n        if (_txRequests[requestId].approvals >= _minApprovals) {\n            _makeApprovedTransfer(requestId);\n        }\n    }\n    \n    \n    function cancelTransferRequest(uint requestId) public onlyAnOwner {\n        require(requestId < _txRequests.length, \"No such request id!\");\n        require(\n            _txRequestors[requestId] == msg.sender,\n            \"Not transfer creator!\"\n        );\n        _deleteTransferRequest(requestId);\n    }\n    \n\n    // Internal and private functions\n    \n    function _deleteTransferRequest(uint requestId) internal {\n        delete _txRequests[requestId];\n        delete _txRequestors[requestId];\n    }\n    \n    \n    function _makeApprovedTransfer(uint requestId) internal {\n        address sendTo = _txRequests[requestId].recipient;\n        uint amountInWei = _txRequests[requestId].amount;\n        _deleteTransferRequest(requestId);\n\n        _transfer(sendTo, amountInWei);\n            \n        emit TransferSent(sendTo, amountInWei);\n    }\n            \n    \n    function _transfer(address sendTo, uint amountInWei) internal {\n        // address payable to = address(uint160(sendTo));\n        // to.transfer(amountInWei);\n        payable(sendTo).transfer(amountInWei);\n    }\n    \n\n    // Functions for Developer testing \n\n    function getTransferRequest(uint id)\n        public\n        view\n        returns (TxRequest memory transferRequest)\n    {\n        return _txRequests[id];\n    }\n    \n    function getWalletBalance() public view returns (uint balance) {\n        return address(this).balance;\n    }\n    \n    function getWalletCreator() public view returns (address) {\n        return _walletCreator;\n    }\n    \n    function totalTransferRequests() public view returns (uint) {\n        return _txRequests.length; // Includes cancelled & approved requests\n    }\n\n}",
  "sourcePath": "/Users/Mark/Documents/BlockChain/IvanOnTechAcademy/Bootcamp/Upgradeable MultiSig Wallet/contracts/MultiSigWallet.sol",
  "compiler": {
    "name": "solc",
    "version": "0.8.4+commit.c7e474f2.Emscripten.clang"
  },
  "schemaVersion": "3.4.1",
  "updatedAt": "2021-06-15T22:48:05.718Z",
  "networkType": "ethereum",
  "devdoc": {
    "kind": "dev",
    "methods": {
      "paused()": {
        "details": "Returns true if the contract is paused, and false otherwise."
      }
    },
    "version": 1
  },
  "userdoc": {
    "kind": "user",
    "methods": {},
    "version": 1
  }
}