{
  "contractName": "MultiSigWalletV2",
  "abi": [
    {
      "anonymous": false,
      "inputs": [
        {
          "indexed": false,
          "internalType": "uint256",
          "name": "amount",
          "type": "uint256"
        }
      ],
      "name": "DepositReceived",
      "type": "event"
    },
    {
      "anonymous": false,
      "inputs": [
        {
          "indexed": false,
          "internalType": "address",
          "name": "to",
          "type": "address"
        },
        {
          "indexed": false,
          "internalType": "uint256",
          "name": "amount",
          "type": "uint256"
        }
      ],
      "name": "TransferSent",
      "type": "event"
    },
    {
      "anonymous": false,
      "inputs": [
        {
          "indexed": false,
          "internalType": "uint256",
          "name": "id",
          "type": "uint256"
        },
        {
          "indexed": false,
          "internalType": "uint256",
          "name": "approvals",
          "type": "uint256"
        },
        {
          "indexed": false,
          "internalType": "address",
          "name": "lastApprover",
          "type": "address"
        }
      ],
      "name": "TxApprovalGiven",
      "type": "event"
    },
    {
      "anonymous": false,
      "inputs": [
        {
          "indexed": false,
          "internalType": "uint256",
          "name": "id",
          "type": "uint256"
        },
        {
          "indexed": false,
          "internalType": "uint256",
          "name": "amount",
          "type": "uint256"
        },
        {
          "indexed": false,
          "internalType": "address",
          "name": "to",
          "type": "address"
        },
        {
          "indexed": false,
          "internalType": "address",
          "name": "requestor",
          "type": "address"
        },
        {
          "indexed": false,
          "internalType": "string",
          "name": "reason",
          "type": "string"
        }
      ],
      "name": "TxRequestCreated",
      "type": "event"
    },
    {
      "inputs": [],
      "name": "getApprovers",
      "outputs": [
        {
          "internalType": "address[]",
          "name": "approvers",
          "type": "address[]"
        }
      ],
      "stateMutability": "view",
      "type": "function"
    },
    {
      "inputs": [],
      "name": "getMinApprovals",
      "outputs": [
        {
          "internalType": "uint256",
          "name": "",
          "type": "uint256"
        }
      ],
      "stateMutability": "view",
      "type": "function"
    },
    {
      "inputs": [],
      "name": "getOwners",
      "outputs": [
        {
          "internalType": "address[]",
          "name": "owners",
          "type": "address[]"
        }
      ],
      "stateMutability": "view",
      "type": "function"
    },
    {
      "inputs": [
        {
          "internalType": "address[]",
          "name": "approvers",
          "type": "address[]"
        },
        {
          "internalType": "uint256",
          "name": "minApprovals",
          "type": "uint256"
        }
      ],
      "name": "initializeApprovable",
      "outputs": [],
      "stateMutability": "nonpayable",
      "type": "function"
    },
    {
      "inputs": [
        {
          "internalType": "address[]",
          "name": "owners",
          "type": "address[]"
        }
      ],
      "name": "initializeMultiOwnable",
      "outputs": [],
      "stateMutability": "nonpayable",
      "type": "function"
    },
    {
      "inputs": [
        {
          "internalType": "address[]",
          "name": "owners",
          "type": "address[]"
        },
        {
          "internalType": "uint256",
          "name": "minTxApprovals",
          "type": "uint256"
        }
      ],
      "name": "initialize",
      "outputs": [],
      "stateMutability": "nonpayable",
      "type": "function"
    },
    {
      "inputs": [],
      "name": "deposit",
      "outputs": [],
      "stateMutability": "payable",
      "type": "function"
    },
    {
      "inputs": [
        {
          "internalType": "address",
          "name": "toAddress",
          "type": "address"
        },
        {
          "internalType": "string",
          "name": "reason",
          "type": "string"
        },
        {
          "internalType": "uint256",
          "name": "amountWei",
          "type": "uint256"
        }
      ],
      "name": "createTransferRequest",
      "outputs": [
        {
          "internalType": "uint256",
          "name": "txId",
          "type": "uint256"
        }
      ],
      "stateMutability": "nonpayable",
      "type": "function"
    },
    {
      "inputs": [
        {
          "internalType": "uint256",
          "name": "requestId",
          "type": "uint256"
        }
      ],
      "name": "approveTransferRequest",
      "outputs": [],
      "stateMutability": "nonpayable",
      "type": "function"
    },
    {
      "inputs": [
        {
          "internalType": "uint256",
          "name": "requestId",
          "type": "uint256"
        }
      ],
      "name": "cancelTransferRequest",
      "outputs": [],
      "stateMutability": "nonpayable",
      "type": "function"
    },
    {
      "inputs": [
        {
          "internalType": "uint256",
          "name": "id",
          "type": "uint256"
        }
      ],
      "name": "getTransferRequest",
      "outputs": [
        {
          "components": [
            {
              "internalType": "address",
              "name": "requestor",
              "type": "address"
            },
            {
              "internalType": "address",
              "name": "recipient",
              "type": "address"
            },
            {
              "internalType": "string",
              "name": "reason",
              "type": "string"
            },
            {
              "internalType": "uint256",
              "name": "amount",
              "type": "uint256"
            },
            {
              "internalType": "uint256",
              "name": "approvals",
              "type": "uint256"
            },
            {
              "internalType": "uint256",
              "name": "id",
              "type": "uint256"
            }
          ],
          "internalType": "struct MultiSigWalletV2.TxRequest",
          "name": "transferRequest",
          "type": "tuple"
        }
      ],
      "stateMutability": "view",
      "type": "function"
    },
    {
      "inputs": [],
      "name": "getWalletBalance",
      "outputs": [
        {
          "internalType": "uint256",
          "name": "balance",
          "type": "uint256"
        }
      ],
      "stateMutability": "view",
      "type": "function"
    },
    {
      "inputs": [],
      "name": "getWalletCreator",
      "outputs": [
        {
          "internalType": "address",
          "name": "",
          "type": "address"
        }
      ],
      "stateMutability": "view",
      "type": "function"
    },
    {
      "inputs": [],
      "name": "totalTransferRequests",
      "outputs": [
        {
          "internalType": "uint256",
          "name": "",
          "type": "uint256"
        }
      ],
      "stateMutability": "view",
      "type": "function"
    },
    {
      "inputs": [
        {
          "internalType": "uint256",
          "name": "number",
          "type": "uint256"
        }
      ],
      "name": "setWalletVersion",
      "outputs": [],
      "stateMutability": "nonpayable",
      "type": "function"
    },
    {
      "inputs": [],
      "name": "getWalletVersion",
      "outputs": [
        {
          "internalType": "uint256",
          "name": "",
          "type": "uint256"
        }
      ],
      "stateMutability": "view",
      "type": "function"
    }
  ],
  "bytecode": "0x608060405234801561001057600080fd5b50612deb806100206000396000f3fe6080604052600436106100f35760003560e01c80637f2570751161008a578063b6af775511610059578063b6af775514610306578063c8ce6f3a1461032f578063d0e30db01461036c578063dec3eea514610376576100f3565b80637f2570751461024a57806382c96dcd1461027357806399807e4c1461029e578063a0e67e2b146102db576100f3565b80635f89aacb116100c65780635f89aacb146101a257806360b5bb3f146101cb57806365386f29146101f45780636cb3e8ef1461021f576100f3565b8063192e6de5146100f8578063329a27e7146101235780634d3e24901461014e5780634db7ce0914610179575b600080fd5b34801561010457600080fd5b5061010d61039f565b60405161011a919061274c565b60405180910390f35b34801561012f57600080fd5b506101386103a9565b604051610145919061274c565b60405180910390f35b34801561015a57600080fd5b506101636103b1565b604051610170919061274c565b60405180910390f35b34801561018557600080fd5b506101a0600480360381019061019b9190612027565b6103bb565b005b3480156101ae57600080fd5b506101c960048036038101906101c4919061207b565b6107f5565b005b3480156101d757600080fd5b506101f260048036038101906101ed9190612027565b610975565b005b34801561020057600080fd5b50610209610aa4565b604051610216919061274c565b60405180910390f35b34801561022b57600080fd5b50610234610ab1565b60405161024191906124e8565b60405180910390f35b34801561025657600080fd5b50610271600480360381019061026c919061207b565b610b3f565b005b34801561027f57600080fd5b50610288610bd5565b60405161029591906124a4565b60405180910390f35b3480156102aa57600080fd5b506102c560048036038101906102c0919061207b565b610bff565b6040516102d2919061272a565b60405180910390f35b3480156102e757600080fd5b506102f0610dbd565b6040516102fd91906124e8565b60405180910390f35b34801561031257600080fd5b5061032d60048036038101906103289190611fe6565b610e4b565b005b34801561033b57600080fd5b5061035660048036038101906103519190611f7f565b611239565b604051610363919061274c565b60405180910390f35b6103746115fb565b005b34801561038257600080fd5b5061039d6004803603810190610398919061207b565b611677565b005b6000600a54905090565b600047905090565b6000600554905090565b600060019054906101000a900460ff16806103e1575060008054906101000a900460ff16155b610420576040517f08c379a0000000000000000000000000000000000000000000000000000000008152600401610417906125aa565b60405180910390fd5b60008060019054906101000a900460ff161590508015610470576001600060016101000a81548160ff02191690831515021790555060016000806101000a81548160ff0219169083151502179055505b82518211156104b4576040517f08c379a00000000000000000000000000000000000000000000000000000000081526004016104ab906125ea565b60405180910390fd5b60005b835181101561078b57600073ffffffffffffffffffffffffffffffffffffffff16848281518110610511577f4e487b7100000000000000000000000000000000000000000000000000000000600052603260045260246000fd5b602002602001015173ffffffffffffffffffffffffffffffffffffffff161415610570576040517f08c379a00000000000000000000000000000000000000000000000000000000081526004016105679061260a565b60405180910390fd5b600460008583815181106105ad577f4e487b7100000000000000000000000000000000000000000000000000000000600052603260045260246000fd5b602002602001015173ffffffffffffffffffffffffffffffffffffffff1673ffffffffffffffffffffffffffffffffffffffff16815260200190815260200160002060009054906101000a900460ff161561063d576040517f08c379a00000000000000000000000000000000000000000000000000000000081526004016106349061268a565b60405180910390fd5b6003848281518110610678577f4e487b7100000000000000000000000000000000000000000000000000000000600052603260045260246000fd5b60200260200101519080600181540180825580915050600190039060005260206000200160009091909190916101000a81548173ffffffffffffffffffffffffffffffffffffffff021916908373ffffffffffffffffffffffffffffffffffffffff16021790555060016004600086848151811061071f577f4e487b7100000000000000000000000000000000000000000000000000000000600052603260045260246000fd5b602002602001015173ffffffffffffffffffffffffffffffffffffffff1673ffffffffffffffffffffffffffffffffffffffff16815260200190815260200160002060006101000a81548160ff0219169083151502179055508080610783906129c1565b9150506104b7565b50816005819055508251600380549050146107cf577f4e487b7100000000000000000000000000000000000000000000000000000000600052600160045260246000fd5b80156107f05760008060016101000a81548160ff0219169083151502179055505b505050565b600260003373ffffffffffffffffffffffffffffffffffffffff1673ffffffffffffffffffffffffffffffffffffffff16815260200190815260200160002060009054906101000a900460ff16610881576040517f08c379a00000000000000000000000000000000000000000000000000000000081526004016108789061264a565b60405180910390fd5b60078054905081106108c8576040517f08c379a00000000000000000000000000000000000000000000000000000000081526004016108bf9061266a565b60405180910390fd5b3373ffffffffffffffffffffffffffffffffffffffff166008600083815260200190815260200160002060009054906101000a900473ffffffffffffffffffffffffffffffffffffffff1673ffffffffffffffffffffffffffffffffffffffff1614610969576040517f08c379a00000000000000000000000000000000000000000000000000000000081526004016109609061256a565b60405180910390fd5b61097281611abc565b50565b600060019054906101000a900460ff168061099b575060008054906101000a900460ff16155b6109da576040517f08c379a00000000000000000000000000000000000000000000000000000000081526004016109d1906125aa565b60405180910390fd5b60008060019054906101000a900460ff161590508015610a2a576001600060016101000a81548160ff02191690831515021790555060016000806101000a81548160ff0219169083151502179055505b610a3383610e4b565b610a3d83836103bb565b33600660006101000a81548173ffffffffffffffffffffffffffffffffffffffff021916908373ffffffffffffffffffffffffffffffffffffffff1602179055508015610a9f5760008060016101000a81548160ff0219169083151502179055505b505050565b6000600780549050905090565b60606003805480602002602001604051908101604052809291908181526020018280548015610b3557602002820191906000526020600020905b8160009054906101000a900473ffffffffffffffffffffffffffffffffffffffff1673ffffffffffffffffffffffffffffffffffffffff1681526020019060010190808311610aeb575b5050505050905090565b600260003373ffffffffffffffffffffffffffffffffffffffff1673ffffffffffffffffffffffffffffffffffffffff16815260200190815260200160002060009054906101000a900460ff16610bcb576040517f08c379a0000000000000000000000000000000000000000000000000000000008152600401610bc29061264a565b60405180910390fd5b80600a8190555050565b6000600660009054906101000a900473ffffffffffffffffffffffffffffffffffffffff16905090565b610c07611d12565b60078281548110610c41577f4e487b7100000000000000000000000000000000000000000000000000000000600052603260045260246000fd5b90600052602060002090600602016040518060c00160405290816000820160009054906101000a900473ffffffffffffffffffffffffffffffffffffffff1673ffffffffffffffffffffffffffffffffffffffff1673ffffffffffffffffffffffffffffffffffffffff1681526020016001820160009054906101000a900473ffffffffffffffffffffffffffffffffffffffff1673ffffffffffffffffffffffffffffffffffffffff1673ffffffffffffffffffffffffffffffffffffffff168152602001600282018054610d169061295e565b80601f0160208091040260200160405190810160405280929190818152602001828054610d429061295e565b8015610d8f5780601f10610d6457610100808354040283529160200191610d8f565b820191906000526020600020905b815481529060010190602001808311610d7257829003601f168201915b5050505050815260200160038201548152602001600482015481526020016005820154815250509050919050565b60606001805480602002602001604051908101604052809291908181526020018280548015610e4157602002820191906000526020600020905b8160009054906101000a900473ffffffffffffffffffffffffffffffffffffffff1673ffffffffffffffffffffffffffffffffffffffff1681526020019060010190808311610df7575b5050505050905090565b600060019054906101000a900460ff1680610e71575060008054906101000a900460ff16155b610eb0576040517f08c379a0000000000000000000000000000000000000000000000000000000008152600401610ea7906125aa565b60405180910390fd5b60008060019054906101000a900460ff161590508015610f00576001600060016101000a81548160ff02191690831515021790555060016000806101000a81548160ff0219169083151502179055505b60005b82518110156111d757600073ffffffffffffffffffffffffffffffffffffffff16838281518110610f5d577f4e487b7100000000000000000000000000000000000000000000000000000000600052603260045260246000fd5b602002602001015173ffffffffffffffffffffffffffffffffffffffff161415610fbc576040517f08c379a0000000000000000000000000000000000000000000000000000000008152600401610fb39061252a565b60405180910390fd5b60026000848381518110610ff9577f4e487b7100000000000000000000000000000000000000000000000000000000600052603260045260246000fd5b602002602001015173ffffffffffffffffffffffffffffffffffffffff1673ffffffffffffffffffffffffffffffffffffffff16815260200190815260200160002060009054906101000a900460ff1615611089576040517f08c379a00000000000000000000000000000000000000000000000000000000081526004016110809061250a565b60405180910390fd5b60018382815181106110c4577f4e487b7100000000000000000000000000000000000000000000000000000000600052603260045260246000fd5b60200260200101519080600181540180825580915050600190039060005260206000200160009091909190916101000a81548173ffffffffffffffffffffffffffffffffffffffff021916908373ffffffffffffffffffffffffffffffffffffffff16021790555060016002600085848151811061116b577f4e487b7100000000000000000000000000000000000000000000000000000000600052603260045260246000fd5b602002602001015173ffffffffffffffffffffffffffffffffffffffff1673ffffffffffffffffffffffffffffffffffffffff16815260200190815260200160002060006101000a81548160ff02191690831515021790555080806111cf906129c1565b915050610f03565b50815160018054905014611214577f4e487b7100000000000000000000000000000000000000000000000000000000600052600160045260246000fd5b80156112355760008060016101000a81548160ff0219169083151502179055505b5050565b6000600260003373ffffffffffffffffffffffffffffffffffffffff1673ffffffffffffffffffffffffffffffffffffffff16815260200190815260200160002060009054906101000a900460ff166112c7576040517f08c379a00000000000000000000000000000000000000000000000000000000081526004016112be9061264a565b60405180910390fd5b600073ffffffffffffffffffffffffffffffffffffffff168473ffffffffffffffffffffffffffffffffffffffff161415611337576040517f08c379a000000000000000000000000000000000000000000000000000000000815260040161132e906125ca565b60405180910390fd5b3073ffffffffffffffffffffffffffffffffffffffff168473ffffffffffffffffffffffffffffffffffffffff1614156113a6576040517f08c379a000000000000000000000000000000000000000000000000000000000815260040161139d9061254a565b60405180910390fd5b600082116113e9576040517f08c379a00000000000000000000000000000000000000000000000000000000081526004016113e09061258a565b60405180910390fd5b60006040518060c001604052803373ffffffffffffffffffffffffffffffffffffffff1681526020018673ffffffffffffffffffffffffffffffffffffffff168152602001858152602001848152602001600081526020016007805490508152509050600781908060018154018082558091505060019003906000526020600020906006020160009091909190915060008201518160000160006101000a81548173ffffffffffffffffffffffffffffffffffffffff021916908373ffffffffffffffffffffffffffffffffffffffff16021790555060208201518160010160006101000a81548173ffffffffffffffffffffffffffffffffffffffff021916908373ffffffffffffffffffffffffffffffffffffffff1602179055506040820151816002019080519060200190611522929190611d74565b50606082015181600301556080820151816004015560a08201518160050155505033600860008360a00151815260200190815260200160002060006101000a81548173ffffffffffffffffffffffffffffffffffffffff021916908373ffffffffffffffffffffffffffffffffffffffff1602179055507fd9a745595b77ae886da062b1e73fe73dc45372f44854c688cb90a1d0278dc35a8160a0015182606001518360200151846000015185604001516040516115e495949392919061279e565b60405180910390a18060a001519150509392505050565b6000341161163e576040517f08c379a0000000000000000000000000000000000000000000000000000000008152600401611635906126ea565b60405180910390fd5b7fa1ab46d0e38f33a7b1f03853088a305927deb55c906370ff5d6d2bc732f150953460405161166d919061274c565b60405180910390a1565b600460003373ffffffffffffffffffffffffffffffffffffffff1673ffffffffffffffffffffffffffffffffffffffff16815260200190815260200160002060009054906101000a900460ff16611703576040517f08c379a00000000000000000000000000000000000000000000000000000000081526004016116fa9061270a565b60405180910390fd5b600780549050811061174a576040517f08c379a00000000000000000000000000000000000000000000000000000000081526004016117419061266a565b60405180910390fd5b600060078281548110611786577f4e487b7100000000000000000000000000000000000000000000000000000000600052603260045260246000fd5b906000526020600020906006020160030154116117d8576040517f08c379a00000000000000000000000000000000000000000000000000000000081526004016117cf906126ca565b60405180910390fd5b60011515600960003373ffffffffffffffffffffffffffffffffffffffff1673ffffffffffffffffffffffffffffffffffffffff168152602001908152602001600020600083815260200190815260200160002060009054906101000a900460ff161515141561187d576040517f08c379a0000000000000000000000000000000000000000000000000000000008152600401611874906126aa565b60405180910390fd5b600781815481106118b7577f4e487b7100000000000000000000000000000000000000000000000000000000600052603260045260246000fd5b90600052602060002090600602016003015447101561190b576040517f08c379a00000000000000000000000000000000000000000000000000000000081526004016119029061262a565b60405180910390fd5b6001600960003373ffffffffffffffffffffffffffffffffffffffff1673ffffffffffffffffffffffffffffffffffffffff168152602001908152602001600020600083815260200190815260200160002060006101000a81548160ff021916908315150217905550600781815481106119ae577f4e487b7100000000000000000000000000000000000000000000000000000000600052603260045260246000fd5b906000526020600020906006020160040160008154809291906119d0906129c1565b91905055507f785e7b1da6f3e7ca30112843e74578b1bd80f14fd4de36b7007dcd5a8b48df4c8160078381548110611a31577f4e487b7100000000000000000000000000000000000000000000000000000000600052603260045260246000fd5b90600052602060002090600602016004015433604051611a5393929190612767565b60405180910390a160055460078281548110611a98577f4e487b7100000000000000000000000000000000000000000000000000000000600052603260045260246000fd5b90600052602060002090600602016004015410611ab957611ab881611bb6565b5b50565b60078181548110611af6577f4e487b7100000000000000000000000000000000000000000000000000000000600052603260045260246000fd5b9060005260206000209060060201600080820160006101000a81549073ffffffffffffffffffffffffffffffffffffffff02191690556001820160006101000a81549073ffffffffffffffffffffffffffffffffffffffff0219169055600282016000611b639190611dfa565b60038201600090556004820160009055600582016000905550506008600082815260200190815260200160002060006101000a81549073ffffffffffffffffffffffffffffffffffffffff021916905550565b600060078281548110611bf2577f4e487b7100000000000000000000000000000000000000000000000000000000600052603260045260246000fd5b906000526020600020906006020160010160009054906101000a900473ffffffffffffffffffffffffffffffffffffffff169050600060078381548110611c62577f4e487b7100000000000000000000000000000000000000000000000000000000600052603260045260246000fd5b9060005260206000209060060201600301549050611c7f83611abc565b611c898282611cc7565b7f8aa89c45e00b1dc8befa3736e4d341042a1cd0021a629920526985a6028f75258282604051611cba9291906124bf565b60405180910390a1505050565b8173ffffffffffffffffffffffffffffffffffffffff166108fc829081150290604051600060405180830381858888f19350505050158015611d0d573d6000803e3d6000fd5b505050565b6040518060c00160405280600073ffffffffffffffffffffffffffffffffffffffff168152602001600073ffffffffffffffffffffffffffffffffffffffff168152602001606081526020016000815260200160008152602001600081525090565b828054611d809061295e565b90600052602060002090601f016020900481019282611da25760008555611de9565b82601f10611dbb57805160ff1916838001178555611de9565b82800160010185558215611de9579182015b82811115611de8578251825591602001919060010190611dcd565b5b509050611df69190611e3a565b5090565b508054611e069061295e565b6000825580601f10611e185750611e37565b601f016020900490600052602060002090810190611e369190611e3a565b5b50565b5b80821115611e53576000816000905550600101611e3b565b5090565b6000611e6a611e658461281d565b6127f8565b90508083825260208201905082856020860282011115611e8957600080fd5b60005b85811015611eb95781611e9f8882611f01565b845260208401935060208301925050600181019050611e8c565b5050509392505050565b6000611ed6611ed184612849565b6127f8565b905082815260208101848484011115611eee57600080fd5b611ef984828561291c565b509392505050565b600081359050611f1081612d87565b92915050565b600082601f830112611f2757600080fd5b8135611f37848260208601611e57565b91505092915050565b600082601f830112611f5157600080fd5b8135611f61848260208601611ec3565b91505092915050565b600081359050611f7981612d9e565b92915050565b600080600060608486031215611f9457600080fd5b6000611fa286828701611f01565b935050602084013567ffffffffffffffff811115611fbf57600080fd5b611fcb86828701611f40565b9250506040611fdc86828701611f6a565b9150509250925092565b600060208284031215611ff857600080fd5b600082013567ffffffffffffffff81111561201257600080fd5b61201e84828501611f16565b91505092915050565b6000806040838503121561203a57600080fd5b600083013567ffffffffffffffff81111561205457600080fd5b61206085828601611f16565b925050602061207185828601611f6a565b9150509250929050565b60006020828403121561208d57600080fd5b600061209b84828501611f6a565b91505092915050565b60006120b083836120bc565b60208301905092915050565b6120c5816128e0565b82525050565b6120d4816128e0565b82525050565b60006120e58261288a565b6120ef81856128ad565b93506120fa8361287a565b8060005b8381101561212b57815161211288826120a4565b975061211d836128a0565b9250506001810190506120fe565b5085935050505092915050565b600061214382612895565b61214d81856128be565b935061215d81856020860161292b565b61216681612a97565b840191505092915050565b600061217c82612895565b61218681856128cf565b935061219681856020860161292b565b61219f81612a97565b840191505092915050565b60006121b76018836128cf565b91506121c282612aa8565b602082019050919050565b60006121da6015836128cf565b91506121e582612ad1565b602082019050919050565b60006121fd6019836128cf565b915061220882612afa565b602082019050919050565b60006122206015836128cf565b915061222b82612b23565b602082019050919050565b60006122436015836128cf565b915061224e82612b4c565b602082019050919050565b6000612266602e836128cf565b915061227182612b75565b604082019050919050565b60006122896017836128cf565b915061229482612bc4565b602082019050919050565b60006122ac601e836128cf565b91506122b782612bed565b602082019050919050565b60006122cf6017836128cf565b91506122da82612c16565b602082019050919050565b60006122f2601f836128cf565b91506122fd82612c3f565b602082019050919050565b6000612315600d836128cf565b915061232082612c68565b602082019050919050565b60006123386013836128cf565b915061234382612c91565b602082019050919050565b600061235b601b836128cf565b915061236682612cba565b602082019050919050565b600061237e6017836128cf565b915061238982612ce3565b602082019050919050565b60006123a16017836128cf565b91506123ac82612d0c565b602082019050919050565b60006123c46019836128cf565b91506123cf82612d35565b602082019050919050565b60006123e76010836128cf565b91506123f282612d5e565b602082019050919050565b600060c08301600083015161241560008601826120bc565b50602083015161242860208601826120bc565b50604083015184820360408601526124408282612138565b91505060608301516124556060860182612486565b5060808301516124686080860182612486565b5060a083015161247b60a0860182612486565b508091505092915050565b61248f81612912565b82525050565b61249e81612912565b82525050565b60006020820190506124b960008301846120cb565b92915050565b60006040820190506124d460008301856120cb565b6124e16020830184612495565b9392505050565b6000602082019050818103600083015261250281846120da565b905092915050565b60006020820190508181036000830152612523816121aa565b9050919050565b60006020820190508181036000830152612543816121cd565b9050919050565b60006020820190508181036000830152612563816121f0565b9050919050565b6000602082019050818103600083015261258381612213565b9050919050565b600060208201905081810360008301526125a381612236565b9050919050565b600060208201905081810360008301526125c381612259565b9050919050565b600060208201905081810360008301526125e38161227c565b9050919050565b600060208201905081810360008301526126038161229f565b9050919050565b60006020820190508181036000830152612623816122c2565b9050919050565b60006020820190508181036000830152612643816122e5565b9050919050565b6000602082019050818103600083015261266381612308565b9050919050565b600060208201905081810360008301526126838161232b565b9050919050565b600060208201905081810360008301526126a38161234e565b9050919050565b600060208201905081810360008301526126c381612371565b9050919050565b600060208201905081810360008301526126e381612394565b9050919050565b60006020820190508181036000830152612703816123b7565b9050919050565b60006020820190508181036000830152612723816123da565b9050919050565b6000602082019050818103600083015261274481846123fd565b905092915050565b60006020820190506127616000830184612495565b92915050565b600060608201905061277c6000830186612495565b6127896020830185612495565b61279660408301846120cb565b949350505050565b600060a0820190506127b36000830188612495565b6127c06020830187612495565b6127cd60408301866120cb565b6127da60608301856120cb565b81810360808301526127ec8184612171565b90509695505050505050565b6000612802612813565b905061280e8282612990565b919050565b6000604051905090565b600067ffffffffffffffff82111561283857612837612a68565b5b602082029050602081019050919050565b600067ffffffffffffffff82111561286457612863612a68565b5b61286d82612a97565b9050602081019050919050565b6000819050602082019050919050565b600081519050919050565b600081519050919050565b6000602082019050919050565b600082825260208201905092915050565b600082825260208201905092915050565b600082825260208201905092915050565b60006128eb826128f2565b9050919050565b600073ffffffffffffffffffffffffffffffffffffffff82169050919050565b6000819050919050565b82818337600083830152505050565b60005b8381101561294957808201518184015260208101905061292e565b83811115612958576000848401525b50505050565b6000600282049050600182168061297657607f821691505b6020821081141561298a57612989612a39565b5b50919050565b61299982612a97565b810181811067ffffffffffffffff821117156129b8576129b7612a68565b5b80604052505050565b60006129cc82612912565b91507fffffffffffffffffffffffffffffffffffffffffffffffffffffffffffffffff8214156129ff576129fe612a0a565b5b600182019050919050565b7f4e487b7100000000000000000000000000000000000000000000000000000000600052601160045260246000fd5b7f4e487b7100000000000000000000000000000000000000000000000000000000600052602260045260246000fd5b7f4e487b7100000000000000000000000000000000000000000000000000000000600052604160045260246000fd5b6000601f19601f8301169050919050565b7f4475706c6963617465206f776e65722061646472657373210000000000000000600082015250565b7f4f776e6572207769746820302061646472657373210000000000000000000000600082015250565b7f526563697065696e7420697320746869732077616c6c65742100000000000000600082015250565b7f4e6f74207472616e736665722063726561746f72210000000000000000000000600082015250565b7f5472616e7366657220616d6f756e742069732030210000000000000000000000600082015250565b7f496e697469616c697a61626c653a20636f6e747261637420697320616c72656160008201527f647920696e697469616c697a6564000000000000000000000000000000000000602082015250565b7f526563697069656e742069732061646472657373203021000000000000000000600082015250565b7f4d696e696d756d20617070726f76616c73203e20617070726f76657273210000600082015250565b7f417070726f766572206861732030206164647265737321000000000000000000600082015250565b7f496e73756666696369656e742066756e647320666f72207061796d656e742100600082015250565b7f4e6f7420616e206f776e65722100000000000000000000000000000000000000600082015250565b7f4e6f207375636820726571756573742069642100000000000000000000000000600082015250565b7f4475706c696361746520617070726f7665722061646472657373210000000000600082015250565b7f416c726561647920676976656e20617070726f76616c21000000000000000000600082015250565b7f4e6f207472616e7366657220746f20617070726f766521000000000000000000600082015250565b7f4e6f2066756e64732073656e7420746f206465706f7369742100000000000000600082015250565b7f4e6f7420616e20617070726f7665722100000000000000000000000000000000600082015250565b612d90816128e0565b8114612d9b57600080fd5b50565b612da781612912565b8114612db257600080fd5b5056fea2646970667358221220d8bfa975db0c35efbadb29093ef8f9c462dfe50f130f070c8a3681cdc639d0b564736f6c63430008040033",
  "immutableReferences": {},
  "source": "// SPDX-License-Identifier: MIT\npragma solidity 0.8.4;\n\nimport \"../node_modules/@openzeppelin/contracts/proxy/utils/Initializable.sol\";\n\nimport \"./MultiOwnable.sol\";\nimport \"./Approvable.sol\";\n\ncontract MultiSigWalletV2 is MultiOwnable, Approvable {\n\n    // STATE VARIABLES\n    address internal _walletCreator;\n\n    struct TxRequest {\n        address requestor;\n        address recipient;\n        string reason;\n        uint amount;\n        uint approvals;\n        uint id;    // request id\n    }\n    \n    TxRequest[] internal _txRequests;  // array's index == request id\n    mapping (uint => address) internal _txRequestors;\n    mapping (address => mapping (uint => bool)) internal _txApprovals;\n        // approver => (requestId => approval?)\n    \n    uint _version;    //ADDED new state variable\n\n    event DepositReceived(uint amount); \n    event TxRequestCreated(\n        uint id,\n        uint amount,\n        address to,\n        address requestor,\n        string reason\n    );\n    event TxApprovalGiven(uint id, uint approvals, address lastApprover);\n    event TransferSent(address to, uint amount); \n\n    // FUNCTIONS\n    // Public & External functions\n    \n    function initialize(address[] memory owners, uint minTxApprovals)\n        public\n        virtual\n        // override\n        initializer\n    {\n        // MultiOwnable.initialize(owners);\n        // Approvable.initialize(owners, minTxApprovals);\n        MultiOwnable.initializeMultiOwnable(owners);\n        Approvable.initializeApprovable(owners, minTxApprovals);\n        \n        _walletCreator = msg.sender;\n        // _version = 13;  // Not executed as initializer only runs once i.e. upon INITIAL contract deploy\n    }\n    \n\n    function deposit() external payable {\n        require (msg.value > 0, \"No funds sent to deposit!\");\n        emit DepositReceived(msg.value);\n    }\n    \n        \n    function createTransferRequest(\n        address toAddress,\n        string memory reason,\n        uint amountWei\n    )\n        public\n        onlyAnOwner\n        returns (uint txId)\n    {\n        require(toAddress != address(0), \"Recipient is address 0!\");\n        require(toAddress != address(this), \"Recipeint is this wallet!\");\n        require(amountWei > 0, \"Transfer amount is 0!\");\n        \n        TxRequest memory newRequest =\n            TxRequest(\n                msg.sender,\n                toAddress,\n                reason,\n                amountWei,\n                0,\n                _txRequests.length\n            );\n\n        _txRequests.push(newRequest);\n        _txRequestors[newRequest.id] = msg.sender;\n        \n        emit TxRequestCreated(\n            newRequest.id,\n            newRequest.amount,\n            newRequest.recipient,\n            newRequest.requestor,\n            newRequest.reason);\n\n        return newRequest.id;\n    }\n    \n\n    function approveTransferRequest(uint requestId)\n        public\n        onlyAnApprover\n    {\n        require(requestId < _txRequests.length, \"No such request id!\");\n        require(_txRequests[requestId].amount > 0, \"No transfer to approve!\");\n        require(\n            _txApprovals[msg.sender][requestId] != true,\n            \"Already given approval!\"\n        );\n        require(\n            address(this).balance >= _txRequests[requestId].amount,\n            \"Insufficient funds for payment!\"\n        ); // NB.Gas cost not accounted for\n\n        _txApprovals[msg.sender][requestId] = true;\n        _txRequests[requestId].approvals++;\n        \n        emit TxApprovalGiven(requestId, _txRequests[requestId].approvals, msg.sender);\n        \n        if (_txRequests[requestId].approvals >= _minApprovals) {\n            _makeApprovedTransfer(requestId);\n        }\n    }\n    \n    \n    function cancelTransferRequest(uint requestId) public onlyAnOwner {\n        require(requestId < _txRequests.length, \"No such request id!\");\n        require(\n            _txRequestors[requestId] == msg.sender,\n            \"Not transfer creator!\"\n        );\n        _deleteTransferRequest(requestId);\n    }\n    \n\n    // Internal and private functions\n    \n    function _deleteTransferRequest(uint requestId) internal {\n        delete _txRequests[requestId];\n        delete _txRequestors[requestId];\n    }\n    \n    \n    function _makeApprovedTransfer(uint requestId) internal {\n        address sendTo = _txRequests[requestId].recipient;\n        uint amountInWei = _txRequests[requestId].amount;\n        _deleteTransferRequest(requestId);\n\n        _transfer(sendTo, amountInWei);\n            \n        emit TransferSent(sendTo, amountInWei);\n    }\n            \n    \n    function _transfer(address sendTo, uint amountInWei) internal {\n        // address payable to = address(uint160(sendTo));\n        // to.transfer(amountInWei);\n        payable(sendTo).transfer(amountInWei);\n    }\n    \n\n    // Functions for Developer testing \n\n    function getTransferRequest(uint id)\n        public\n        view\n        returns (TxRequest memory transferRequest)\n    {\n        return _txRequests[id];\n    }\n    \n    function getWalletBalance() public view returns (uint balance) {\n        return address(this).balance;\n    }\n    \n    function getWalletCreator() public view returns (address) {\n        return _walletCreator;\n    }\n    \n    function totalTransferRequests() public view returns (uint) {\n        return _txRequests.length; // Includes cancelled & approved requests\n    }\n\n    function setWalletVersion(uint number) public onlyAnOwner {\n        _version = number;\n    }\n\n    function getWalletVersion() public view returns (uint) {\n        return _version;\n    }\n}",
  "sourcePath": "/Users/Mark/Documents/BlockChain/IvanOnTechAcademy/Bootcamp/Upgradeable MultiSig Wallet/contracts/MultiSigWalletV2.sol",
  "compiler": {
    "name": "solc",
    "version": "0.8.4+commit.c7e474f2.Emscripten.clang"
  },
  "schemaVersion": "3.4.1",
  "updatedAt": "2021-06-15T20:30:53.774Z",
  "devdoc": {
    "kind": "dev",
    "methods": {},
    "version": 1
  },
  "userdoc": {
    "kind": "user",
    "methods": {},
    "version": 1
  }
}