{
  "contractName": "MultiSigWallet",
  "abi": [
    {
      "anonymous": false,
      "inputs": [
        {
          "indexed": false,
          "internalType": "uint256",
          "name": "amount",
          "type": "uint256"
        }
      ],
      "name": "DepositReceived",
      "type": "event"
    },
    {
      "anonymous": false,
      "inputs": [
        {
          "indexed": false,
          "internalType": "address",
          "name": "to",
          "type": "address"
        },
        {
          "indexed": false,
          "internalType": "uint256",
          "name": "amount",
          "type": "uint256"
        }
      ],
      "name": "TransferSent",
      "type": "event"
    },
    {
      "anonymous": false,
      "inputs": [
        {
          "indexed": false,
          "internalType": "uint256",
          "name": "id",
          "type": "uint256"
        },
        {
          "indexed": false,
          "internalType": "uint256",
          "name": "approvals",
          "type": "uint256"
        },
        {
          "indexed": false,
          "internalType": "address",
          "name": "lastApprover",
          "type": "address"
        }
      ],
      "name": "TxApprovalGiven",
      "type": "event"
    },
    {
      "anonymous": false,
      "inputs": [
        {
          "indexed": false,
          "internalType": "uint256",
          "name": "id",
          "type": "uint256"
        },
        {
          "indexed": false,
          "internalType": "uint256",
          "name": "amount",
          "type": "uint256"
        },
        {
          "indexed": false,
          "internalType": "address",
          "name": "to",
          "type": "address"
        },
        {
          "indexed": false,
          "internalType": "address",
          "name": "requestor",
          "type": "address"
        },
        {
          "indexed": false,
          "internalType": "string",
          "name": "reason",
          "type": "string"
        }
      ],
      "name": "TxRequestCreated",
      "type": "event"
    },
    {
      "inputs": [],
      "name": "getApprovers",
      "outputs": [
        {
          "internalType": "address[]",
          "name": "approvers",
          "type": "address[]"
        }
      ],
      "stateMutability": "view",
      "type": "function",
      "constant": true
    },
    {
      "inputs": [],
      "name": "getMinApprovals",
      "outputs": [
        {
          "internalType": "uint256",
          "name": "",
          "type": "uint256"
        }
      ],
      "stateMutability": "view",
      "type": "function",
      "constant": true
    },
    {
      "inputs": [],
      "name": "getOwners",
      "outputs": [
        {
          "internalType": "address[]",
          "name": "owners",
          "type": "address[]"
        }
      ],
      "stateMutability": "view",
      "type": "function",
      "constant": true
    },
    {
      "inputs": [
        {
          "internalType": "address[]",
          "name": "owners",
          "type": "address[]"
        },
        {
          "internalType": "uint256",
          "name": "minTxApprovals",
          "type": "uint256"
        }
      ],
      "name": "initialize",
      "outputs": [],
      "stateMutability": "nonpayable",
      "type": "function"
    },
    {
      "inputs": [
        {
          "internalType": "address[]",
          "name": "owners",
          "type": "address[]"
        }
      ],
      "name": "initialize",
      "outputs": [],
      "stateMutability": "nonpayable",
      "type": "function"
    },
    {
      "inputs": [],
      "name": "deposit",
      "outputs": [],
      "stateMutability": "payable",
      "type": "function",
      "payable": true
    },
    {
      "inputs": [
        {
          "internalType": "address",
          "name": "toAddress",
          "type": "address"
        },
        {
          "internalType": "string",
          "name": "reason",
          "type": "string"
        },
        {
          "internalType": "uint256",
          "name": "amountWei",
          "type": "uint256"
        }
      ],
      "name": "createTransferRequest",
      "outputs": [
        {
          "internalType": "uint256",
          "name": "txId",
          "type": "uint256"
        }
      ],
      "stateMutability": "nonpayable",
      "type": "function"
    },
    {
      "inputs": [
        {
          "internalType": "uint256",
          "name": "requestId",
          "type": "uint256"
        }
      ],
      "name": "approveTransferRequest",
      "outputs": [],
      "stateMutability": "nonpayable",
      "type": "function"
    },
    {
      "inputs": [
        {
          "internalType": "uint256",
          "name": "requestId",
          "type": "uint256"
        }
      ],
      "name": "cancelTransferRequest",
      "outputs": [],
      "stateMutability": "nonpayable",
      "type": "function"
    },
    {
      "inputs": [
        {
          "internalType": "uint256",
          "name": "id",
          "type": "uint256"
        }
      ],
      "name": "getTransferRequest",
      "outputs": [
        {
          "components": [
            {
              "internalType": "address",
              "name": "requestor",
              "type": "address"
            },
            {
              "internalType": "address",
              "name": "recipient",
              "type": "address"
            },
            {
              "internalType": "string",
              "name": "reason",
              "type": "string"
            },
            {
              "internalType": "uint256",
              "name": "amount",
              "type": "uint256"
            },
            {
              "internalType": "uint256",
              "name": "approvals",
              "type": "uint256"
            },
            {
              "internalType": "uint256",
              "name": "id",
              "type": "uint256"
            }
          ],
          "internalType": "struct MultiSigWallet.TxRequest",
          "name": "transferRequest",
          "type": "tuple"
        }
      ],
      "stateMutability": "view",
      "type": "function",
      "constant": true
    },
    {
      "inputs": [],
      "name": "getWalletBalance",
      "outputs": [
        {
          "internalType": "uint256",
          "name": "balance",
          "type": "uint256"
        }
      ],
      "stateMutability": "view",
      "type": "function",
      "constant": true
    },
    {
      "inputs": [],
      "name": "getWalletCreator",
      "outputs": [
        {
          "internalType": "address",
          "name": "",
          "type": "address"
        }
      ],
      "stateMutability": "view",
      "type": "function",
      "constant": true
    },
    {
      "inputs": [],
      "name": "totalTransferRequests",
      "outputs": [
        {
          "internalType": "uint256",
          "name": "",
          "type": "uint256"
        }
      ],
      "stateMutability": "view",
      "type": "function",
      "constant": true
    }
  ],
  "bytecode": "0x608060405234801561001057600080fd5b50612c9d806100206000396000f3fe6080604052600436106100c25760003560e01c806382c96dcd1161007f578063a224cee711610059578063a224cee714610258578063c8ce6f3a14610281578063d0e30db0146102be578063dec3eea5146102c8576100c2565b806382c96dcd146101c557806399807e4c146101f0578063a0e67e2b1461022d576100c2565b8063329a27e7146100c75780634d3e2490146100f25780635f89aacb1461011d57806360b5bb3f1461014657806365386f291461016f5780636cb3e8ef1461019a575b600080fd5b3480156100d357600080fd5b506100dc6102f1565b6040516100e991906125fe565b60405180910390f35b3480156100fe57600080fd5b506101076102f9565b60405161011491906125fe565b60405180910390f35b34801561012957600080fd5b50610144600480360381019061013f9190611f2d565b610303565b005b34801561015257600080fd5b5061016d60048036038101906101689190611ed9565b610483565b005b34801561017b57600080fd5b506101846105b2565b60405161019191906125fe565b60405180910390f35b3480156101a657600080fd5b506101af6105bf565b6040516101bc919061239a565b60405180910390f35b3480156101d157600080fd5b506101da61064d565b6040516101e79190612356565b60405180910390f35b3480156101fc57600080fd5b5061021760048036038101906102129190611f2d565b610677565b60405161022491906125dc565b60405180910390f35b34801561023957600080fd5b50610242610835565b60405161024f919061239a565b60405180910390f35b34801561026457600080fd5b5061027f600480360381019061027a9190611e98565b6108c3565b005b34801561028d57600080fd5b506102a860048036038101906102a39190611e31565b610cb1565b6040516102b591906125fe565b60405180910390f35b6102c6611073565b005b3480156102d457600080fd5b506102ef60048036038101906102ea9190611f2d565b6110ef565b005b600047905090565b6000600554905090565b600260003373ffffffffffffffffffffffffffffffffffffffff1673ffffffffffffffffffffffffffffffffffffffff16815260200190815260200160002060009054906101000a900460ff1661038f576040517f08c379a0000000000000000000000000000000000000000000000000000000008152600401610386906124fc565b60405180910390fd5b60078054905081106103d6576040517f08c379a00000000000000000000000000000000000000000000000000000000081526004016103cd9061251c565b60405180910390fd5b3373ffffffffffffffffffffffffffffffffffffffff166008600083815260200190815260200160002060009054906101000a900473ffffffffffffffffffffffffffffffffffffffff1673ffffffffffffffffffffffffffffffffffffffff1614610477576040517f08c379a000000000000000000000000000000000000000000000000000000000815260040161046e9061241c565b60405180910390fd5b61048081611534565b50565b600060019054906101000a900460ff16806104a9575060008054906101000a900460ff16155b6104e8576040517f08c379a00000000000000000000000000000000000000000000000000000000081526004016104df9061245c565b60405180910390fd5b60008060019054906101000a900460ff161590508015610538576001600060016101000a81548160ff02191690831515021790555060016000806101000a81548160ff0219169083151502179055505b610541836108c3565b61054b838361162e565b33600660006101000a81548173ffffffffffffffffffffffffffffffffffffffff021916908373ffffffffffffffffffffffffffffffffffffffff16021790555080156105ad5760008060016101000a81548160ff0219169083151502179055505b505050565b6000600780549050905090565b6060600380548060200260200160405190810160405280929190818152602001828054801561064357602002820191906000526020600020905b8160009054906101000a900473ffffffffffffffffffffffffffffffffffffffff1673ffffffffffffffffffffffffffffffffffffffff16815260200190600101908083116105f9575b5050505050905090565b6000600660009054906101000a900473ffffffffffffffffffffffffffffffffffffffff16905090565b61067f611bc4565b600782815481106106b9577f4e487b7100000000000000000000000000000000000000000000000000000000600052603260045260246000fd5b90600052602060002090600602016040518060c00160405290816000820160009054906101000a900473ffffffffffffffffffffffffffffffffffffffff1673ffffffffffffffffffffffffffffffffffffffff1673ffffffffffffffffffffffffffffffffffffffff1681526020016001820160009054906101000a900473ffffffffffffffffffffffffffffffffffffffff1673ffffffffffffffffffffffffffffffffffffffff1673ffffffffffffffffffffffffffffffffffffffff16815260200160028201805461078e90612810565b80601f01602080910402602001604051908101604052809291908181526020018280546107ba90612810565b80156108075780601f106107dc57610100808354040283529160200191610807565b820191906000526020600020905b8154815290600101906020018083116107ea57829003601f168201915b5050505050815260200160038201548152602001600482015481526020016005820154815250509050919050565b606060018054806020026020016040519081016040528092919081815260200182805480156108b957602002820191906000526020600020905b8160009054906101000a900473ffffffffffffffffffffffffffffffffffffffff1673ffffffffffffffffffffffffffffffffffffffff168152602001906001019080831161086f575b5050505050905090565b600060019054906101000a900460ff16806108e9575060008054906101000a900460ff16155b610928576040517f08c379a000000000000000000000000000000000000000000000000000000000815260040161091f9061245c565b60405180910390fd5b60008060019054906101000a900460ff161590508015610978576001600060016101000a81548160ff02191690831515021790555060016000806101000a81548160ff0219169083151502179055505b60005b8251811015610c4f57600073ffffffffffffffffffffffffffffffffffffffff168382815181106109d5577f4e487b7100000000000000000000000000000000000000000000000000000000600052603260045260246000fd5b602002602001015173ffffffffffffffffffffffffffffffffffffffff161415610a34576040517f08c379a0000000000000000000000000000000000000000000000000000000008152600401610a2b906123dc565b60405180910390fd5b60026000848381518110610a71577f4e487b7100000000000000000000000000000000000000000000000000000000600052603260045260246000fd5b602002602001015173ffffffffffffffffffffffffffffffffffffffff1673ffffffffffffffffffffffffffffffffffffffff16815260200190815260200160002060009054906101000a900460ff1615610b01576040517f08c379a0000000000000000000000000000000000000000000000000000000008152600401610af8906123bc565b60405180910390fd5b6001838281518110610b3c577f4e487b7100000000000000000000000000000000000000000000000000000000600052603260045260246000fd5b60200260200101519080600181540180825580915050600190039060005260206000200160009091909190916101000a81548173ffffffffffffffffffffffffffffffffffffffff021916908373ffffffffffffffffffffffffffffffffffffffff160217905550600160026000858481518110610be3577f4e487b7100000000000000000000000000000000000000000000000000000000600052603260045260246000fd5b602002602001015173ffffffffffffffffffffffffffffffffffffffff1673ffffffffffffffffffffffffffffffffffffffff16815260200190815260200160002060006101000a81548160ff0219169083151502179055508080610c4790612873565b91505061097b565b50815160018054905014610c8c577f4e487b7100000000000000000000000000000000000000000000000000000000600052600160045260246000fd5b8015610cad5760008060016101000a81548160ff0219169083151502179055505b5050565b6000600260003373ffffffffffffffffffffffffffffffffffffffff1673ffffffffffffffffffffffffffffffffffffffff16815260200190815260200160002060009054906101000a900460ff16610d3f576040517f08c379a0000000000000000000000000000000000000000000000000000000008152600401610d36906124fc565b60405180910390fd5b600073ffffffffffffffffffffffffffffffffffffffff168473ffffffffffffffffffffffffffffffffffffffff161415610daf576040517f08c379a0000000000000000000000000000000000000000000000000000000008152600401610da69061247c565b60405180910390fd5b3073ffffffffffffffffffffffffffffffffffffffff168473ffffffffffffffffffffffffffffffffffffffff161415610e1e576040517f08c379a0000000000000000000000000000000000000000000000000000000008152600401610e15906123fc565b60405180910390fd5b60008211610e61576040517f08c379a0000000000000000000000000000000000000000000000000000000008152600401610e589061243c565b60405180910390fd5b60006040518060c001604052803373ffffffffffffffffffffffffffffffffffffffff1681526020018673ffffffffffffffffffffffffffffffffffffffff168152602001858152602001848152602001600081526020016007805490508152509050600781908060018154018082558091505060019003906000526020600020906006020160009091909190915060008201518160000160006101000a81548173ffffffffffffffffffffffffffffffffffffffff021916908373ffffffffffffffffffffffffffffffffffffffff16021790555060208201518160010160006101000a81548173ffffffffffffffffffffffffffffffffffffffff021916908373ffffffffffffffffffffffffffffffffffffffff1602179055506040820151816002019080519060200190610f9a929190611c26565b50606082015181600301556080820151816004015560a08201518160050155505033600860008360a00151815260200190815260200160002060006101000a81548173ffffffffffffffffffffffffffffffffffffffff021916908373ffffffffffffffffffffffffffffffffffffffff1602179055507fd9a745595b77ae886da062b1e73fe73dc45372f44854c688cb90a1d0278dc35a8160a00151826060015183602001518460000151856040015160405161105c959493929190612650565b60405180910390a18060a001519150509392505050565b600034116110b6576040517f08c379a00000000000000000000000000000000000000000000000000000000081526004016110ad9061259c565b60405180910390fd5b7fa1ab46d0e38f33a7b1f03853088a305927deb55c906370ff5d6d2bc732f15095346040516110e591906125fe565b60405180910390a1565b600460003373ffffffffffffffffffffffffffffffffffffffff1673ffffffffffffffffffffffffffffffffffffffff16815260200190815260200160002060009054906101000a900460ff1661117b576040517f08c379a0000000000000000000000000000000000000000000000000000000008152600401611172906125bc565b60405180910390fd5b60078054905081106111c2576040517f08c379a00000000000000000000000000000000000000000000000000000000081526004016111b99061251c565b60405180910390fd5b6000600782815481106111fe577f4e487b7100000000000000000000000000000000000000000000000000000000600052603260045260246000fd5b90600052602060002090600602016003015411611250576040517f08c379a00000000000000000000000000000000000000000000000000000000081526004016112479061257c565b60405180910390fd5b60011515600960003373ffffffffffffffffffffffffffffffffffffffff1673ffffffffffffffffffffffffffffffffffffffff168152602001908152602001600020600083815260200190815260200160002060009054906101000a900460ff16151514156112f5576040517f08c379a00000000000000000000000000000000000000000000000000000000081526004016112ec9061255c565b60405180910390fd5b6007818154811061132f577f4e487b7100000000000000000000000000000000000000000000000000000000600052603260045260246000fd5b906000526020600020906006020160030154471015611383576040517f08c379a000000000000000000000000000000000000000000000000000000000815260040161137a906124dc565b60405180910390fd5b6001600960003373ffffffffffffffffffffffffffffffffffffffff1673ffffffffffffffffffffffffffffffffffffffff168152602001908152602001600020600083815260200190815260200160002060006101000a81548160ff02191690831515021790555060078181548110611426577f4e487b7100000000000000000000000000000000000000000000000000000000600052603260045260246000fd5b9060005260206000209060060201600401600081548092919061144890612873565b91905055507f785e7b1da6f3e7ca30112843e74578b1bd80f14fd4de36b7007dcd5a8b48df4c81600783815481106114a9577f4e487b7100000000000000000000000000000000000000000000000000000000600052603260045260246000fd5b906000526020600020906006020160040154336040516114cb93929190612619565b60405180910390a160055460078281548110611510577f4e487b7100000000000000000000000000000000000000000000000000000000600052603260045260246000fd5b906000526020600020906006020160040154106115315761153081611a68565b5b50565b6007818154811061156e577f4e487b7100000000000000000000000000000000000000000000000000000000600052603260045260246000fd5b9060005260206000209060060201600080820160006101000a81549073ffffffffffffffffffffffffffffffffffffffff02191690556001820160006101000a81549073ffffffffffffffffffffffffffffffffffffffff02191690556002820160006115db9190611cac565b60038201600090556004820160009055600582016000905550506008600082815260200190815260200160002060006101000a81549073ffffffffffffffffffffffffffffffffffffffff021916905550565b600060019054906101000a900460ff1680611654575060008054906101000a900460ff16155b611693576040517f08c379a000000000000000000000000000000000000000000000000000000000815260040161168a9061245c565b60405180910390fd5b60008060019054906101000a900460ff1615905080156116e3576001600060016101000a81548160ff02191690831515021790555060016000806101000a81548160ff0219169083151502179055505b8251821115611727576040517f08c379a000000000000000000000000000000000000000000000000000000000815260040161171e9061249c565b60405180910390fd5b60005b83518110156119fe57600073ffffffffffffffffffffffffffffffffffffffff16848281518110611784577f4e487b7100000000000000000000000000000000000000000000000000000000600052603260045260246000fd5b602002602001015173ffffffffffffffffffffffffffffffffffffffff1614156117e3576040517f08c379a00000000000000000000000000000000000000000000000000000000081526004016117da906124bc565b60405180910390fd5b60046000858381518110611820577f4e487b7100000000000000000000000000000000000000000000000000000000600052603260045260246000fd5b602002602001015173ffffffffffffffffffffffffffffffffffffffff1673ffffffffffffffffffffffffffffffffffffffff16815260200190815260200160002060009054906101000a900460ff16156118b0576040517f08c379a00000000000000000000000000000000000000000000000000000000081526004016118a79061253c565b60405180910390fd5b60038482815181106118eb577f4e487b7100000000000000000000000000000000000000000000000000000000600052603260045260246000fd5b60200260200101519080600181540180825580915050600190039060005260206000200160009091909190916101000a81548173ffffffffffffffffffffffffffffffffffffffff021916908373ffffffffffffffffffffffffffffffffffffffff160217905550600160046000868481518110611992577f4e487b7100000000000000000000000000000000000000000000000000000000600052603260045260246000fd5b602002602001015173ffffffffffffffffffffffffffffffffffffffff1673ffffffffffffffffffffffffffffffffffffffff16815260200190815260200160002060006101000a81548160ff02191690831515021790555080806119f690612873565b91505061172a565b5081600581905550825160038054905014611a42577f4e487b7100000000000000000000000000000000000000000000000000000000600052600160045260246000fd5b8015611a635760008060016101000a81548160ff0219169083151502179055505b505050565b600060078281548110611aa4577f4e487b7100000000000000000000000000000000000000000000000000000000600052603260045260246000fd5b906000526020600020906006020160010160009054906101000a900473ffffffffffffffffffffffffffffffffffffffff169050600060078381548110611b14577f4e487b7100000000000000000000000000000000000000000000000000000000600052603260045260246000fd5b9060005260206000209060060201600301549050611b3183611534565b611b3b8282611b79565b7f8aa89c45e00b1dc8befa3736e4d341042a1cd0021a629920526985a6028f75258282604051611b6c929190612371565b60405180910390a1505050565b8173ffffffffffffffffffffffffffffffffffffffff166108fc829081150290604051600060405180830381858888f19350505050158015611bbf573d6000803e3d6000fd5b505050565b6040518060c00160405280600073ffffffffffffffffffffffffffffffffffffffff168152602001600073ffffffffffffffffffffffffffffffffffffffff168152602001606081526020016000815260200160008152602001600081525090565b828054611c3290612810565b90600052602060002090601f016020900481019282611c545760008555611c9b565b82601f10611c6d57805160ff1916838001178555611c9b565b82800160010185558215611c9b579182015b82811115611c9a578251825591602001919060010190611c7f565b5b509050611ca89190611cec565b5090565b508054611cb890612810565b6000825580601f10611cca5750611ce9565b601f016020900490600052602060002090810190611ce89190611cec565b5b50565b5b80821115611d05576000816000905550600101611ced565b5090565b6000611d1c611d17846126cf565b6126aa565b90508083825260208201905082856020860282011115611d3b57600080fd5b60005b85811015611d6b5781611d518882611db3565b845260208401935060208301925050600181019050611d3e565b5050509392505050565b6000611d88611d83846126fb565b6126aa565b905082815260208101848484011115611da057600080fd5b611dab8482856127ce565b509392505050565b600081359050611dc281612c39565b92915050565b600082601f830112611dd957600080fd5b8135611de9848260208601611d09565b91505092915050565b600082601f830112611e0357600080fd5b8135611e13848260208601611d75565b91505092915050565b600081359050611e2b81612c50565b92915050565b600080600060608486031215611e4657600080fd5b6000611e5486828701611db3565b935050602084013567ffffffffffffffff811115611e7157600080fd5b611e7d86828701611df2565b9250506040611e8e86828701611e1c565b9150509250925092565b600060208284031215611eaa57600080fd5b600082013567ffffffffffffffff811115611ec457600080fd5b611ed084828501611dc8565b91505092915050565b60008060408385031215611eec57600080fd5b600083013567ffffffffffffffff811115611f0657600080fd5b611f1285828601611dc8565b9250506020611f2385828601611e1c565b9150509250929050565b600060208284031215611f3f57600080fd5b6000611f4d84828501611e1c565b91505092915050565b6000611f628383611f6e565b60208301905092915050565b611f7781612792565b82525050565b611f8681612792565b82525050565b6000611f978261273c565b611fa1818561275f565b9350611fac8361272c565b8060005b83811015611fdd578151611fc48882611f56565b9750611fcf83612752565b925050600181019050611fb0565b5085935050505092915050565b6000611ff582612747565b611fff8185612770565b935061200f8185602086016127dd565b61201881612949565b840191505092915050565b600061202e82612747565b6120388185612781565b93506120488185602086016127dd565b61205181612949565b840191505092915050565b6000612069601883612781565b91506120748261295a565b602082019050919050565b600061208c601583612781565b915061209782612983565b602082019050919050565b60006120af601983612781565b91506120ba826129ac565b602082019050919050565b60006120d2601583612781565b91506120dd826129d5565b602082019050919050565b60006120f5601583612781565b9150612100826129fe565b602082019050919050565b6000612118602e83612781565b915061212382612a27565b604082019050919050565b600061213b601783612781565b915061214682612a76565b602082019050919050565b600061215e601e83612781565b915061216982612a9f565b602082019050919050565b6000612181601783612781565b915061218c82612ac8565b602082019050919050565b60006121a4601f83612781565b91506121af82612af1565b602082019050919050565b60006121c7600d83612781565b91506121d282612b1a565b602082019050919050565b60006121ea601383612781565b91506121f582612b43565b602082019050919050565b600061220d601b83612781565b915061221882612b6c565b602082019050919050565b6000612230601783612781565b915061223b82612b95565b602082019050919050565b6000612253601783612781565b915061225e82612bbe565b602082019050919050565b6000612276601983612781565b915061228182612be7565b602082019050919050565b6000612299601083612781565b91506122a482612c10565b602082019050919050565b600060c0830160008301516122c76000860182611f6e565b5060208301516122da6020860182611f6e565b50604083015184820360408601526122f28282611fea565b91505060608301516123076060860182612338565b50608083015161231a6080860182612338565b5060a083015161232d60a0860182612338565b508091505092915050565b612341816127c4565b82525050565b612350816127c4565b82525050565b600060208201905061236b6000830184611f7d565b92915050565b60006040820190506123866000830185611f7d565b6123936020830184612347565b9392505050565b600060208201905081810360008301526123b48184611f8c565b905092915050565b600060208201905081810360008301526123d58161205c565b9050919050565b600060208201905081810360008301526123f58161207f565b9050919050565b60006020820190508181036000830152612415816120a2565b9050919050565b60006020820190508181036000830152612435816120c5565b9050919050565b60006020820190508181036000830152612455816120e8565b9050919050565b600060208201905081810360008301526124758161210b565b9050919050565b600060208201905081810360008301526124958161212e565b9050919050565b600060208201905081810360008301526124b581612151565b9050919050565b600060208201905081810360008301526124d581612174565b9050919050565b600060208201905081810360008301526124f581612197565b9050919050565b60006020820190508181036000830152612515816121ba565b9050919050565b60006020820190508181036000830152612535816121dd565b9050919050565b6000602082019050818103600083015261255581612200565b9050919050565b6000602082019050818103600083015261257581612223565b9050919050565b6000602082019050818103600083015261259581612246565b9050919050565b600060208201905081810360008301526125b581612269565b9050919050565b600060208201905081810360008301526125d58161228c565b9050919050565b600060208201905081810360008301526125f681846122af565b905092915050565b60006020820190506126136000830184612347565b92915050565b600060608201905061262e6000830186612347565b61263b6020830185612347565b6126486040830184611f7d565b949350505050565b600060a0820190506126656000830188612347565b6126726020830187612347565b61267f6040830186611f7d565b61268c6060830185611f7d565b818103608083015261269e8184612023565b90509695505050505050565b60006126b46126c5565b90506126c08282612842565b919050565b6000604051905090565b600067ffffffffffffffff8211156126ea576126e961291a565b5b602082029050602081019050919050565b600067ffffffffffffffff8211156127165761271561291a565b5b61271f82612949565b9050602081019050919050565b6000819050602082019050919050565b600081519050919050565b600081519050919050565b6000602082019050919050565b600082825260208201905092915050565b600082825260208201905092915050565b600082825260208201905092915050565b600061279d826127a4565b9050919050565b600073ffffffffffffffffffffffffffffffffffffffff82169050919050565b6000819050919050565b82818337600083830152505050565b60005b838110156127fb5780820151818401526020810190506127e0565b8381111561280a576000848401525b50505050565b6000600282049050600182168061282857607f821691505b6020821081141561283c5761283b6128eb565b5b50919050565b61284b82612949565b810181811067ffffffffffffffff8211171561286a5761286961291a565b5b80604052505050565b600061287e826127c4565b91507fffffffffffffffffffffffffffffffffffffffffffffffffffffffffffffffff8214156128b1576128b06128bc565b5b600182019050919050565b7f4e487b7100000000000000000000000000000000000000000000000000000000600052601160045260246000fd5b7f4e487b7100000000000000000000000000000000000000000000000000000000600052602260045260246000fd5b7f4e487b7100000000000000000000000000000000000000000000000000000000600052604160045260246000fd5b6000601f19601f8301169050919050565b7f4475706c6963617465206f776e65722061646472657373210000000000000000600082015250565b7f4f776e6572207769746820302061646472657373210000000000000000000000600082015250565b7f526563697065696e7420697320746869732077616c6c65742100000000000000600082015250565b7f4e6f74207472616e736665722063726561746f72210000000000000000000000600082015250565b7f5472616e7366657220616d6f756e742069732030210000000000000000000000600082015250565b7f496e697469616c697a61626c653a20636f6e747261637420697320616c72656160008201527f647920696e697469616c697a6564000000000000000000000000000000000000602082015250565b7f526563697069656e742069732061646472657373203021000000000000000000600082015250565b7f4d696e696d756d20617070726f76616c73203e20617070726f76657273210000600082015250565b7f417070726f766572206861732030206164647265737321000000000000000000600082015250565b7f496e73756666696369656e742066756e647320666f72207061796d656e742100600082015250565b7f4e6f7420616e206f776e65722100000000000000000000000000000000000000600082015250565b7f4e6f207375636820726571756573742069642100000000000000000000000000600082015250565b7f4475706c696361746520617070726f7665722061646472657373210000000000600082015250565b7f416c726561647920676976656e20617070726f76616c21000000000000000000600082015250565b7f4e6f207472616e7366657220746f20617070726f766521000000000000000000600082015250565b7f4e6f2066756e64732073656e7420746f206465706f7369742100000000000000600082015250565b7f4e6f7420616e20617070726f7665722100000000000000000000000000000000600082015250565b612c4281612792565b8114612c4d57600080fd5b50565b612c59816127c4565b8114612c6457600080fd5b5056fea26469706673582212202c1414fe90e4979faa8c7f88845a7f700cb3d6400908189dbff3117fa8cf341264736f6c63430008040033",
  "immutableReferences": {},
  "source": "// SPDX-License-Identifier: MIT\npragma solidity 0.8.4;\n\nimport \"../node_modules/@openzeppelin/contracts/proxy/utils/Initializable.sol\";\n\nimport \"./MultiOwnable.sol\";\nimport \"./Approvable.sol\";\n\ncontract MultiSigWallet is MultiOwnable, Approvable {\n\n    // STATE VARIABLES\n    address internal _walletCreator;\n\n    struct TxRequest {\n        address requestor;\n        address recipient;\n        string reason;\n        uint amount;\n        uint approvals;\n        uint id;    // request id\n    }\n    \n    TxRequest[] internal _txRequests;  // array's index == request id\n    mapping (uint => address) internal _txRequestors;\n    mapping (address => mapping (uint => bool)) internal _txApprovals;\n        // approver => (requestId => approval?)\n    \n    event DepositReceived(uint amount); \n    event TxRequestCreated(\n        uint id,\n        uint amount,\n        address to,\n        address requestor,\n        string reason\n    );\n    event TxApprovalGiven(uint id, uint approvals, address lastApprover);\n    event TransferSent(address to, uint amount); \n\n    // FUNCTIONS\n    // Public & External functions\n    \n    function initialize(address[] memory owners, uint minTxApprovals)\n        public\n        virtual\n        override\n        initializer\n    {\n        MultiOwnable.initialize(owners);\n        Approvable.initialize(owners, minTxApprovals);\n\n        _walletCreator = msg.sender;\n    }\n    \n    \n    function deposit() external payable {\n        require (msg.value > 0, \"No funds sent to deposit!\");\n        emit DepositReceived(msg.value);\n    }\n    \n        \n    function createTransferRequest(\n        address toAddress,\n        string memory reason,\n        uint amountWei\n    )\n        public\n        onlyAnOwner\n        returns (uint txId)\n    {\n        require(toAddress != address(0), \"Recipient is address 0!\");\n        require(toAddress != address(this), \"Recipeint is this wallet!\");\n        require(amountWei > 0, \"Transfer amount is 0!\");\n        \n        TxRequest memory newRequest =\n            TxRequest(\n                msg.sender,\n                toAddress,\n                reason,\n                amountWei,\n                0,\n                _txRequests.length\n            );\n\n        _txRequests.push(newRequest);\n        _txRequestors[newRequest.id] = msg.sender;\n        \n        emit TxRequestCreated(\n            newRequest.id,\n            newRequest.amount,\n            newRequest.recipient,\n            newRequest.requestor,\n            newRequest.reason);\n\n        return newRequest.id;\n    }\n    \n\n    function approveTransferRequest(uint requestId)\n        public\n        onlyAnApprover\n    {\n        require(requestId < _txRequests.length, \"No such request id!\");\n        require(_txRequests[requestId].amount > 0, \"No transfer to approve!\");\n        require(\n            _txApprovals[msg.sender][requestId] != true,\n            \"Already given approval!\"\n        );\n        require(\n            address(this).balance >= _txRequests[requestId].amount,\n            \"Insufficient funds for payment!\"\n        ); // NB.Gas cost not accounted for\n\n        _txApprovals[msg.sender][requestId] = true;\n        _txRequests[requestId].approvals++;\n        \n        emit TxApprovalGiven(requestId, _txRequests[requestId].approvals, msg.sender);\n        \n        if (_txRequests[requestId].approvals >= _minApprovals) {\n            _makeApprovedTransfer(requestId);\n        }\n    }\n    \n    \n    function cancelTransferRequest(uint requestId) public onlyAnOwner {\n        require(requestId < _txRequests.length, \"No such request id!\");\n        require(\n            _txRequestors[requestId] == msg.sender,\n            \"Not transfer creator!\"\n        );\n        _deleteTransferRequest(requestId);\n    }\n    \n\n    // Internal and private functions\n    \n    function _deleteTransferRequest(uint requestId) internal {\n        delete _txRequests[requestId];\n        delete _txRequestors[requestId];\n    }\n    \n    \n    function _makeApprovedTransfer(uint requestId) internal {\n        address sendTo = _txRequests[requestId].recipient;\n        uint amountInWei = _txRequests[requestId].amount;\n        _deleteTransferRequest(requestId);\n\n        _transfer(sendTo, amountInWei);\n            \n        emit TransferSent(sendTo, amountInWei);\n    }\n            \n    \n    function _transfer(address sendTo, uint amountInWei) internal {\n        // address payable to = address(uint160(sendTo));\n        // to.transfer(amountInWei);\n        payable(sendTo).transfer(amountInWei);\n    }\n    \n\n    // Functions for Developer testing \n\n    function getTransferRequest(uint id)\n        public\n        view\n        returns (TxRequest memory transferRequest)\n    {\n        return _txRequests[id];\n    }\n    \n    function getWalletBalance() public view returns (uint balance) {\n        return address(this).balance;\n    }\n    \n    function getWalletCreator() public view returns (address) {\n        return _walletCreator;\n    }\n    \n    function totalTransferRequests() public view returns (uint) {\n        return _txRequests.length; // Includes cancelled & approved requests\n    }\n}",
  "sourcePath": "/Users/Mark/Documents/BlockChain/IvanOnTechAcademy/Bootcamp/Upgradeable MultiSig Wallet/contracts/MultiSigWallet.sol",
  "compiler": {
    "name": "solc",
    "version": "0.8.4+commit.c7e474f2.Emscripten.clang"
  },
  "schemaVersion": "3.4.1",
  "updatedAt": "2021-06-09T22:06:07.549Z",
  "networkType": "ethereum",
  "devdoc": {
    "kind": "dev",
    "methods": {},
    "version": 1
  },
  "userdoc": {
    "kind": "user",
    "methods": {},
    "version": 1
  }
}