{
  "contractName": "MultiOwnable",
  "abi": [
    {
      "inputs": [
        {
          "internalType": "address[]",
          "name": "owners",
          "type": "address[]"
        }
      ],
      "stateMutability": "nonpayable",
      "type": "constructor"
    },
    {
      "inputs": [],
      "name": "getOwners",
      "outputs": [
        {
          "internalType": "address[]",
          "name": "owners",
          "type": "address[]"
        }
      ],
      "stateMutability": "view",
      "type": "function"
    }
  ],
  "bytecode": "0x608060405234801561001057600080fd5b506040516108e03803806108e0833981810160405281019061003291906103f6565b60005b815181101561030857600073ffffffffffffffffffffffffffffffffffffffff1682828151811061008f577f4e487b7100000000000000000000000000000000000000000000000000000000600052603260045260246000fd5b602002602001015173ffffffffffffffffffffffffffffffffffffffff1614156100ee576040517f08c379a00000000000000000000000000000000000000000000000000000000081526004016100e59061049d565b60405180910390fd5b6001600083838151811061012b577f4e487b7100000000000000000000000000000000000000000000000000000000600052603260045260246000fd5b602002602001015173ffffffffffffffffffffffffffffffffffffffff1673ffffffffffffffffffffffffffffffffffffffff16815260200190815260200160002060009054906101000a900460ff16156101bb576040517f08c379a00000000000000000000000000000000000000000000000000000000081526004016101b29061047d565b60405180910390fd5b60008282815181106101f6577f4e487b7100000000000000000000000000000000000000000000000000000000600052603260045260246000fd5b60200260200101519080600181540180825580915050600190039060005260206000200160009091909190916101000a81548173ffffffffffffffffffffffffffffffffffffffff021916908373ffffffffffffffffffffffffffffffffffffffff160217905550600180600084848151811061029c577f4e487b7100000000000000000000000000000000000000000000000000000000600052603260045260246000fd5b602002602001015173ffffffffffffffffffffffffffffffffffffffff1673ffffffffffffffffffffffffffffffffffffffff16815260200190815260200160002060006101000a81548160ff02191690831515021790555080806103009061058c565b915050610035565b50805160008054905014610345577f4e487b7100000000000000000000000000000000000000000000000000000000600052600160045260246000fd5b506106ad565b600061035e610359846104e2565b6104bd565b9050808382526020820190508285602086028201111561037d57600080fd5b60005b858110156103ad578161039388826103b7565b845260208401935060208301925050600181019050610380565b5050509392505050565b6000815190506103c681610696565b92915050565b600082601f8301126103dd57600080fd5b81516103ed84826020860161034b565b91505092915050565b60006020828403121561040857600080fd5b600082015167ffffffffffffffff81111561042257600080fd5b61042e848285016103cc565b91505092915050565b600061044460188361050e565b915061044f82610644565b602082019050919050565b600061046760158361050e565b91506104728261066d565b602082019050919050565b6000602082019050818103600083015261049681610437565b9050919050565b600060208201905081810360008301526104b68161045a565b9050919050565b60006104c76104d8565b90506104d3828261055b565b919050565b6000604051905090565b600067ffffffffffffffff8211156104fd576104fc610604565b5b602082029050602081019050919050565b600082825260208201905092915050565b600061052a82610531565b9050919050565b600073ffffffffffffffffffffffffffffffffffffffff82169050919050565b6000819050919050565b61056482610633565b810181811067ffffffffffffffff8211171561058357610582610604565b5b80604052505050565b600061059782610551565b91507fffffffffffffffffffffffffffffffffffffffffffffffffffffffffffffffff8214156105ca576105c96105d5565b5b600182019050919050565b7f4e487b7100000000000000000000000000000000000000000000000000000000600052601160045260246000fd5b7f4e487b7100000000000000000000000000000000000000000000000000000000600052604160045260246000fd5b6000601f19601f8301169050919050565b7f4475706c6963617465206f776e65722061646472657373210000000000000000600082015250565b7f4f776e6572207769746820302061646472657373210000000000000000000000600082015250565b61069f8161051f565b81146106aa57600080fd5b50565b610224806106bc6000396000f3fe608060405234801561001057600080fd5b506004361061002b5760003560e01c8063a0e67e2b14610030575b600080fd5b61003861004e565b6040516100459190610161565b60405180910390f35b606060008054806020026020016040519081016040528092919081815260200182805480156100d257602002820191906000526020600020905b8160009054906101000a900473ffffffffffffffffffffffffffffffffffffffff1673ffffffffffffffffffffffffffffffffffffffff1681526020019060010190808311610088575b5050505050905090565b60006100e883836100f4565b60208301905092915050565b6100fd816101bc565b82525050565b600061010e82610193565b61011881856101ab565b935061012383610183565b8060005b8381101561015457815161013b88826100dc565b97506101468361019e565b925050600181019050610127565b5085935050505092915050565b6000602082019050818103600083015261017b8184610103565b905092915050565b6000819050602082019050919050565b600081519050919050565b6000602082019050919050565b600082825260208201905092915050565b60006101c7826101ce565b9050919050565b600073ffffffffffffffffffffffffffffffffffffffff8216905091905056fea2646970667358221220b70f34626a023b220c39ddec8269de089bb0bb6c05e93955f1860ab8a0471e9664736f6c63430008040033",
  "immutableReferences": {},
  "source": "// SPDX-License-Identifier: MIT\npragma solidity 0.8.4;\n\ncontract MultiOwnable {\n    \n    address[] internal _owners;\n    mapping (address => bool) internal _ownership;\n\n    modifier onlyAnOwner {\n        require(_ownership[msg.sender], \"Not an owner!\");\n        _;\n    }\n    \n    constructor(address[] memory owners) {\n\n        for (uint i=0; i < owners.length; i++) {\n            require(owners[i] != address(0), \"Owner with 0 address!\");\n            require(!_ownership[owners[i]], \"Duplicate owner address!\");\n            _owners.push(owners[i]);\n            _ownership[owners[i]] = true;\n        }\n        assert(_owners.length == owners.length);\n    }\n    \n    // Functions for Developer testing \n    function getOwners() external view returns (address[] memory owners){\n        return _owners;\n    }\n      \n}",
  "sourcePath": "/Users/Mark/Documents/BlockChain/IvanOnTechAcademy/Bootcamp/Upgradeable MultiSig Wallet/contracts/MultiOwnable.sol",
  "compiler": {
    "name": "solc",
    "version": "0.8.4+commit.c7e474f2.Emscripten.clang"
  },
  "schemaVersion": "3.4.0",
  "updatedAt": "2021-06-01T15:37:05.334Z",
  "devdoc": {
    "kind": "dev",
    "methods": {},
    "version": 1
  },
  "userdoc": {
    "kind": "user",
    "methods": {},
    "version": 1
  }
}