{
  "contractName": "MultiSigWallet",
  "abi": [
    {
      "inputs": [
        {
          "internalType": "address[]",
          "name": "owners",
          "type": "address[]"
        },
        {
          "internalType": "uint256",
          "name": "minTxApprovals",
          "type": "uint256"
        }
      ],
      "stateMutability": "nonpayable",
      "type": "constructor"
    },
    {
      "anonymous": false,
      "inputs": [
        {
          "indexed": false,
          "internalType": "uint256",
          "name": "amount",
          "type": "uint256"
        }
      ],
      "name": "DepositReceived",
      "type": "event"
    },
    {
      "anonymous": false,
      "inputs": [
        {
          "indexed": false,
          "internalType": "address",
          "name": "to",
          "type": "address"
        },
        {
          "indexed": false,
          "internalType": "uint256",
          "name": "amount",
          "type": "uint256"
        }
      ],
      "name": "TransferSent",
      "type": "event"
    },
    {
      "anonymous": false,
      "inputs": [
        {
          "indexed": false,
          "internalType": "uint256",
          "name": "id",
          "type": "uint256"
        },
        {
          "indexed": false,
          "internalType": "uint256",
          "name": "approvals",
          "type": "uint256"
        },
        {
          "indexed": false,
          "internalType": "address",
          "name": "lastApprover",
          "type": "address"
        }
      ],
      "name": "TxApprovalGiven",
      "type": "event"
    },
    {
      "anonymous": false,
      "inputs": [
        {
          "indexed": false,
          "internalType": "uint256",
          "name": "id",
          "type": "uint256"
        },
        {
          "indexed": false,
          "internalType": "uint256",
          "name": "amount",
          "type": "uint256"
        },
        {
          "indexed": false,
          "internalType": "address",
          "name": "to",
          "type": "address"
        },
        {
          "indexed": false,
          "internalType": "address",
          "name": "requestor",
          "type": "address"
        },
        {
          "indexed": false,
          "internalType": "string",
          "name": "reason",
          "type": "string"
        }
      ],
      "name": "TxRequestCreated",
      "type": "event"
    },
    {
      "inputs": [],
      "name": "getApprovers",
      "outputs": [
        {
          "internalType": "address[]",
          "name": "approvers",
          "type": "address[]"
        }
      ],
      "stateMutability": "view",
      "type": "function",
      "constant": true
    },
    {
      "inputs": [],
      "name": "getMinApprovals",
      "outputs": [
        {
          "internalType": "uint256",
          "name": "",
          "type": "uint256"
        }
      ],
      "stateMutability": "view",
      "type": "function",
      "constant": true
    },
    {
      "inputs": [],
      "name": "getOwners",
      "outputs": [
        {
          "internalType": "address[]",
          "name": "owners",
          "type": "address[]"
        }
      ],
      "stateMutability": "view",
      "type": "function",
      "constant": true
    },
    {
      "inputs": [],
      "name": "deposit",
      "outputs": [],
      "stateMutability": "payable",
      "type": "function",
      "payable": true
    },
    {
      "inputs": [
        {
          "internalType": "address",
          "name": "toAddress",
          "type": "address"
        },
        {
          "internalType": "string",
          "name": "reason",
          "type": "string"
        },
        {
          "internalType": "uint256",
          "name": "amountWei",
          "type": "uint256"
        }
      ],
      "name": "createTransferRequest",
      "outputs": [
        {
          "internalType": "uint256",
          "name": "txId",
          "type": "uint256"
        }
      ],
      "stateMutability": "nonpayable",
      "type": "function"
    },
    {
      "inputs": [
        {
          "internalType": "uint256",
          "name": "requestId",
          "type": "uint256"
        }
      ],
      "name": "approveTransferRequest",
      "outputs": [],
      "stateMutability": "nonpayable",
      "type": "function"
    },
    {
      "inputs": [
        {
          "internalType": "uint256",
          "name": "requestId",
          "type": "uint256"
        }
      ],
      "name": "cancelTransferRequest",
      "outputs": [],
      "stateMutability": "nonpayable",
      "type": "function"
    },
    {
      "inputs": [
        {
          "internalType": "uint256",
          "name": "id",
          "type": "uint256"
        }
      ],
      "name": "getTransferRequest",
      "outputs": [
        {
          "components": [
            {
              "internalType": "address",
              "name": "requestor",
              "type": "address"
            },
            {
              "internalType": "address",
              "name": "recipient",
              "type": "address"
            },
            {
              "internalType": "string",
              "name": "reason",
              "type": "string"
            },
            {
              "internalType": "uint256",
              "name": "amount",
              "type": "uint256"
            },
            {
              "internalType": "uint256",
              "name": "approvals",
              "type": "uint256"
            },
            {
              "internalType": "uint256",
              "name": "id",
              "type": "uint256"
            }
          ],
          "internalType": "struct MultiSigWallet.TxRequest",
          "name": "transferRequest",
          "type": "tuple"
        }
      ],
      "stateMutability": "view",
      "type": "function",
      "constant": true
    },
    {
      "inputs": [],
      "name": "getWalletBalance",
      "outputs": [
        {
          "internalType": "uint256",
          "name": "balance",
          "type": "uint256"
        }
      ],
      "stateMutability": "view",
      "type": "function",
      "constant": true
    },
    {
      "inputs": [],
      "name": "getWalletCreator",
      "outputs": [
        {
          "internalType": "address",
          "name": "",
          "type": "address"
        }
      ],
      "stateMutability": "view",
      "type": "function",
      "constant": true
    },
    {
      "inputs": [],
      "name": "totalTransferRequests",
      "outputs": [
        {
          "internalType": "uint256",
          "name": "",
          "type": "uint256"
        }
      ],
      "stateMutability": "view",
      "type": "function",
      "constant": true
    }
  ],
  "bytecode": "0x60806040523480156200001157600080fd5b5060405162002b2438038062002b248339818101604052810190620000379190620007e9565b81818360005b81518110156200031e57600073ffffffffffffffffffffffffffffffffffffffff1682828151811062000099577f4e487b7100000000000000000000000000000000000000000000000000000000600052603260045260246000fd5b602002602001015173ffffffffffffffffffffffffffffffffffffffff161415620000fb576040517f08c379a0000000000000000000000000000000000000000000000000000000008152600401620000f29062000928565b60405180910390fd5b6001600083838151811062000139577f4e487b7100000000000000000000000000000000000000000000000000000000600052603260045260246000fd5b602002602001015173ffffffffffffffffffffffffffffffffffffffff1673ffffffffffffffffffffffffffffffffffffffff16815260200190815260200160002060009054906101000a900460ff1615620001cc576040517f08c379a0000000000000000000000000000000000000000000000000000000008152600401620001c39062000906565b60405180910390fd5b600082828151811062000208577f4e487b7100000000000000000000000000000000000000000000000000000000600052603260045260246000fd5b60200260200101519080600181540180825580915050600190039060005260206000200160009091909190916101000a81548173ffffffffffffffffffffffffffffffffffffffff021916908373ffffffffffffffffffffffffffffffffffffffff1602179055506001806000848481518110620002af577f4e487b7100000000000000000000000000000000000000000000000000000000600052603260045260246000fd5b602002602001015173ffffffffffffffffffffffffffffffffffffffff1673ffffffffffffffffffffffffffffffffffffffff16815260200190815260200160002060006101000a81548160ff0219169083151502179055508080620003159062000a8d565b9150506200003d565b508051600080549050146200035c577f4e487b7100000000000000000000000000000000000000000000000000000000600052600160045260246000fd5b508151811115620003a4576040517f08c379a00000000000000000000000000000000000000000000000000000000081526004016200039b906200094a565b60405180910390fd5b60005b82518110156200068957600073ffffffffffffffffffffffffffffffffffffffff1683828151811062000403577f4e487b7100000000000000000000000000000000000000000000000000000000600052603260045260246000fd5b602002602001015173ffffffffffffffffffffffffffffffffffffffff16141562000465576040517f08c379a00000000000000000000000000000000000000000000000000000000081526004016200045c906200096c565b60405180910390fd5b60036000848381518110620004a3577f4e487b7100000000000000000000000000000000000000000000000000000000600052603260045260246000fd5b602002602001015173ffffffffffffffffffffffffffffffffffffffff1673ffffffffffffffffffffffffffffffffffffffff16815260200190815260200160002060009054906101000a900460ff161562000536576040517f08c379a00000000000000000000000000000000000000000000000000000000081526004016200052d906200098e565b60405180910390fd5b600283828151811062000572577f4e487b7100000000000000000000000000000000000000000000000000000000600052603260045260246000fd5b60200260200101519080600181540180825580915050600190039060005260206000200160009091909190916101000a81548173ffffffffffffffffffffffffffffffffffffffff021916908373ffffffffffffffffffffffffffffffffffffffff1602179055506001600360008584815181106200061a577f4e487b7100000000000000000000000000000000000000000000000000000000600052603260045260246000fd5b602002602001015173ffffffffffffffffffffffffffffffffffffffff1673ffffffffffffffffffffffffffffffffffffffff16815260200190815260200160002060006101000a81548160ff0219169083151502179055508080620006809062000a8d565b915050620003a7565b5080600481905550815160028054905014620006ce577f4e487b7100000000000000000000000000000000000000000000000000000000600052600160045260246000fd5b505033600560006101000a81548173ffffffffffffffffffffffffffffffffffffffff021916908373ffffffffffffffffffffffffffffffffffffffff160217905550505062000c4b565b6000620007306200072a84620009d9565b620009b0565b905080838252602082019050828560208602820111156200075057600080fd5b60005b858110156200078457816200076988826200078e565b84526020840193506020830192505060018101905062000753565b5050509392505050565b6000815190506200079f8162000c17565b92915050565b600082601f830112620007b757600080fd5b8151620007c984826020860162000719565b91505092915050565b600081519050620007e38162000c31565b92915050565b60008060408385031215620007fd57600080fd5b600083015167ffffffffffffffff8111156200081857600080fd5b6200082685828601620007a5565b92505060206200083985828601620007d2565b9150509250929050565b60006200085260188362000a08565b91506200085f8262000b4a565b602082019050919050565b60006200087960158362000a08565b9150620008868262000b73565b602082019050919050565b6000620008a0601e8362000a08565b9150620008ad8262000b9c565b602082019050919050565b6000620008c760178362000a08565b9150620008d48262000bc5565b602082019050919050565b6000620008ee601b8362000a08565b9150620008fb8262000bee565b602082019050919050565b60006020820190508181036000830152620009218162000843565b9050919050565b6000602082019050818103600083015262000943816200086a565b9050919050565b60006020820190508181036000830152620009658162000891565b9050919050565b600060208201905081810360008301526200098781620008b8565b9050919050565b60006020820190508181036000830152620009a981620008df565b9050919050565b6000620009bc620009cf565b9050620009ca828262000a57565b919050565b6000604051905090565b600067ffffffffffffffff821115620009f757620009f662000b0a565b5b602082029050602081019050919050565b600082825260208201905092915050565b600062000a268262000a2d565b9050919050565b600073ffffffffffffffffffffffffffffffffffffffff82169050919050565b6000819050919050565b62000a628262000b39565b810181811067ffffffffffffffff8211171562000a845762000a8362000b0a565b5b80604052505050565b600062000a9a8262000a4d565b91507fffffffffffffffffffffffffffffffffffffffffffffffffffffffffffffffff82141562000ad05762000acf62000adb565b5b600182019050919050565b7f4e487b7100000000000000000000000000000000000000000000000000000000600052601160045260246000fd5b7f4e487b7100000000000000000000000000000000000000000000000000000000600052604160045260246000fd5b6000601f19601f8301169050919050565b7f4475706c6963617465206f776e65722061646472657373210000000000000000600082015250565b7f4f776e6572207769746820302061646472657373210000000000000000000000600082015250565b7f4d696e696d756d20617070726f76616c73203e20617070726f76657273210000600082015250565b7f417070726f766572206861732030206164647265737321000000000000000000600082015250565b7f4475706c696361746520617070726f7665722061646472657373210000000000600082015250565b62000c228162000a19565b811462000c2e57600080fd5b50565b62000c3c8162000a4d565b811462000c4857600080fd5b50565b611ec98062000c5b6000396000f3fe60806040526004361061009c5760003560e01c806382c96dcd1161006457806382c96dcd1461017657806399807e4c146101a1578063a0e67e2b146101de578063c8ce6f3a14610209578063d0e30db014610246578063dec3eea5146102505761009c565b8063329a27e7146100a15780634d3e2490146100cc5780635f89aacb146100f757806365386f29146101205780636cb3e8ef1461014b575b600080fd5b3480156100ad57600080fd5b506100b6610279565b6040516100c39190611972565b60405180910390f35b3480156100d857600080fd5b506100e1610281565b6040516100ee9190611972565b60405180910390f35b34801561010357600080fd5b5061011e60048036038101906101199190611433565b61028b565b005b34801561012c57600080fd5b5061013561040b565b6040516101429190611972565b60405180910390f35b34801561015757600080fd5b50610160610418565b60405161016d91906117ce565b60405180910390f35b34801561018257600080fd5b5061018b6104a6565b604051610198919061178a565b60405180910390f35b3480156101ad57600080fd5b506101c860048036038101906101c39190611433565b6104d0565b6040516101d59190611950565b60405180910390f35b3480156101ea57600080fd5b506101f361068e565b60405161020091906117ce565b60405180910390f35b34801561021557600080fd5b50610230600480360381019061022b91906113cc565b61071c565b60405161023d9190611972565b60405180910390f35b61024e610ade565b005b34801561025c57600080fd5b5061027760048036038101906102729190611433565b610b5a565b005b600047905090565b6000600454905090565b600160003373ffffffffffffffffffffffffffffffffffffffff1673ffffffffffffffffffffffffffffffffffffffff16815260200190815260200160002060009054906101000a900460ff16610317576040517f08c379a000000000000000000000000000000000000000000000000000000000815260040161030e90611890565b60405180910390fd5b600680549050811061035e576040517f08c379a0000000000000000000000000000000000000000000000000000000008152600401610355906118b0565b60405180910390fd5b3373ffffffffffffffffffffffffffffffffffffffff166007600083815260200190815260200160002060009054906101000a900473ffffffffffffffffffffffffffffffffffffffff1673ffffffffffffffffffffffffffffffffffffffff16146103ff576040517f08c379a00000000000000000000000000000000000000000000000000000000081526004016103f690611810565b60405180910390fd5b61040881610f9f565b50565b6000600680549050905090565b6060600280548060200260200160405190810160405280929190818152602001828054801561049c57602002820191906000526020600020905b8160009054906101000a900473ffffffffffffffffffffffffffffffffffffffff1673ffffffffffffffffffffffffffffffffffffffff1681526020019060010190808311610452575b5050505050905090565b6000600560009054906101000a900473ffffffffffffffffffffffffffffffffffffffff16905090565b6104d86111f5565b60068281548110610512577f4e487b7100000000000000000000000000000000000000000000000000000000600052603260045260246000fd5b90600052602060002090600602016040518060c00160405290816000820160009054906101000a900473ffffffffffffffffffffffffffffffffffffffff1673ffffffffffffffffffffffffffffffffffffffff1673ffffffffffffffffffffffffffffffffffffffff1681526020016001820160009054906101000a900473ffffffffffffffffffffffffffffffffffffffff1673ffffffffffffffffffffffffffffffffffffffff1673ffffffffffffffffffffffffffffffffffffffff1681526020016002820180546105e790611b58565b80601f016020809104026020016040519081016040528092919081815260200182805461061390611b58565b80156106605780601f1061063557610100808354040283529160200191610660565b820191906000526020600020905b81548152906001019060200180831161064357829003601f168201915b5050505050815260200160038201548152602001600482015481526020016005820154815250509050919050565b6060600080548060200260200160405190810160405280929190818152602001828054801561071257602002820191906000526020600020905b8160009054906101000a900473ffffffffffffffffffffffffffffffffffffffff1673ffffffffffffffffffffffffffffffffffffffff16815260200190600101908083116106c8575b5050505050905090565b6000600160003373ffffffffffffffffffffffffffffffffffffffff1673ffffffffffffffffffffffffffffffffffffffff16815260200190815260200160002060009054906101000a900460ff166107aa576040517f08c379a00000000000000000000000000000000000000000000000000000000081526004016107a190611890565b60405180910390fd5b600073ffffffffffffffffffffffffffffffffffffffff168473ffffffffffffffffffffffffffffffffffffffff16141561081a576040517f08c379a000000000000000000000000000000000000000000000000000000000815260040161081190611850565b60405180910390fd5b3073ffffffffffffffffffffffffffffffffffffffff168473ffffffffffffffffffffffffffffffffffffffff161415610889576040517f08c379a0000000000000000000000000000000000000000000000000000000008152600401610880906117f0565b60405180910390fd5b600082116108cc576040517f08c379a00000000000000000000000000000000000000000000000000000000081526004016108c390611830565b60405180910390fd5b60006040518060c001604052803373ffffffffffffffffffffffffffffffffffffffff1681526020018673ffffffffffffffffffffffffffffffffffffffff168152602001858152602001848152602001600081526020016006805490508152509050600681908060018154018082558091505060019003906000526020600020906006020160009091909190915060008201518160000160006101000a81548173ffffffffffffffffffffffffffffffffffffffff021916908373ffffffffffffffffffffffffffffffffffffffff16021790555060208201518160010160006101000a81548173ffffffffffffffffffffffffffffffffffffffff021916908373ffffffffffffffffffffffffffffffffffffffff1602179055506040820151816002019080519060200190610a05929190611257565b50606082015181600301556080820151816004015560a08201518160050155505033600760008360a00151815260200190815260200160002060006101000a81548173ffffffffffffffffffffffffffffffffffffffff021916908373ffffffffffffffffffffffffffffffffffffffff1602179055507fd9a745595b77ae886da062b1e73fe73dc45372f44854c688cb90a1d0278dc35a8160a001518260600151836020015184600001518560400151604051610ac79594939291906119c4565b60405180910390a18060a001519150509392505050565b60003411610b21576040517f08c379a0000000000000000000000000000000000000000000000000000000008152600401610b1890611910565b60405180910390fd5b7fa1ab46d0e38f33a7b1f03853088a305927deb55c906370ff5d6d2bc732f1509534604051610b509190611972565b60405180910390a1565b600360003373ffffffffffffffffffffffffffffffffffffffff1673ffffffffffffffffffffffffffffffffffffffff16815260200190815260200160002060009054906101000a900460ff16610be6576040517f08c379a0000000000000000000000000000000000000000000000000000000008152600401610bdd90611930565b60405180910390fd5b6006805490508110610c2d576040517f08c379a0000000000000000000000000000000000000000000000000000000008152600401610c24906118b0565b60405180910390fd5b600060068281548110610c69577f4e487b7100000000000000000000000000000000000000000000000000000000600052603260045260246000fd5b90600052602060002090600602016003015411610cbb576040517f08c379a0000000000000000000000000000000000000000000000000000000008152600401610cb2906118f0565b60405180910390fd5b60011515600860003373ffffffffffffffffffffffffffffffffffffffff1673ffffffffffffffffffffffffffffffffffffffff168152602001908152602001600020600083815260200190815260200160002060009054906101000a900460ff1615151415610d60576040517f08c379a0000000000000000000000000000000000000000000000000000000008152600401610d57906118d0565b60405180910390fd5b60068181548110610d9a577f4e487b7100000000000000000000000000000000000000000000000000000000600052603260045260246000fd5b906000526020600020906006020160030154471015610dee576040517f08c379a0000000000000000000000000000000000000000000000000000000008152600401610de590611870565b60405180910390fd5b6001600860003373ffffffffffffffffffffffffffffffffffffffff1673ffffffffffffffffffffffffffffffffffffffff168152602001908152602001600020600083815260200190815260200160002060006101000a81548160ff02191690831515021790555060068181548110610e91577f4e487b7100000000000000000000000000000000000000000000000000000000600052603260045260246000fd5b90600052602060002090600602016004016000815480929190610eb390611bbb565b91905055507f785e7b1da6f3e7ca30112843e74578b1bd80f14fd4de36b7007dcd5a8b48df4c8160068381548110610f14577f4e487b7100000000000000000000000000000000000000000000000000000000600052603260045260246000fd5b90600052602060002090600602016004015433604051610f369392919061198d565b60405180910390a160045460068281548110610f7b577f4e487b7100000000000000000000000000000000000000000000000000000000600052603260045260246000fd5b90600052602060002090600602016004015410610f9c57610f9b81611099565b5b50565b60068181548110610fd9577f4e487b7100000000000000000000000000000000000000000000000000000000600052603260045260246000fd5b9060005260206000209060060201600080820160006101000a81549073ffffffffffffffffffffffffffffffffffffffff02191690556001820160006101000a81549073ffffffffffffffffffffffffffffffffffffffff021916905560028201600061104691906112dd565b60038201600090556004820160009055600582016000905550506007600082815260200190815260200160002060006101000a81549073ffffffffffffffffffffffffffffffffffffffff021916905550565b6000600682815481106110d5577f4e487b7100000000000000000000000000000000000000000000000000000000600052603260045260246000fd5b906000526020600020906006020160010160009054906101000a900473ffffffffffffffffffffffffffffffffffffffff169050600060068381548110611145577f4e487b7100000000000000000000000000000000000000000000000000000000600052603260045260246000fd5b906000526020600020906006020160030154905061116283610f9f565b61116c82826111aa565b7f8aa89c45e00b1dc8befa3736e4d341042a1cd0021a629920526985a6028f7525828260405161119d9291906117a5565b60405180910390a1505050565b8173ffffffffffffffffffffffffffffffffffffffff166108fc829081150290604051600060405180830381858888f193505050501580156111f0573d6000803e3d6000fd5b505050565b6040518060c00160405280600073ffffffffffffffffffffffffffffffffffffffff168152602001600073ffffffffffffffffffffffffffffffffffffffff168152602001606081526020016000815260200160008152602001600081525090565b82805461126390611b58565b90600052602060002090601f01602090048101928261128557600085556112cc565b82601f1061129e57805160ff19168380011785556112cc565b828001600101855582156112cc579182015b828111156112cb5782518255916020019190600101906112b0565b5b5090506112d9919061131d565b5090565b5080546112e990611b58565b6000825580601f106112fb575061131a565b601f016020900490600052602060002090810190611319919061131d565b5b50565b5b8082111561133657600081600090555060010161131e565b5090565b600061134d61134884611a43565b611a1e565b90508281526020810184848401111561136557600080fd5b611370848285611b16565b509392505050565b60008135905061138781611e65565b92915050565b600082601f83011261139e57600080fd5b81356113ae84826020860161133a565b91505092915050565b6000813590506113c681611e7c565b92915050565b6000806000606084860312156113e157600080fd5b60006113ef86828701611378565b935050602084013567ffffffffffffffff81111561140c57600080fd5b6114188682870161138d565b9250506040611429868287016113b7565b9150509250925092565b60006020828403121561144557600080fd5b6000611453848285016113b7565b91505092915050565b60006114688383611474565b60208301905092915050565b61147d81611ada565b82525050565b61148c81611ada565b82525050565b600061149d82611a84565b6114a78185611aa7565b93506114b283611a74565b8060005b838110156114e35781516114ca888261145c565b97506114d583611a9a565b9250506001810190506114b6565b5085935050505092915050565b60006114fb82611a8f565b6115058185611ab8565b9350611515818560208601611b25565b61151e81611c91565b840191505092915050565b600061153482611a8f565b61153e8185611ac9565b935061154e818560208601611b25565b61155781611c91565b840191505092915050565b600061156f601983611ac9565b915061157a82611ca2565b602082019050919050565b6000611592601583611ac9565b915061159d82611ccb565b602082019050919050565b60006115b5601583611ac9565b91506115c082611cf4565b602082019050919050565b60006115d8601783611ac9565b91506115e382611d1d565b602082019050919050565b60006115fb601f83611ac9565b915061160682611d46565b602082019050919050565b600061161e600d83611ac9565b915061162982611d6f565b602082019050919050565b6000611641601383611ac9565b915061164c82611d98565b602082019050919050565b6000611664601783611ac9565b915061166f82611dc1565b602082019050919050565b6000611687601783611ac9565b915061169282611dea565b602082019050919050565b60006116aa601983611ac9565b91506116b582611e13565b602082019050919050565b60006116cd601083611ac9565b91506116d882611e3c565b602082019050919050565b600060c0830160008301516116fb6000860182611474565b50602083015161170e6020860182611474565b506040830151848203604086015261172682826114f0565b915050606083015161173b606086018261176c565b50608083015161174e608086018261176c565b5060a083015161176160a086018261176c565b508091505092915050565b61177581611b0c565b82525050565b61178481611b0c565b82525050565b600060208201905061179f6000830184611483565b92915050565b60006040820190506117ba6000830185611483565b6117c7602083018461177b565b9392505050565b600060208201905081810360008301526117e88184611492565b905092915050565b6000602082019050818103600083015261180981611562565b9050919050565b6000602082019050818103600083015261182981611585565b9050919050565b60006020820190508181036000830152611849816115a8565b9050919050565b60006020820190508181036000830152611869816115cb565b9050919050565b60006020820190508181036000830152611889816115ee565b9050919050565b600060208201905081810360008301526118a981611611565b9050919050565b600060208201905081810360008301526118c981611634565b9050919050565b600060208201905081810360008301526118e981611657565b9050919050565b600060208201905081810360008301526119098161167a565b9050919050565b600060208201905081810360008301526119298161169d565b9050919050565b60006020820190508181036000830152611949816116c0565b9050919050565b6000602082019050818103600083015261196a81846116e3565b905092915050565b6000602082019050611987600083018461177b565b92915050565b60006060820190506119a2600083018661177b565b6119af602083018561177b565b6119bc6040830184611483565b949350505050565b600060a0820190506119d9600083018861177b565b6119e6602083018761177b565b6119f36040830186611483565b611a006060830185611483565b8181036080830152611a128184611529565b90509695505050505050565b6000611a28611a39565b9050611a348282611b8a565b919050565b6000604051905090565b600067ffffffffffffffff821115611a5e57611a5d611c62565b5b611a6782611c91565b9050602081019050919050565b6000819050602082019050919050565b600081519050919050565b600081519050919050565b6000602082019050919050565b600082825260208201905092915050565b600082825260208201905092915050565b600082825260208201905092915050565b6000611ae582611aec565b9050919050565b600073ffffffffffffffffffffffffffffffffffffffff82169050919050565b6000819050919050565b82818337600083830152505050565b60005b83811015611b43578082015181840152602081019050611b28565b83811115611b52576000848401525b50505050565b60006002820490506001821680611b7057607f821691505b60208210811415611b8457611b83611c33565b5b50919050565b611b9382611c91565b810181811067ffffffffffffffff82111715611bb257611bb1611c62565b5b80604052505050565b6000611bc682611b0c565b91507fffffffffffffffffffffffffffffffffffffffffffffffffffffffffffffffff821415611bf957611bf8611c04565b5b600182019050919050565b7f4e487b7100000000000000000000000000000000000000000000000000000000600052601160045260246000fd5b7f4e487b7100000000000000000000000000000000000000000000000000000000600052602260045260246000fd5b7f4e487b7100000000000000000000000000000000000000000000000000000000600052604160045260246000fd5b6000601f19601f8301169050919050565b7f526563697065696e7420697320746869732077616c6c65742100000000000000600082015250565b7f4e6f74207472616e736665722063726561746f72210000000000000000000000600082015250565b7f5472616e7366657220616d6f756e742069732030210000000000000000000000600082015250565b7f526563697069656e742069732061646472657373203021000000000000000000600082015250565b7f496e73756666696369656e742066756e647320666f72207061796d656e742100600082015250565b7f4e6f7420616e206f776e65722100000000000000000000000000000000000000600082015250565b7f4e6f207375636820726571756573742069642100000000000000000000000000600082015250565b7f416c726561647920676976656e20617070726f76616c21000000000000000000600082015250565b7f4e6f207472616e7366657220746f20617070726f766521000000000000000000600082015250565b7f4e6f2066756e64732073656e7420746f206465706f7369742100000000000000600082015250565b7f4e6f7420616e20617070726f7665722100000000000000000000000000000000600082015250565b611e6e81611ada565b8114611e7957600080fd5b50565b611e8581611b0c565b8114611e9057600080fd5b5056fea264697066735822122041ba7fbfeae0e8d93a481c7b3dd5065d78106755040c1de5efd915797dfcc6ae64736f6c63430008040033",
  "immutableReferences": {},
  "source": "// SPDX-License-Identifier: MIT\npragma solidity 0.8.4;\n\nimport \"./MultiOwnable.sol\";\nimport \"./Approvable.sol\";\n\ncontract MultiSigWallet is MultiOwnable, Approvable {\n\n    // STATE VARIABLES\n    address internal _walletCreator;\n\n    struct TxRequest {\n        address requestor;\n        address recipient;\n        string reason;\n        uint amount;\n        uint approvals;\n        uint id;    // request id\n    }\n    \n    TxRequest[] internal _txRequests;  // array's index == request id\n    mapping (uint => address) internal _txRequestors;\n    mapping (address => mapping (uint => bool)) internal _txApprovals;\n        // approver => (requestId => approval?)\n    \n    event DepositReceived(uint amount); \n    event TxRequestCreated(\n        uint id,\n        uint amount,\n        address to,\n        address requestor,\n        string reason\n    );\n    event TxApprovalGiven(uint id, uint approvals, address lastApprover);\n    event TransferSent(address to, uint amount); \n\n    // FUNCTIONS\n    // Public & External functions\n    \n    constructor(address[] memory owners, uint minTxApprovals)\n        MultiOwnable(owners)\n        Approvable(owners, minTxApprovals)\n    {\n        _walletCreator = msg.sender;\n    }\n    \n    \n    function deposit() external payable {\n        require (msg.value > 0, \"No funds sent to deposit!\");\n        emit DepositReceived(msg.value);\n    }\n    \n        \n    function createTransferRequest(\n        address toAddress,\n        string memory reason,\n        uint amountWei\n    )\n        public\n        onlyAnOwner\n        returns (uint txId)\n    {\n        require(toAddress != address(0), \"Recipient is address 0!\");\n        require(toAddress != address(this), \"Recipeint is this wallet!\");\n        require(amountWei > 0, \"Transfer amount is 0!\");\n        \n        TxRequest memory newRequest =\n            TxRequest(\n                msg.sender,\n                toAddress,\n                reason,\n                amountWei,\n                0,\n                _txRequests.length\n            );\n\n        _txRequests.push(newRequest);\n        _txRequestors[newRequest.id] = msg.sender;\n        \n        emit TxRequestCreated(\n            newRequest.id,\n            newRequest.amount,\n            newRequest.recipient,\n            newRequest.requestor,\n            newRequest.reason);\n\n        return newRequest.id;\n    }\n    \n\n    function approveTransferRequest(uint requestId)\n        public\n        onlyAnApprover\n    {\n        require(requestId < _txRequests.length, \"No such request id!\");\n        require(_txRequests[requestId].amount > 0, \"No transfer to approve!\");\n        require(\n            _txApprovals[msg.sender][requestId] != true,\n            \"Already given approval!\"\n        );\n        require(\n            address(this).balance >= _txRequests[requestId].amount,\n            \"Insufficient funds for payment!\"\n        ); // NB.Gas cost not accounted for\n\n        _txApprovals[msg.sender][requestId] = true;\n        _txRequests[requestId].approvals++;\n        \n        emit TxApprovalGiven(requestId, _txRequests[requestId].approvals, msg.sender);\n        \n        if (_txRequests[requestId].approvals >= _minApprovals) {\n            _makeApprovedTransfer(requestId);\n        }\n    }\n    \n    \n    function cancelTransferRequest(uint requestId) public onlyAnOwner {\n        require(requestId < _txRequests.length, \"No such request id!\");\n        require(\n            _txRequestors[requestId] == msg.sender,\n            \"Not transfer creator!\"\n        );\n        _deleteTransferRequest(requestId);\n    }\n    \n\n    // Internal and private functions\n    \n    function _deleteTransferRequest(uint requestId) internal {\n        delete _txRequests[requestId];\n        delete _txRequestors[requestId];\n    }\n    \n    \n    function _makeApprovedTransfer(uint requestId) internal {\n        address sendTo = _txRequests[requestId].recipient;\n        uint amountInWei = _txRequests[requestId].amount;\n        _deleteTransferRequest(requestId);\n\n        _transfer(sendTo, amountInWei);\n            \n        emit TransferSent(sendTo, amountInWei);\n    }\n            \n    \n    function _transfer(address sendTo, uint amountInWei) internal {\n        // address payable to = address(uint160(sendTo));\n        // to.transfer(amountInWei);\n        payable(sendTo).transfer(amountInWei);\n    }\n    \n\n    // Functions for Developer testing \n\n    function getTransferRequest(uint id)\n        public\n        view\n        returns (TxRequest memory transferRequest)\n    {\n        return _txRequests[id];\n    }\n    \n    function getWalletBalance() public view returns (uint balance) {\n        return address(this).balance;\n    }\n    \n    function getWalletCreator() public view returns (address) {\n        return _walletCreator;\n    }\n    \n    function totalTransferRequests() public view returns (uint) {\n        return _txRequests.length; // Includes cancelled & approved requests\n    }\n}",
  "sourcePath": "/Users/Mark/Documents/BlockChain/IvanOnTechAcademy/Bootcamp/Upgradeable MultiSig Wallet/contracts/MultiSigWallet.sol",
  "compiler": {
    "name": "solc",
    "version": "0.8.4+commit.c7e474f2.Emscripten.clang"
  },
  "schemaVersion": "3.4.0",
  "updatedAt": "2021-06-03T12:08:00.289Z",
  "networkType": "ethereum",
  "devdoc": {
    "kind": "dev",
    "methods": {},
    "version": 1
  },
  "userdoc": {
    "kind": "user",
    "methods": {},
    "version": 1
  }
}